:100000000C942A000C9434000C9434000C943400AA
:100010000C9434000C9434000C9434000C94340090
:100020000C9434000C9434000C9434000C94340080
:100030000C9434000C9434000C9434000C94340070
:100040000C9434000C9434000C9434000C94340060
:100050000C94340011241FBECFE5D8E0DEBFCDBF25
:100060000E9436000C9447000C9400008FEF85B975
:1000700080E091E0980F86B92FEF33EC89E02150B2
:1000800030408040E1F700C00000892FF2CFF894A3
:02009000FFCFA0
:00000001FF
