:100000000C9439000C94FB030C9424040C944D04C0
:100010000C9456000C9456000C947A050C94FF0432
:100020000C9428050C9451050C94AD040C94D60442
:100030000C9484040C94A3050C94F5050C94CC0545
:100040000C9478020C9456000C9456000C945600B4
:100050000C9456002A022C022E0230023302360281
:100060003A024C024E0250025402560259025C02FD
:100070005E0211241FBECFE5D8E0DEBFCDBF10E089
:10008000A0E6B0E0E0EFFEE002C005900D92A838D7
:10009000B107D9F720E0A8E8B0E001C01D92A53A69
:1000A000B207E1F70E940E020C9476070C94000050
:1000B00060E080E10E94800361E080E10C948003B5
:1000C000809188000C947B040E94A10261E080E191
:1000D0000E94800363E081E00E9413020E94760484
:1000E0000E947B010E943F020E94790480E690E01A
:1000F0000E947F040E947D04789460E080E00E946A
:10010000B60181E690E00C94C2010E9407026B5F89
:100110007F4F8F4F9F4F0E94BF0620E030E040E2AC
:1001200051E40E941E060E9490066093880060E0E1
:1001300081E00E94B6018091880090E00E94D50184
:10014000809188008D3228F00E9458001092600043
:100150000895809188008B3239F48091600081117C
:1001600003C00E94580008C0809188008B3240F480
:1001700061E080E10E94800381E080936000089547
:1001800080916000811102C00C9458000895CF93B3
:10019000C82F60E081E00E948003C4FB662760F9FD
:1001A00083E00E948003C5FB662760F984E00E941B
:1001B0008003C6FB662760F985E00E9480036C2FF0
:1001C000661F6627661F86E00E94800361E082E06A
:1001D0000E9480038FEC97E00197F1F700C00000C8
:1001E00060E082E00E9480036C2F617083E00E94D7
:1001F0008003C1FB662760F984E00E948003C2FB94
:10020000662760F985E00E948003C3FB662760F9DA
:1002100086E00E94800361E082E00E9480038FEC10
:1002200097E00197F1F700C0000060E082E00E94D3
:1002300080038FEC97E00197F1F700C00000CF91A9
:100240000895CF93C82F61E081E00E948003C4FB32
:10025000662760F983E00E948003C5FB662760F98A
:1002600084E00E948003C6FB662760F985E00E9457
:1002700080036C2F661F6627661F86E00E9480033E
:1002800061E082E00E9480038FEC97E00197F1F734
:1002900000C0000060E082E00E9480036C2F61706B
:1002A00083E00E948003C1FB662760F984E00E941E
:1002B0008003C2FB662760F985E00E948003C3FBD0
:1002C000662760F986E00E94800361E082E00E9478
:1002D00080038FEC97E00197F1F700C0000060E029
:1002E00082E00E9480038FEC97E00197F1F700C055
:1002F0000000CF9108952FE788E391E021508040DE
:100300009040E1F700C0000082E20E94C70060E078
:1003100081E00E94800360E085E00E94800361E04C
:1003200086E00E94800361E082E00E9480038FECFF
:1003300097E00197F1F700C0000060E082E00E94C2
:1003400080038FEC97E00197F1F700C000008CE08C
:100350000E94C70081E00E94C7008FEC97E00197E0
:10036000F1F700C0000086E00C94C700811102C0C4
:10037000862F04C0813029F480E4860F80680C94B5
:10038000C70008950F931F93CF938C01C0E0F8012D
:10039000EC0FF11D8081882321F00E942101CF5FA5
:1003A000F6CFCF911F910F9108950F931F93CF9385
:1003B000DF938C0168EE73E00E944D07CB01CAE029
:1003C000D0E0BE010E944D07805D0E942101C8015E
:1003D00064E670E00E944D07CB01BE010E944D070C
:1003E000805D0E942101C801BE010E944D07182FA7
:1003F000CB01BE010E944D07805D0E94210180E378
:10040000810FDF91CF911F910F910C94210180E01A
:100410000E946702BC0180E090E008950E946400A1
:100420000E948500FDCF813041F020F0833039F407
:100430003F9A04C03F983E9802C03F983E9A862F4C
:1004400090E0FC013197E730F105B8F4E65DFF4F2D
:100450000C946107329808C0329809C032980BC0DA
:10046000329A319805C0329A319806C0329A319A40
:10047000309803C0329A319A309A3D980895379A4D
:10048000089590E088309105E0F4FC01EF5CFF4FA7
:100490003C983B980C9461073A9809C03A980AC076
:1004A0003A98399A38980DC03A9809C03A9A3998CA
:1004B000F9CF3A9A399804C03A9AF3CF3A9A399ACE
:1004C000389A369A3699FECF84B195B108950E9434
:1004D00041029C01A8E8B3E10E946707DC01CB015F
:1004E0002AE0B695A795979587952A95D1F708950F
:1004F0001F920F920FB60F9211242F933F934F9399
:100500005F936F937F938F939F93AF93BF93EF937B
:10051000FF93E0918900F0918A00309709F00995E6
:10052000FF91EF91BF91AF919F918F917F916F91CB
:100530005F914F913F912F910F900FBE0F901F90A1
:100540001895CF93DF93E7E6F0E020EFA8EE38EFC1
:1005500040E050E081E090E0719171113CC0483082
:1005600078F4BAB3EC01042E02C0CC0FDD1F0A945C
:10057000E2F7BE017B2F762B7ABB7BB360953EC042
:10058000383068F4B7B3BC01032E01C0660F0A947B
:10059000EAF77B2F762B77BB78B360953FC0283086
:1005A00068F4B4B3BC01022E01C0660F0A94EAF7E6
:1005B0007B2F762B74BB75B3609540C0B1B3BC0183
:1005C0000A2E01C0660F0A94EAF77B2F762B71BBC7
:1005D00072B3609541C0713009F040C0483080F47A
:1005E000BAB3EC01042E02C0CC0FDD1F0A94E2F76F
:1005F000BE0160957B2F76237ABB7BB3672342C015
:10060000383070F4B7B3BC01032E01C0660F0A94F2
:10061000EAF760957B2F762377BB78B3672343C0D7
:10062000283070F4B4B3BC01022E01C0660F0A94E6
:10063000EAF760957B2F762374BB75B3672344C0BC
:10064000B1B3BC010A2E01C0660F0A94EAF76095A7
:100650007B2F762371BB72B3672345C0723009F0DC
:1006600043C0483088F4BAB3EC01042E02C0CC0F6A
:10067000DD1F0A94E2F7BE017C2F70957B237ABBC5
:100680007BB3672B6BBB30C0383078F4B7B3BC0199
:10069000032E01C0660F0A94EAF7762F70957B232C
:1006A00077BB78B3672B68BB1FC0283078F4B4B32E
:1006B000BC01022E01C0660F0A94EAF7762F7095EE
:1006C0007B2374BB75B3672B65BB0EC0B1B3BC0194
:1006D0000A2E01C0660F0A94EAF7762F70957B23E5
:1006E00071BB72B3672B62BB4F5F5F4F3F5FAF5F02
:1006F0002F5F4032510509F02FCFDF91CF91089540
:1007000061113CC0883068F44BB321E030E0B9019E
:1007100002C0660F771F8A95E2F7CB01809584238C
:100720003CC038EF380F383050F428B381E090E007
:1007300001C0880F3A95EAF7809582233CC030EFDC
:10074000380F383050F425B381E090E001C0880FB5
:100750003A95EAF7809582233CC08851883008F0AA
:1007600049C042B321E030E0B90102C0660F771FF3
:100770008A95E2F7CB01809584233BC06130D1F5A7
:10078000883068F44BB321E030E0B90102C0660F55
:10079000771F8A95E2F7CB01842B8BBB089528EF56
:1007A000280F283050F438B381E090E001C0880F62
:1007B0002A95EAF7832B88BB089520EF280F28306D
:1007C00050F435B381E090E001C0880F2A95EAF734
:1007D000832B85BB08958851883060F442B321E0B3
:1007E00030E0B90102C0660F771F8A95E2F7CB01AE
:1007F000842B82BB08951F920F920FB60F92112483
:100800002F933F934F935F936F937F938F939F9318
:10081000AF93BF93EF93FF93E0918F00F09190001F
:10082000309709F00995FF91EF91BF91AF919F919A
:100830008F917F916F915F914F913F912F910F9089
:100840000FBE0F901F9018951F920F920FB60F9228
:1008500011242F933F934F935F936F937F938F93C5
:100860009F93AF93BF93EF93FF93E0918D00F0912F
:100870008E00309709F00995FF91EF91BF91AF91EC
:100880009F918F917F916F915F914F913F912F91A8
:100890000F900FBE0F901F9018951F920F920FB6DA
:1008A0000F9211242F933F934F935F936F937F93F6
:1008B0008F939F93AF93BF93EF93FF93E0918B0040
:1008C000F0918C00309709F00995FF91EF91BF915D
:1008D000AF919F918F917F916F915F914F913F91D8
:1008E0002F910F900FBE0F901F9018956C986D98D8
:1008F00008956E9A08958FB908956F9A0895909308
:1009000092008093910008951F920F920FB60F925C
:1009100011242F933F934F935F936F937F938F9304
:100920009F93AF93BF93EF93FF93E0919100F0916A
:100930009200309709F00995FF91EF91BF91AF9127
:100940009F918F917F916F915F914F913F912F91E7
:100950000F900FBE0F901F9018951F920F920FB619
:100960000F9211242F933F934F935F936F937F9335
:100970008F939F93AF93BF93EF93FF93E091950075
:10098000F0919600309709F00995FF91EF91BF9192
:10099000AF919F918F917F916F915F914F913F9117
:1009A0002F910F900FBE0F901F9018951F920F92CE
:1009B0000FB60F9211242F933F934F935F936F9332
:1009C0007F938F939F93AF93BF93EF93FF93E091A8
:1009D0009300F0919400309709F00995FF91EF9101
:1009E000BF91AF919F918F917F916F915F914F9147
:1009F0003F912F910F900FBE0F901F9018951F924F
:100A00000F920FB60F9211242F933F934F935F9342
:100A10006F937F938F939F93AF93BF93EF93FF93C6
:100A2000E0919D00F0919E00309709F00995FF91AB
:100A3000EF91BF91AF919F918F917F916F915F9156
:100A40004F913F912F910F900FBE0F901F901895CF
:100A50001F920F920FB60F9211242F933F934F9333
:100A60005F936F937F938F939F93AF93BF93EF9316
:100A7000FF93E0919B00F0919C00309709F009955D
:100A8000FF91EF91BF91AF919F918F917F916F9166
:100A90005F914F913F912F910F900FBE0F901F903C
:100AA00018951F920F920FB60F9211242F933F9318
:100AB0004F935F936F937F938F939F93AF93BF9366
:100AC000EF93FF93E0919900F0919A00309709F02D
:100AD0000995FF91EF91BF91AF919F918F917F9178
:100AE0006F915F914F913F912F910F900FBE0F909B
:100AF0001F9018951F920F920FB60F9211242F93EB
:100B00003F934F935F936F937F938F939F93AF9395
:100B1000BF93EF93FF93E0919700F0919800309787
:100B200009F00995FF91EF91BF91AF919F918F913E
:100B30007F916F915F914F913F912F910F900FBED9
:100B40000F901F9018951F920F920FB60F921124BD
:100B50002F933F934F935F936F937F938F939F93C5
:100B6000AF93BF93EF93FF93E091A300F091A400A4
:100B7000309709F00995FF91EF91BF91AF919F9147
:100B80008F917F916F915F914F913F912F910F9036
:100B90000FBE0F901F9018951F920F920FB60F92D5
:100BA00011242F933F934F935F936F937F938F9372
:100BB0009F93AF93BF93EF93FF93E091A100F091C8
:100BC000A200309709F00995FF91EF91BF91AF9185
:100BD0009F918F917F916F915F914F913F912F9155
:100BE0000F900FBE0F901F9018951F920F920FB687
:100BF0000F9211242F933F934F935F936F937F93A3
:100C00008F939F93AF93BF93EF93FF93E0919F00D8
:100C1000F091A000309709F00995FF91EF91BF91F5
:100C2000AF919F918F917F916F915F914F913F9184
:100C30002F910F900FBE0F901F9018950E943206B3
:100C40000C9413070E940C0758F00E94050740F00F
:100C500029F45F3F29F00C94FC0651110C944707CE
:100C60000C9402070E94240768F39923B1F35523DB
:100C700091F3951B550BBB27AA27621773078407AF
:100C800038F09F5F5F4F220F331F441FAA1FA9F345
:100C900035D00E2E3AF0E0E832D091505040E69533
:100CA000001CCAF72BD0FE2F29D0660F771F881F94
:100CB000BB1F261737074807AB07B0E809F0BB0B87
:100CC000802DBF01FF2793585F4F3AF09E3F51059B
:100CD00078F00C94FC060C9447075F3FE4F3983ED1
:100CE000D4F3869577956795B795F7959F5FC9F784
:100CF000880F911D9695879597F90895E1E0660F05
:100D0000771F881FBB1F621773078407BA0720F07D
:100D1000621B730B840BBA0BEE1F88F7E0950895E6
:100D20000E942C0788F09F5798F0B92F9927B75148
:100D3000B0F0E1F0660F771F881F991F1AF0BA957F
:100D4000C9F714C0B13091F00E944607B1E0089590
:100D50000C944607672F782F8827B85F39F0B93F82
:100D6000CCF3869577956795B395D9F73EF4909532
:100D70008095709561957F4F8F4F9F4F0895E894B0
:100D800009C097FB3EF490958095709561957F4FD3
:100D90008F4F9F4F9923A9F0F92F96E9BB27939581
:100DA000F695879577956795B795F111F8CFFAF491
:100DB000BB0F11F460FF1BC06F5F7F4F8F4F9F4FC2
:100DC00016C0882311F096E911C0772321F09EE820
:100DD000872F762F05C0662371F096E8862F70E086
:100DE00060E02AF09A95660F771F881FDAF7880F60
:100DF0009695879597F9089597F99F6780E870E031
:100E000060E008959FEF80EC089500240A94161680
:100E1000170618060906089500240A9412161306E8
:100E2000140605060895092E0394000C11F4882376
:100E300052F0BB0F40F4BF2B11F460FF04C06F5F92
:100E40007F4F8F4F9F4F089557FD9058440F551F68
:100E500059F05F3F71F04795880F97FB991F61F03C
:100E60009F3F79F087950895121613061406551FB3
:100E7000F2CF4695F1DF08C0161617061806991F1F
:100E8000F1CF86957105610508940895E894BB2714
:100E900066277727CB0197F90895AA1BBB1B51E161
:100EA00007C0AA1FBB1FA617B70710F0A61BB70BDA
:100EB000881F991F5A95A9F780959095BC01CD017F
:100EC0000895EE0FFF1F0590F491E02D0994A29F65
:100ED000B001B39FC001A39F700D811D1124911D0E
:100EE000B29F700D811D1124911D0895F894FFCFBC
:100EF0000154656D702E000100000000000001002B
:100F000000000001010001000000000000000000DE
:080F10000000020000000000D7
:00000001FF
