:100000000C942A000C9407030C9430030C945903AD
:100010000C9447000C9447000C944F040C94D403A8
:100020000C94FD030C9426040C9482030C94AB03F3
:100030000C9447000C94B4040C9406050C94DD0455
:100040000C9474010C9447000C9447000C944700E6
:100050000C94470011241FBECFE5D8E0DEBFCDBF12
:1000600010E0A0E6B0E0EAEDFEE002C005900D92DF
:10007000A438B107D9F720E0A4E8B0E001C01D9290
:10008000A93CB207E1F70E9426010C946B070C947F
:100090000000CF93C82F60E08EE10E947C026C2F9D
:1000A00082E00E94F70261E08FE10E947C028FEC07
:1000B00097E00197F1F700C0000060E08FE10E9437
:1000C0007C028FEC97E00197F1F700C00000CF9120
:1000D0000895CF93C82F61E08EE10E947C026C2FBF
:1000E00082E00E94F70261E08FE10E947C028FECC7
:1000F00097E00197F1F700C0000060E08FE10E94F7
:100100007C028FEC97E00197F1F700C00000CF91DF
:1001100008952FE788E391E0215080409040E1F777
:1001200000C0000088E30E9449008CE00E94490062
:1001300081E00E9449008FEC97E00197F1F700C041
:10014000000086E00C944900811103C0862F80686E
:1001500004C0813021F4862F806C0C9449000895EE
:10016000CF93DF93EC018991882319F00E946900F5
:10017000FACFDF91CF9108958F929F92AF92BF9265
:10018000CF92DF92EF92FF92CF93611571058105B7
:10019000910561F480E3CF91FF90EF90DF90CF90D5
:1001A000BF90AF909F908F900C9469006B017C0181
:1001B00097FF0AC08DE20E94690066277727CB016E
:1001C0006C197D098E099F090E9427066B017C012D
:1001D000C0E020E030E040E85FE3C701B6010E94E4
:1001E000D70687FD0CC020E030E040E251E4C701B3
:1001F000B6010E9484056B017C01CF5FEACF8AE0E3
:10020000882E912CA12CB12CCC23B1F020E030E031
:1002100040E251E4C701B6010E94DC066B017C019B
:100220000E94F605A50194010E94490780E3860F0C
:100230000E946900C150E8CFCF91FF90EF90DF900E
:10024000CF90BF90AF909F908F900895CF93DF9302
:10025000CDB7DEB7CE5FD1400FB6F894DEBF0FBE8C
:10026000CDBF0E9478040E94A7040E94A9040E94A6
:100270009D010E948900789460E080E00E94A400C3
:1002800080E690E00E94B00010E0CE0193950E94BD
:10029000690560E081E00E94A400CE0193950E9470
:1002A000B000CE0101960E94690566E081E00E94DF
:1002B000A400CE0101960E94B0006BE080E00E9495
:1002C000A400612F70E080E090E00E94BC002FEF5E
:1002D00089E698E1215080409040E1F700C000009D
:1002E0001F5F1A3091F6D0CF1F920F920FB60F9268
:1002F00011242F933F934F935F936F937F938F932B
:100300009F93AF93BF93EF93FF93E0918400F0919D
:100310008500309709F00995FF91EF91BF91AF915A
:100320009F918F917F916F915F914F913F912F910D
:100330000F900FBE0F901F901895CF93DF93E3E6B9
:10034000F0E020EFA8EE38EF40E050E081E090E0F0
:10035000719171113CC0483078F4BAB3EC01042EAD
:1003600002C0CC0FDD1F0A94E2F7BE017B2F762B73
:100370007ABB7BB360953EC0383068F4B7B3BC013C
:10038000032E01C0660F0A94EAF77B2F762B77BB0A
:1003900078B360953FC0283068F4B4B3BC01022E36
:1003A00001C0660F0A94EAF77B2F762B74BB75B3F6
:1003B000609540C0B1B3BC010A2E01C0660F0A941B
:1003C000EAF77B2F762B71BB72B3609541C0713019
:1003D00009F040C0483080F4BAB3EC01042E02C0EA
:1003E000CC0FDD1F0A94E2F7BE0160957B2F7623C8
:1003F0007ABB7BB3672342C0383070F4B7B3BC011B
:10040000032E01C0660F0A94EAF760957B2F7623CE
:1004100077BB78B3672343C0283070F4B4B3BC0112
:10042000022E01C0660F0A94EAF760957B2F7623AF
:1004300074BB75B3672344C0B1B3BC010A2E01C0BD
:10044000660F0A94EAF760957B2F762371BB72B32F
:10045000672345C0723009F043C0483088F4BAB30E
:10046000EC01042E02C0CC0FDD1F0A94E2F7BE019E
:100470007C2F70957B237ABB7BB3672B6BBB30C023
:10048000383078F4B7B3BC01032E01C0660F0A946C
:10049000EAF7762F70957B2377BB78B3672B68BB21
:1004A0001FC0283078F4B4B3BC01022E01C0660F1F
:1004B0000A94EAF7762F70957B2374BB75B3672B8C
:1004C00065BB0EC0B1B3BC010A2E01C0660F0A9411
:1004D000EAF7762F70957B2371BB72B3672B62BBF3
:1004E0004F5F5F4F3F5FAF5F2F5F4032510509F0B5
:1004F0002FCFDF91CF91089561113CC0883068F40F
:100500004BB321E030E0B90102C0660F771F8A9536
:10051000E2F7CB01809584233CC038EF380F3830A8
:1005200050F428B381E090E001C0880F3A95EAF7D3
:10053000809582233CC030EF380F383050F425B31B
:1005400081E090E001C0880F3A95EAF78095822318
:100550003CC08851883008F049C042B321E030E007
:10056000B90102C0660F771F8A95E2F7CB0180952B
:1005700084233BC06130D1F5883068F44BB321E06F
:1005800030E0B90102C0660F771F8A95E2F7CB0110
:10059000842B8BBB089528EF280F283050F438B3F4
:1005A00081E090E001C0880F2A95EAF7832B88BB91
:1005B000089520EF280F283050F435B381E090E003
:1005C00001C0880F2A95EAF7832B85BB08958851CF
:1005D000883060F442B321E030E0B90102C0660F18
:1005E000771F8A95E2F7CB01842B82BB0895813077
:1005F00041F028F0823039F0833039F008956BBB38
:10060000089568BB089565BB089562BB08951F9265
:100610000F920FB60F9211242F933F934F935F9336
:100620006F937F938F939F93AF93BF93EF93FF93BA
:10063000E0918A00F0918B00309709F00995FF91C5
:10064000EF91BF91AF919F918F917F916F915F914A
:100650004F913F912F910F900FBE0F901F901895C3
:100660001F920F920FB60F9211242F933F934F9327
:100670005F936F937F938F939F93AF93BF93EF930A
:10068000FF93E0918800F0918900309709F0099577
:10069000FF91EF91BF91AF919F918F917F916F915A
:1006A0005F914F913F912F910F900FBE0F901F9030
:1006B00018951F920F920FB60F9211242F933F930C
:1006C0004F935F936F937F938F939F93AF93BF935A
:1006D000EF93FF93E0918600F0918700309709F047
:1006E0000995FF91EF91BF91AF919F918F917F916C
:1006F0006F915F914F913F912F910F900FBE0F908F
:100700001F9018951F920F920FB60F9211242F93DE
:100710003F934F935F936F937F938F939F93AF9389
:10072000BF93EF93FF93E0918E00F0918F0030978D
:1007300009F00995FF91EF91BF91AF919F918F9132
:100740007F916F915F914F913F912F910F900FBECD
:100750000F901F9018951F920F920FB60F921124B1
:100760002F933F934F935F936F937F938F939F93B9
:10077000AF93BF93EF93FF93E0918C00F0918D00C6
:10078000309709F00995FF91EF91BF91AF919F913B
:100790008F917F916F915F914F913F912F910F902A
:1007A0000FBE0F901F9018951F920F920FB60F92C9
:1007B00011242F933F934F935F936F937F938F9366
:1007C0009F93AF93BF93EF93FF93E0919600F091C7
:1007D0009700309709F00995FF91EF91BF91AF9184
:1007E0009F918F917F916F915F914F913F912F9149
:1007F0000F900FBE0F901F9018951F920F920FB67B
:100800000F9211242F933F934F935F936F937F9396
:100810008F939F93AF93BF93EF93FF93E0919400D7
:10082000F0919500309709F00995FF91EF91BF91F4
:10083000AF919F918F917F916F915F914F913F9178
:100840002F910F900FBE0F901F9018951F920F922F
:100850000FB60F9211242F933F934F935F936F9393
:100860007F938F939F93AF93BF93EF93FF93E09109
:100870009200F0919300309709F00995FF91EF9164
:10088000BF91AF919F918F917F916F915F914F91A8
:100890003F912F910F900FBE0F901F9018951F92B0
:1008A0000F920FB60F9211242F933F934F935F93A4
:1008B0006F937F938F939F93AF93BF93EF93FF9328
:1008C000E0919000F0919100309709F00995FF9127
:1008D000EF91BF91AF919F918F917F916F915F91B8
:1008E0004F913F912F910F900FBE0F901F90189531
:1008F00080B5806880BD80B58F7B80BD599880B5FC
:10090000806880BD80B58F7D80BD80B58F7E80BDC5
:1009100080B5806880BD80B5877F80BD80B58068E8
:1009200080BD80B58B7F80BD80B5846080BD80B583
:10093000826080BD80B5806880BD80B58E7F80BDBF
:1009400083E389B980B58F7780BD10BC0895539A31
:100950000895549A08958CB10895579A08959093E4
:100960009D0080939C0008951F920F920FB60F92E6
:1009700011242F933F934F935F936F937F938F93A4
:100980009F93AF93BF93EF93FF93E0919C00F091FF
:100990009D00309709F00995FF91EF91BF91AF91BC
:1009A0009F918F917F916F915F914F913F912F9187
:1009B0000F900FBE0F901F9018951F920F920FB6B9
:1009C0000F9211242F933F934F935F936F937F93D5
:1009D0008F939F93AF93BF93EF93FF93E0919A0010
:1009E000F0919B00309709F00995FF91EF91BF912D
:1009F000AF919F918F917F916F915F914F913F91B7
:100A00002F910F900FBE0F901F9018951F920F926D
:100A10000FB60F9211242F933F934F935F936F93D1
:100A20007F938F939F93AF93BF93EF93FF93E09147
:100A30009800F0919900309709F00995FF91EF9196
:100A4000BF91AF919F918F917F916F915F914F91E6
:100A50003F912F910F900FBE0F901F901895CF933D
:100A6000DF93E0919F008091A000E81758F5F0E037
:100A7000EE0FFF1FEF55FF4F80919E00C081D18187
:100A8000C80FD11D0E94AB04888380919F00909174
:100A90009E00E82FF0E0EE0FFF1FEF55FF4F019093
:100AA000F081E02DE90FF11D20812D3021F09F5FB5
:100AB00090939E000BC010828F5F80939F001092D6
:100AC0009E0004C01092A00010929F00DF91CF9171
:100AD0000895CF93DF93EC018FE295E00E94AF047D
:100AE0000E94AD048091A000E82FF0E0EE0FFF1F00
:100AF000EF55FF4FD183C083843118F48F5F80930B
:100B0000A000DF91CF9108950E9498050C949D0656
:100B10000E94960658F00E948F0640F029F45F3F2D
:100B200029F00C94860651110C94D1060C948C0675
:100B30000E94AE0668F39923B1F3552391F3951BF8
:100B4000550BBB27AA2762177307840738F09F5FEE
:100B50005F4F220F331F441FAA1FA9F335D00E2E5B
:100B60003AF0E0E832D091505040E695001CCAF7C8
:100B70002BD0FE2F29D0660F771F881FBB1F26178B
:100B800037074807AB07B0E809F0BB0B802DBF0162
:100B9000FF2793585F4F3AF09E3F510578F00C9431
:100BA00086060C94D1065F3FE4F3983ED4F3869515
:100BB00077956795B795F7959F5FC9F7880F911D52
:100BC0009695879597F90895E1E0660F771F881F3E
:100BD000BB1F621773078407BA0720F0621B730BF1
:100BE000840BBA0BEE1F88F7E09508950E94B606B5
:100BF00088F09F5798F0B92F9927B751B0F0E1F0DE
:100C0000660F771F881F991F1AF0BA95C9F714C08D
:100C1000B13091F00E94D006B1E008950C94D00656
:100C2000672F782F8827B85F39F0B93FCCF38695C6
:100C300077956795B395D9F73EF490958095709523
:100C400061957F4F8F4F9F4F0895E89409C097FBA0
:100C50003EF490958095709561957F4F8F4F9F4F93
:100C60009923A9F0F92F96E9BB279395F6958795D7
:100C700077956795B795F111F8CFFAF4BB0F11F49A
:100C800060FF1BC06F5F7F4F8F4F9F4F16C0882341
:100C900011F096E911C0772321F09EE8872F762F77
:100CA00005C0662371F096E8862F70E060E02AF0B8
:100CB0009A95660F771F881FDAF7880F96958795A4
:100CC00097F90895990F0008550FAA0BE0E8FEEF79
:100CD00016161706E807F907C0F012161306E40700
:100CE000F50798F0621B730B840B950B39F40A26F9
:100CF00061F0232B242B252B21F408950A2609F4D7
:100D0000A140A6958FEF811D811D089597F99F67DA
:100D100080E870E060E008959FEF80EC0895002483
:100D20000A941616170618060906089500240A9450
:100D300012161306140605060895092E0394000CD6
:100D400011F4882352F0BB0F40F4BF2B11F460FF65
:100D500004C06F5F7F4F8F4F9F4F089557FD90588E
:100D6000440F551F59F05F3F71F04795880F97FB6F
:100D7000991F61F09F3F79F0879508951216130629
:100D80001406551FF2CF4695F1DF08C01616170658
:100D90001806991FF1CF869571056105089408958D
:100DA000E894BB2766277727CB0197F908950E941F
:100DB000620608F48FEF08950E94EF060C949D06DA
:100DC0000E948F0638F00E94960620F0952311F0BD
:100DD0000C9486060C948C0611240C94D1060E9467
:100DE000AE0670F3959FC1F3950F50E0551F629FBB
:100DF000F001729FBB27F00DB11D639FAA27F00D74
:100E0000B11DAA1F649F6627B00DA11D661F829F9A
:100E10002227B00DA11D621F739FB00DA11D621F7F
:100E2000839FA00D611D221F749F3327A00D611D9C
:100E3000231F849F600D211D822F762F6A2F11247E
:100E40009F5750409AF0F1F088234AF0EE0FFF1FB1
:100E5000BB1F661F771F881F91505040A9F79E3F08
:100E6000510580F00C9486060C94D1065F3FE4F3A4
:100E7000983ED4F3869577956795B795F795E7955E
:100E80009F5FC1F7FE2B880F911D9695879597F967
:100E90000895A1E21A2EAA1BBB1BFD010DC0AA1FBB
:100EA000BB1FEE1FFF1FA217B307E407F50720F0D3
:100EB000A21BB30BE40BF50B661F771F881F991F4E
:100EC0001A9469F760957095809590959B01AC0197
:0A0ED000BD01CF010895F894FFCF93
:100EDA005258000000000101010101000000000059
:100EEA0000000000000000000000000000000200F6
:040EFA0000000000F4
:00000001FF
