S014000061746D65676133325F4543552E7372656300
S11300000C943A000C942A040C9453040C947C042D
S11300100C9457000C9457000C9463060C94E80558
S11300200C9411060C943A060C94CE040C94F70428
S11300300C94A5040C94C6060C9418070C94EF06B3
S11300400C94A7020C9457000C9457000C9457007E
S11300500C9457005C055F0562056505680571052C
S113006077057A057D0583058C0592059805B3050A
S11300709B05A70511241FBECFE5D8E0DEBFCDBF89
S113008010E0A0E6B0E0EAE8F3E102C005900D92CA
S1130090AC38B107D9F721E0ACE8B0E001C01D925B
S11300A0AF30B207E1F70E94A2020C94C3090C948A
S11300B00000CF93DF93E4EBF0E0C0EAD0E0ACE8DB
S11300C0B0E0119219921D9280E0E83CF807C9F75C
S11300D0DF91CF910895E4EBF0E081918D3031F020
S11300E080E0E83CF807C9F780E0089581E00895CE
S11300F0BC0190E0292F30E0F901E056FF4F408128
S11301004423A1F0FB01E20FF31F2081421761F0A9
S113011050E030E0F901B0974E175F0729F0205EF8
S11301203F4F4217530751F49F5FE4CFFB01E20FA7
S1130130F31F80818111E6CF81E0089580E0089566
S11301400E94D00280E29EE49BBD8ABD60E070E024
S1130150CB010E94850222E040E06FE082E00E9431
S113016020050E948C060E94210278940E94BB06FE
S11301700C9459000F931F93CF93DF9384EB90E07B
S11301800E947F07A4EBB0E0C0EAD0E0E0E09D91DC
S1130190292F2F7D81E08E0F222329F0E23119F0DF
S11301A09993E82FF4CFF0E0E056FF4F1082CCE8AB
S11301B0D0E0E0E0A82FB0E0AC54BF4F9C9199236D
S11301C031F0E33121F09993EF5F8F5FF3CFF0E0EB
S11301D0E557FF4F80818D3009F4108281E690E06D
S11301E00E947800882319F180918C00882361F0A3
S11301F080918D00811108C080916000813021F4CC
S1130200109260000E945C0260E080E00E9466023E
S11302108CE890E00E9472020E946B00882309F42B
S113022057C00E94590081E08093600051C085E668
S113023090E00E947800882309F440C00E946B007B
S1130240882309F445C060918C006D3249F070E058
S113025060537109072E000C880B990BC0E004C091
S1130260C1E060E070E0CB01F1E0AF2FB0E0A45753
S1130270BF4FEC91EE23A1F0AAE0B0E09B01AC01EA
S11302800E94B8092E2F30E0205331098901330F21
S1130290220B330B600F711F821F931FFF5FE5CF8B
S11302A0C13039F490958095709561957F4F8F4F4B
S11302B09F4F0E94AA080E94850204C00E946B00FE
S11302C0882331F0DF91CF911F910F910C94590045
S11302D0DF91CF911F910F910895CF93C82F60E0C4
S11302E081E00E94AF03C4FB662760F983E00E94AB
S11302F0AF03C5FB662760F984E00E94AF03C6FB29
S1130300662760F985E00E94AF036C2F661F66279D
S1130310661F86E00E94AF0361E082E00E94AF03A3
S11303208FEC97E00197F1F700C0000060E082E0F5
S11303300E94AF036C2F617083E00E94AF03C1FB86
S1130340662760F984E00E94AF03C2FB662760F968
S113035085E00E94AF03C3FB662760F986E00E9434
S1130360AF0361E082E00E94AF038FEC97E0019756
S1130370F1F700C0000060E082E00E94AF038FEC60
S113038097E00197F1F700C00000CF910895CF9353
S1130390C82F61E081E00E94AF03C4FB662760F9C7
S11303A083E00E94AF03C5FB662760F984E00E94E6
S11303B0AF03C6FB662760F985E00E94AF036C2F8C
S11303C0661F6627661F86E00E94AF0361E082E035
S11303D00E94AF038FEC97E00197F1F700C0000093
S11303E060E082E00E94AF036C2F617083E00E94A2
S11303F0AF03C1FB662760F984E00E94AF03C2FB30
S1130400662760F985E00E94AF03C3FB662760F9A5
S113041086E00E94AF0361E082E00E94AF038FECAC
S113042097E00197F1F700C0000060E082E00E94CD
S1130430AF038FEC97E00197F1F700C00000CF9174
S113044008952FE788E391E0215080409040E1F740
S113045000C0000082E20E946D0160E081E00E9421
S1130460AF0360E085E00E94AF0361E086E00E9494
S1130470AF0361E082E00E94AF038FEC97E0019745
S1130480F1F700C0000060E082E00E94AF038FEC4F
S113049097E00197F1F700C000008CE00E946D0125
S11304A081E00E946D018FEC97E00197F1F700C0A5
S11304B0000086E00C946D0181E00E946D018FECD8
S11304C097E00197F1F700C000000895811102C080
S11304D0862F04C0813029F480E4860F80680C9450
S11304E06D0108950F931F93CF938C01C0E0F80121
S11304F0EC0FF11D8081882321F00E94C701CF5F9A
S1130500F6CFCF911F910F91089520E030E044EB96
S113051052E40E949B0720E030E044E353E40E944D
S1130520070820E030E04AE754E40E94360920E05E
S113053030EC49E754E40E949B070E94790879BD96
S113054068BD08950E94A0000E94BA00FDCF1F92CA
S11305500F920FB60F9211242F933F934F935F93F3
S11305606F937F938F939F93AF93BF93EF93FF9377
S1130570E091C800F091C900309709F00995FF9106
S1130580EF91BF91AF919F918F917F916F915F9107
S11305904F913F912F910F900FBE0F901F90189580
S11305A0CF93DF93EBE6F0E020EFA8EE38EF40E0E6
S11305B050E081E090E0719171113CC0483078F4D2
S11305C0BAB3EC01042E02C0CC0FDD1F0A94E2F78B
S11305D0BE017B2F762B7ABB7BB360953EC038304F
S11305E068F4B7B3BC01032E01C0660F0A94EAF79E
S11305F07B2F762B77BB78B360953FC0283068F4A7
S1130600B4B3BC01022E01C0660F0A94EAF77B2F33
S1130610762B74BB75B3609540C0B1B3BC010A2E90
S113062001C0660F0A94EAF77B2F762B71BB72B375
S1130630609541C0713009F040C0483080F4BAB3CD
S1130640EC01042E02C0CC0FDD1F0A94E2F7BE01B8
S113065060957B2F76237ABB7BB3672342C0383007
S113066070F4B7B3BC01032E01C0660F0A94EAF715
S113067060957B2F762377BB78B3672343C02830FC
S113068070F4B4B3BC01022E01C0660F0A94EAF7F9
S113069060957B2F762374BB75B3672344C0B1B3D5
S11306A0BC010A2E01C0660F0A94EAF760957B2FFD
S11306B0762371BB72B3672345C0723009F043C01F
S11306C0483088F4BAB3EC01042E02C0CC0FDD1F0D
S11306D00A94E2F7BE017C2F70957B237ABB7BB32F
S11306E0672B6BBB30C0383078F4B7B3BC01032E32
S11306F001C0660F0A94EAF7762F70957B2377BBC7
S113070078B3672B68BB1FC0283078F4B4B3BC013E
S1130710022E01C0660F0A94EAF7762F70957B23A8
S113072074BB75B3672B65BB0EC0B1B3BC010A2E95
S113073001C0660F0A94EAF7762F70957B2371BB8C
S113074072B3672B62BB4F5F5F4F3F5FAF5F2F5F3B
S11307504032510509F02FCFDF91CF9108956111F7
S11307603CC0883068F44BB321E030E0B90102C0EA
S1130770660F771F8A95E2F7CB01809584233CC0EE
S113078038EF380F383050F428B381E090E001C0DE
S1130790880F3A95EAF7809582233CC030EF380FF2
S11307A0383050F425B381E090E001C0880F3A95C9
S11307B0EAF7809582233CC08851883008F049C00C
S11307C042B321E030E0B90102C0660F771F8A9579
S11307D0E2F7CB01809584233BC06130D1F58830AA
S11307E068F44BB321E030E0B90102C0660F771F13
S11307F08A95E2F7CB01842B8BBB089528EF280F51
S1130800283050F438B381E090E001C0880F2A9575
S1130810EAF7832B88BB089520EF280F283050F483
S113082035B381E090E001C0880F2A95EAF7832B65
S113083085BB08958851883060F442B321E030E0EC
S1130840B90102C0660F771F8A95E2F7CB01842BAA
S113085082BB08951F920F920FB60F9211242F930B
S11308603F934F935F936F937F938F939F93AF9334
S1130870BF93EF93FF93E091CE00F091CF003097B8
S113088009F00995FF91EF91BF91AF919F918F91DD
S11308907F916F915F914F913F912F910F900FBE78
S11308A00F901F9018951F920F920FB60F9211245C
S11308B02F933F934F935F936F937F938F939F9364
S11308C0AF93BF93EF93FF93E091CC00F091CD00F1
S11308D0309709F00995FF91EF91BF91AF919F91E6
S11308E08F917F916F915F914F913F912F910F90D5
S11308F00FBE0F901F9018951F920F920FB60F9274
S113090011242F933F934F935F936F937F938F9310
S11309109F93AF93BF93EF93FF93E091CA00F0913D
S1130920CB00309709F00995FF91EF91BF91AF91FA
S11309309F918F917F916F915F914F913F912F91F3
S11309400F900FBE0F901F9018951F920F920FB625
S11309500F9211242F933F934F935F936F937F9341
S11309608F939F93AF93BF93EF93FF93E091D00046
S1130970F091D100309709F00995FF91EF91BF9163
S1130980AF919F918F917F916F915F914F913F9123
S11309902F910F900FBE0F901F9018951F920F92DA
S11309A00FB60F9211242F933F934F935F936F933E
S11309B07F938F939F93AF93BF93EF93FF93E091B4
S11309C0D400F091D500309709F00995FF91EF918B
S11309D0BF91AF919F918F917F916F915F914F9153
S11309E03F912F910F900FBE0F901F9018951F925B
S11309F00F920FB60F9211242F933F934F935F934F
S1130A006F937F938F939F93AF93BF93EF93FF93D2
S1130A10E091D200F091D300309709F00995FF914D
S1130A20EF91BF91AF919F918F917F916F915F9162
S1130A304F913F912F910F900FBE0F901F901895DB
S1130A40823099F038F4882369F0813051F58EB5FD
S1130A508B7F20C08430A9F070F0853011F58EB5FD
S1130A60846018C08EB58B7F0EC08EB58B7F8EBD13
S1130A708EB582600BC08EB58B7F8EBD8EB58260C5
S1130A800CC08EB584608EBD8EB58D7F8EBD8EB547
S1130A908E7F06C08EBD8EB58D7F8EBD8EB5816076
S1130AA08EBD862F90E08031910508F05CC0FC017A
S1130AB0E65DFF4F0C94A3098EB58F7E20C08EB5E2
S1130AC08F7E23C08EB58F7E29C08EB58F7E2CC0BD
S1130AD08EB58F7E8EBD8EB588608EBD8FB58D7FB1
S1130AE032C08EB58F7E8EBD8EB5886011C08EB536
S1130AF08F7E23C08EB58F7E2CC08EB580618EBD57
S1130B008EB5877FEACF8EB580618EBD8EB5877F27
S1130B108EBD8FB58D7F23C08EB580618EBD8EB5A1
S1130B20877F0EC08EB580618EBD8EB5877F14C061
S1130B308EB58061CFCF8EB580618EBD8EB5886055
S1130B408EBD8FB582608FBD8FB58E7F0BC08EB585
S1130B5080618EBD8EB588608EBD8FB582608FBD7D
S1130B608FB581608FBD413059F038F0423059F073
S1130B70433099F48FB580680CC08FB58F7705C06A
S1130B808FB58F7706C08FB580688FBD8FB58F7B8B
S1130B9003C08FBD8FB580648FBD213049F028F02C
S1130BA0223049F0233069F008958FB58F7D05C058
S1130BB08FB58F7D08C08FB580628FBD8FB58F7E56
S1130BC005C08FB580628FBD8FB580618FBD0895DC
S1130BD01F920F920FB60F9211242F933F934F93AE
S1130BE05F936F937F938F939F93AF93BF93EF9391
S1130BF0FF93E091DC00F091DD00309709F0099556
S1130C00FF91EF91BF91AF919F918F917F916F91E0
S1130C105F914F913F912F910F900FBE0F901F90B6
S1130C2018951F920F920FB60F9211242F933F9392
S1130C304F935F936F937F938F939F93AF93BF93E0
S1130C40EF93FF93E091DA00F091DB00309709F025
S1130C500995FF91EF91BF91AF919F918F917F91F2
S1130C606F915F914F913F912F910F900FBE0F9015
S1130C701F9018951F920F920FB60F9211242F9365
S1130C803F934F935F936F937F938F939F93AF9310
S1130C90BF93EF93FF93E091D800F091D900309780
S1130CA009F00995FF91EF91BF91AF919F918F91B9
S1130CB07F916F915F914F913F912F910F900FBE54
S1130CC00F901F9018951F920F920FB60F92112438
S1130CD02F933F934F935F936F937F938F939F9340
S1130CE0AF93BF93EF93FF93E091D600F091D700B9
S1130CF0309709F00995FF91EF91BF91AF919F91C2
S1130D008F917F916F915F914F913F912F910F90B0
S1130D100FBE0F901F90189580B5806880BD80B578
S1130D208F7B80BD599880B5806880BD80B58F7DEC
S1130D3080BD80B58F7E80BD80B5806880BD80B564
S1130D40877F80BD80B5806880BD80B58B7F80BD86
S1130D5080B5846080BD80B5826080BD80B58068C8
S1130D6080BD80B58E7F80BD83E389B980B58F77E0
S1130D7080BD10BC0895549A08958CB10895579A73
S1130D8008959093E3008093E20008951F920F92D8
S1130D900FB60F9211242F933F934F935F936F934A
S1130DA07F938F939F93AF93BF93EF93FF93E091C0
S1130DB0E200F091E300309709F00995FF91EF917B
S1130DC0BF91AF919F918F917F916F915F914F915F
S1130DD03F912F910F900FBE0F901F9018951F9267
S1130DE00F920FB60F9211242F933F934F935F935B
S1130DF06F937F938F939F93AF93BF93EF93FF93DF
S1130E00E091E000F091E100309709F00995FF913D
S1130E10EF91BF91AF919F918F917F916F915F916E
S1130E204F913F912F910F900FBE0F901F901895E7
S1130E301F920F920FB60F9211242F933F934F934B
S1130E405F936F937F938F939F93AF93BF93EF932E
S1130E50FF93E091DE00F091DF00309709F00995EF
S1130E60FF91EF91BF91AF919F918F917F916F917E
S1130E705F914F913F912F910F900FBE0F901F9054
S1130E801895CF93DF93E091E5008091E600E81791
S1130E9078F5F0E0EE0FFF1FE951FF4F8091E40079
S1130EA0C081D181C80FD11D0E94BD068883909155
S1130EB0E500E92FF0E0EE0FFF1FE951FF4F20811D
S1130EC031818091E400F901E80FF11D40814D303A
S1130ED041F08F5F8093E400F901E80FF11D108267
S1130EE00BC040839F5F9093E5001092E40004C020
S1130EF01092E6001092E500DF91CF910895CF9310
S1130F00DF93EC0181E497E00E94C1060E94BF06D2
S1130F108091E600E82FF0E0EE0FFF1FE951FF4F4C
S1130F20D183C083843118F48F5F8093E600DF910E
S1130F30CF9108955058BB27AA270E94B2070C945A
S1130F40FC080E94EE0838F00E94F50820F039F4FD
S1130F509F3F19F426F40C94EB080EF4E095E7FB9C
S1130F600C94E508E92F0E940D0958F3BA1762079B
S1130F7073078407950720F079F4A6F50C942F09DC
S1130F800EF4E0950B2EBA2FA02D0B01B9019001A0
S1130F900C01CA01A0011124FF27591B99F0593FE4
S1130FA050F4503E68F11A16F040A22F232F342F2C
S1130FB04427585FF3CF469537952795A795F0407A
S1130FC05395C9F77EF41F16BA0B620B730B840B8F
S1130FD0BAF09150A1F0FF0FBB1F661F771F881F47
S1130FE0C2F70EC0BA0F621F731F841F48F487959F
S1130FF077956795B795F7959E3F08F0B0CF939591
S1131000880F08F09927EE0F9795879508950E9409
S11310101B080C94FC080E94F50858F00E94EE0886
S113102040F029F45F3F29F00C94E50851110C9429
S113103030090C94EB080E940D0968F39923B1F36D
S1131040552391F3951B550BBB27AA2762177307EA
S1131050840738F09F5F5F4F220F331F441FAA1F7E
S1131060A9F335D00E2E3AF0E0E832D0915050403A
S1131070E695001CCAF72BD0FE2F29D0660F771FE8
S1131080881FBB1F261737074807AB07B0E809F0CE
S1131090BB0B802DBF01FF2793585F4F3AF09E3F53
S11310A0510578F00C94E5080C9430095F3FE4F3A3
S11310B0983ED4F3869577956795B795F7959F5F96
S11310C0C9F7880F911D9695879597F90895E1E0E2
S11310D0660F771F881FBB1F621773078407BA0741
S11310E020F0621B730B840BBA0BEE1F88F7E0959C
S11310F008950E94150988F09F5798F0B92F9927F1
S1131100B751B0F0E1F0660F771F881F991F1AF0EE
S1131110BA95C9F714C0B13091F00E942F09B1E01B
S113112008950C942F09672F782F8827B85F39F01A
S1131130B93FCCF3869577956795B395D9F73EF487
S113114090958095709561957F4F8F4F9F4F08952F
S1131150E89409C097FB3EF490958095709561954D
S11311607F4F8F4F9F4F9923A9F0F92F96E9BB2703
S11311709395F695879577956795B795F111F8CF7F
S1131180FAF4BB0F11F460FF1BC06F5F7F4F8F4FEA
S11311909F4F16C0882311F096E911C0772321F0E0
S11311A09EE8872F762F05C0662371F096E8862F78
S11311B070E060E02AF09A95660F771F881FDAF7CF
S11311C0880F9695879597F9089597F99F6780E812
S11311D070E060E008959FEF80EC089500240A9485
S11311E01616170618060906089500240A941216FE
S11311F01306140605060895092E0394000C11F431
S1131200882352F0BB0F40F4BF2B11F460FF04C0DD
S11312106F5F7F4F8F4F9F4F089557FD9058440F36
S1131220551F59F05F3F71F04795880F97FB991F41
S113123061F09F3F79F087950895121613061406FE
S1131240551FF2CF4695F1DF08C01616170618068B
S1131250991FF1CF86957105610508940895E89466
S1131260BB2766277727CB0197F908950E94490980
S11312700C94FC080E94EE0838F00E94F50820F057
S1131280952311F00C94E5080C94EB0811240C94AC
S113129030090E940D0970F3959FC1F3950F50E03A
S11312A0551F629FF001729FBB27F00DB11D639F14
S11312B0AA27F00DB11DAA1F649F6627B00DA11DBA
S11312C0661F829F2227B00DA11D621F739FB00D60
S11312D0A11D621F839FA00D611D221F749F3327D0
S11312E0A00D611D231F849F600D211D822F762F69
S11312F06A2F11249F5750409AF0F1F088234AF046
S1131300EE0FFF1FBB1F661F771F881F91505040B1
S1131310A9F79E3F510580F00C94E5080C94300920
S11313205F3FE4F3983ED4F3869577956795B79538
S1131330F795E7959F5FC1F7FE2B880F911D969552
S1131340879597F90895EE0FFF1F0590F491E02D0E
S11313500994A29FB001B39FC001A39F700D811D8A
S11313601124911DB29F700D811D1124911D0895AA
S11313700E94A909A59F900DB49F900DA49F800D74
S10D1380911D11240895F894FFCF85
S113138A016C636400736572766F000000000000EC
S113139A0000010000000002020202000000000036
S10F13AA00000000000000000001000032
S9030000FC
