:100000000C943A000C947C010C94A5010C94CE0144
:100010000C9457000C9457000C941B040C94A003F0
:100020000C94C9030C94F2030C9486020C94AF0256
:100030000C94F7010C9444040C9496040C946D04F5
:100040000C9474000C9457000C9457000C945700B7
:100050000C945700140317031A031D0320032903EC
:100060002F03320335033B0344034A0350036B035E
:1000700053035F0311241FBECFE5D8E0DEBFCDBF21
:1000800010E0A0E6B0E0EEE8F9E002C005900D92C5
:10009000A038B107D9F720E0A0E8B0E001C01D9278
:1000A000AC39B207E1F70E9461000C94C5040C94CE
:1000B00000008CBF70E07BBD6ABD50E059BD48BDFB
:1000C00008950E949D0042E063E082E00E942002C9
:1000D00022E042E065E082E00E94D8024FEF60E05B
:1000E00080E00E945900FACF1F920F920FB60F9234
:1000F00011242F933F934F935F936F937F938F932D
:100100009F93AF93BF93EF93FF93E0918000F091A3
:100110008100309709F00995FF91EF91BF91AF9160
:100120009F918F917F916F915F914F913F912F910F
:100130000F900FBE0F901F901895CF93DF93E0E6BE
:10014000F0E020EFA8EE38EF40E050E081E090E0F2
:10015000719171113CC0483078F4BAB3EC01042EAF
:1001600002C0CC0FDD1F0A94E2F7BE017B2F762B75
:100170007ABB7BB360953EC0383068F4B7B3BC013E
:10018000032E01C0660F0A94EAF77B2F762B77BB0C
:1001900078B360953FC0283068F4B4B3BC01022E38
:1001A00001C0660F0A94EAF77B2F762B74BB75B3F8
:1001B000609540C0B1B3BC010A2E01C0660F0A941D
:1001C000EAF77B2F762B71BB72B3609541C071301B
:1001D00009F040C0483080F4BAB3EC01042E02C0EC
:1001E000CC0FDD1F0A94E2F7BE0160957B2F7623CA
:1001F0007ABB7BB3672342C0383070F4B7B3BC011D
:10020000032E01C0660F0A94EAF760957B2F7623D0
:1002100077BB78B3672343C0283070F4B4B3BC0114
:10022000022E01C0660F0A94EAF760957B2F7623B1
:1002300074BB75B3672344C0B1B3BC010A2E01C0BF
:10024000660F0A94EAF760957B2F762371BB72B331
:10025000672345C0723009F043C0483088F4BAB310
:10026000EC01042E02C0CC0FDD1F0A94E2F7BE01A0
:100270007C2F70957B237ABB7BB3672B6BBB30C025
:10028000383078F4B7B3BC01032E01C0660F0A946E
:10029000EAF7762F70957B2377BB78B3672B68BB23
:1002A0001FC0283078F4B4B3BC01022E01C0660F21
:1002B0000A94EAF7762F70957B2374BB75B3672B8E
:1002C00065BB0EC0B1B3BC010A2E01C0660F0A9413
:1002D000EAF7762F70957B2371BB72B3672B62BBF5
:1002E0004F5F5F4F3F5FAF5F2F5F4032510509F0B7
:1002F0002FCFDF91CF9108951F920F920FB60F92DB
:1003000011242F933F934F935F936F937F938F931A
:100310009F93AF93BF93EF93FF93E0918600F0918B
:100320008700309709F00995FF91EF91BF91AF9148
:100330009F918F917F916F915F914F913F912F91FD
:100340000F900FBE0F901F9018951F920F920FB62F
:100350000F9211242F933F934F935F936F937F934B
:100360008F939F93AF93BF93EF93FF93E09184009C
:10037000F0918500309709F00995FF91EF91BF91B9
:10038000AF919F918F917F916F915F914F913F912D
:100390002F910F900FBE0F901F9018951F920F92E4
:1003A0000FB60F9211242F933F934F935F936F9348
:1003B0007F938F939F93AF93BF93EF93FF93E091BE
:1003C0008200F0918300309709F00995FF91EF9139
:1003D000BF91AF919F918F917F916F915F914F915D
:1003E0003F912F910F900FBE0F901F9018951F9265
:1003F0000F920FB60F9211242F933F934F935F9359
:100400006F937F938F939F93AF93BF93EF93FF93DC
:10041000E0918800F0918900309709F00995FF91EB
:10042000EF91BF91AF919F918F917F916F915F916C
:100430004F913F912F910F900FBE0F901F901895E5
:10044000823099F038F4882369F0813051F583B710
:100450008B7F20C08430A9F070F0853011F583B710
:10046000846018C083B78B7F0EC083B78B7F83BF38
:1004700083B782600BC083B78B7F83BF83B78260F3
:100480000CC083B7846083BF83B78D7F83BF83B77E
:100490008E7F06C083BF83B78D7F83BF83B78160A4
:1004A00083BF613059F038F0623059F0633099F40D
:1004B00083B788600CC083B7877F05C083B7877F09
:1004C00006C083B7886083BF83B78F7B03C083BFB9
:1004D00083B7806483BF413049F028F0423049F04F
:1004E000433069F0089583B78F7D05C083B78F7D52
:1004F00008C083B7806283BF83B78F7E05C083B790
:10050000806283BF83B7806183BF08951F920F927B
:100510000FB60F9211242F933F934F935F936F93D6
:100520007F938F939F93AF93BF93EF93FF93E0914C
:100530008C00F0918D00309709F00995FF91EF91B3
:10054000BF91AF919F918F917F916F915F914F91EB
:100550003F912F910F900FBE0F901F9018951F92F3
:100560000F920FB60F9211242F933F934F935F93E7
:100570006F937F938F939F93AF93BF93EF93FF936B
:10058000E0918A00F0918B00309709F00995FF9176
:10059000EF91BF91AF919F918F917F916F915F91FB
:1005A0004F913F912F910F900FBE0F901F90189574
:1005B000823099F038F4882369F0813051F58EB596
:1005C0008B7F20C08430A9F070F0853011F58EB596
:1005D000846018C08EB58B7F0EC08EB58B7F8EBDAC
:1005E0008EB582600BC08EB58B7F8EBD8EB582605E
:1005F0000CC08EB584608EBD8EB58D7F8EBD8EB5E0
:100600008E7F06C08EBD8EB58D7F8EBD8EB581600E
:100610008EBD862F90E08031910508F05CC0FC0112
:10062000E65DFF4F0C94BF048EB58F7E20C08EB563
:100630008F7E23C08EB58F7E29C08EB58F7E2CC055
:100640008EB58F7E8EBD8EB588608EBD8FB58D7F49
:1006500032C08EB58F7E8EBD8EB5886011C08EB5CE
:100660008F7E23C08EB58F7E2CC08EB580618EBDEF
:100670008EB5877FEACF8EB580618EBD8EB5877FC0
:100680008EBD8FB58D7F23C08EB580618EBD8EB53A
:10069000877F0EC08EB580618EBD8EB5877F14C0FA
:1006A0008EB58061CFCF8EB580618EBD8EB58860EE
:1006B0008EBD8FB582608FBD8FB58E7F0BC08EB51E
:1006C00080618EBD8EB588608EBD8FB582608FBD16
:1006D0008FB581608FBD413059F038F0423059F00C
:1006E000433099F48FB580680CC08FB58F7705C003
:1006F0008FB58F7706C08FB580688FBD8FB58F7B24
:1007000003C08FBD8FB580648FBD213049F028F0C4
:10071000223049F0233069F008958FB58F7D05C0F0
:100720008FB58F7D08C08FB580628FBD8FB58F7EEE
:1007300005C08FB580628FBD8FB580618FBD089574
:100740001F920F920FB60F9211242F933F934F9346
:100750005F936F937F938F939F93AF93BF93EF9329
:10076000FF93E0919400F0919500309709F009957E
:10077000FF91EF91BF91AF919F918F917F916F9179
:100780005F914F913F912F910F900FBE0F901F904F
:1007900018951F920F920FB60F9211242F933F932B
:1007A0004F935F936F937F938F939F93AF93BF9379
:1007B000EF93FF93E0919200F0919300309709F04E
:1007C0000995FF91EF91BF91AF919F918F917F918B
:1007D0006F915F914F913F912F910F900FBE0F90AE
:1007E0001F9018951F920F920FB60F9211242F93FE
:1007F0003F934F935F936F937F938F939F93AF93A9
:10080000BF93EF93FF93E0919000F09191003097A8
:1008100009F00995FF91EF91BF91AF919F918F9151
:100820007F916F915F914F913F912F910F900FBEEC
:100830000F901F9018951F920F920FB60F921124D0
:100840002F933F934F935F936F937F938F939F93D8
:10085000AF93BF93EF93FF93E0918E00F0918F00E1
:10086000309709F00995FF91EF91BF91AF919F915A
:100870008F917F916F915F914F913F912F910F9049
:100880000FBE0F901F9018951F920F920FB60F92E8
:1008900011242F933F934F935F936F937F938F9385
:1008A0009F93AF93BF93EF93FF93E0919A00F091E2
:1008B0009B00309709F00995FF91EF91BF91AF919F
:1008C0009F918F917F916F915F914F913F912F9168
:1008D0000F900FBE0F901F9018951F920F920FB69A
:1008E0000F9211242F933F934F935F936F937F93B6
:1008F0008F939F93AF93BF93EF93FF93E0919800F3
:10090000F0919900309709F00995FF91EF91BF910F
:10091000AF919F918F917F916F915F914F913F9197
:100920002F910F900FBE0F901F9018951F920F924E
:100930000FB60F9211242F933F934F935F936F93B2
:100940007F938F939F93AF93BF93EF93FF93E09128
:100950009600F0919700309709F00995FF91EF917B
:10096000BF91AF919F918F917F916F915F914F91C7
:100970003F912F910F900FBE0F901F901895EE0F83
:0E098000FF1F0590F491E02D0994F894FFCF2D
:10098E00010101000000000100000000020202024D
:10099E000000000000000000000000000000000049
:00000001FF
