:100000000C943A000C94C8030C94F1030C941A0459
:100010000C9457000C9457000C941F060C94A405E4
:100020000C94CD050C94F6050C946C040C9495047A
:100030000C9443040C9448060C949A060C94710694
:100040000C9445020C9457000C9457000C945700E4
:100050000C945700FA04FD040005030506050F057E
:10006000150518051B0521052A053005360551051E
:100070003905450511241FBECFE5D8E0DEBFCDBF51
:1000800010E0A0E6B0E0E2E1F0E102C005900D92E0
:10009000A638B107D9F720E0A6E8B0E001C01D926C
:1000A000AC3AB207E1F70E942D020C9407080C94B9
:1000B0000000CF93C82F60E081E00E944D03C4FB95
:1000C000662760F983E00E944D03C5FB662760F94F
:1000D00084E00E944D03C6FB662760F985E00E941C
:1000E0004D036C2F661F6627661F86E00E944D0336
:1000F00061E082E00E944D038FEC97E00197F1F7F9
:1001000000C0000060E082E00E944D036C2F61702F
:1001100083E00E944D03C1FB662760F984E00E94E2
:100120004D03C2FB662760F985E00E944D03C3FBC7
:10013000662760F986E00E944D0361E082E00E943C
:100140004D038FEC97E00197F1F700C0000060E0ED
:1001500082E00E944D038FEC97E00197F1F700C019
:100160000000CF910895CF93C82F61E081E00E94F5
:100170004D03C4FB662760F983E00E944D03C5FB75
:10018000662760F984E00E944D03C6FB662760F98C
:1001900085E00E944D036C2F661F6627661F86E070
:1001A0000E944D0361E082E00E944D038FEC97E0D6
:1001B0000197F1F700C0000060E082E00E944D036B
:1001C0006C2F617083E00E944D03C1FB662760F9CC
:1001D00084E00E944D03C2FB662760F985E00E941F
:1001E0004D03C3FB662760F986E00E944D0361E082
:1001F00082E00E944D038FEC97E00197F1F700C079
:10020000000060E082E00E944D038FEC97E00197D0
:10021000F1F700C00000CF9108952FE788E391E047
:10022000215080409040E1F700C0000082E20E942F
:10023000590060E081E00E944D0360E085E00E948B
:100240004D0361E086E00E944D0361E082E00E9480
:100250004D038FEC97E00197F1F700C0000060E0DC
:1002600082E00E944D038FEC97E00197F1F700C008
:1002700000008CE00E94590081E00E9459008FEC40
:1002800097E00197F1F700C0000086E00C94590058
:10029000811102C0862F04C0813029F480E4860FCA
:1002A00080680C94590008950F931F93CF938C018D
:1002B000C0E0F801EC0FF11D8081882321F00E943D
:1002C000B300CF5FF6CFCF911F910F9108950F9399
:1002D0001F93CF93DF938C0168EE73E00E94ED07CC
:1002E000CB01CAE0D0E0BE010E94ED07805D0E9414
:1002F000B300C80164E670E00E94ED07CB01BE01C7
:100300000E94ED07805D0E94B300C801BE010E94FB
:10031000ED07182FCB01BE010E94ED07805D0E9402
:10032000B30080E3810FDF91CF911F910F910C9467
:10033000B30080918C0090918D00A0918E00B091BF
:100340008F000196A11DB11D80938C0090938D00AC
:10035000A0938E00B0938F0008958091600081304B
:1003600079F482E0809360001DBC1CBC10928C006C
:1003700010928D0010928E0010928F0080E01CC0B1
:100380008230E1F481E0809360008CB59DB590935C
:1003900087008093860080918C0090918D00A091C1
:1003A0008E00B0918F008093880090938900A09375
:1003B0008A00B0938B0081E00C94860508950E941A
:1003C0006E0220E040E060E082E00E94BE0481E036
:1003D0000E94860578940E9496050E9492058DEAF7
:1003E00091E00E949F0589E991E00C949A0561E0F3
:1003F00088E00E944D038AE18A95F1F700C060E031
:1004000088E00E944D038FE891E00197F1F700C06A
:1004100000008091880090918900A0918A00B0919D
:100420008B00DC0199278827209186003091870076
:10043000BC01CD01620F731F811D911D0E94F20648
:1004400020E030E040E05FE30E94800726E933E4EB
:100450004BE05DE30E94800708950E94DF010E9447
:100460000D0160E081E00E9448010E94F7010E94B6
:10047000C306CB010E94670181E690E00E9454010F
:1004800083E690E00E945401ECCF1F920F920FB6CA
:100490000F9211242F933F934F935F936F937F930A
:1004A0008F939F93AF93BF93EF93FF93E09190004F
:1004B000F0919100309709F00995FF91EF91BF916C
:1004C000AF919F918F917F916F915F914F913F91EC
:1004D0002F910F900FBE0F901F901895CF93DF9321
:1004E000E6E6F0E020EFA8EE38EF40E050E081E0F3
:1004F00090E0719171113CC0483078F4BAB3EC01CE
:10050000042E02C0CC0FDD1F0A94E2F7BE017B2F40
:10051000762B7ABB7BB360953EC0383068F4B7B3B6
:10052000BC01032E01C0660F0A94EAF77B2F762BDD
:1005300077BB78B360953FC0283068F4B4B3BC0192
:10054000022E01C0660F0A94EAF77B2F762B74BB4C
:1005500075B3609540C0B1B3BC010A2E01C0660FEF
:100560000A94EAF77B2F762B71BB72B3609541C07A
:10057000713009F040C0483080F4BAB3EC01042E69
:1005800002C0CC0FDD1F0A94E2F7BE0160957B2FFD
:1005900076237ABB7BB3672342C0383070F4B7B39D
:1005A000BC01032E01C0660F0A94EAF760957B2F09
:1005B000762377BB78B3672343C0283070F4B4B395
:1005C000BC01022E01C0660F0A94EAF760957B2FEA
:1005D000762374BB75B3672344C0B1B3BC010A2E44
:1005E00001C0660F0A94EAF760957B2F762371BBF2
:1005F00072B3672345C0723009F043C0483088F4B5
:10060000BAB3EC01042E02C0CC0FDD1F0A94E2F74E
:10061000BE017C2F70957B237ABB7BB3672B6BBBB2
:1006200030C0383078F4B7B3BC01032E01C0660F78
:100630000A94EAF7762F70957B2377BB78B3672B04
:1006400068BB1FC0283078F4B4B3BC01022E01C0CF
:10065000660F0A94EAF7762F70957B2374BB75B307
:10066000672B65BB0EC0B1B3BC010A2E01C0660F7B
:100670000A94EAF7762F70957B2371BB72B3672BD0
:1006800062BB4F5F5F4F3F5FAF5F2F5F40325105EF
:1006900009F02FCFDF91CF91089561113CC08830D0
:1006A00068F44BB321E030E0B90102C0660F771F58
:1006B0008A95E2F7CB01809584233CC038EF380F50
:1006C000383050F428B381E090E001C0880F3A95AB
:1006D000EAF7809582233CC030EF380F383050F471
:1006E00025B381E090E001C0880F3A95EAF7809544
:1006F00082233CC08851883008F049C042B321E0D1
:1007000030E0B90102C0660F771F8A95E2F7CB018E
:10071000809584233BC06130D1F5883068F44BB3B9
:1007200021E030E0B90102C0660F771F8A95E2F739
:10073000CB01842B8BBB089528EF280F283050F471
:1007400038B381E090E001C0880F2A95EAF7832B47
:1007500088BB089520EF280F283050F435B381E08E
:1007600090E001C0880F2A95EAF7832B85BB089596
:100770008851883060F442B321E030E0B90102C012
:10078000660F771F8A95E2F7CB01842B82BB089511
:100790001F920F920FB60F9211242F933F934F93F6
:1007A0005F936F937F938F939F93AF93BF93EF93D9
:1007B000FF93E0919600F0919700309709F009952A
:1007C000FF91EF91BF91AF919F918F917F916F9129
:1007D0005F914F913F912F910F900FBE0F901F90FF
:1007E00018951F920F920FB60F9211242F933F93DB
:1007F0004F935F936F937F938F939F93AF93BF9329
:10080000EF93FF93E0919400F0919500309709F0F9
:100810000995FF91EF91BF91AF919F918F917F913A
:100820006F915F914F913F912F910F900FBE0F905D
:100830001F9018951F920F920FB60F9211242F93AD
:100840003F934F935F936F937F938F939F93AF9358
:10085000BF93EF93FF93E0919200F0919300309754
:1008600009F00995FF91EF91BF91AF919F918F9101
:100870007F916F915F914F913F912F910F900FBE9C
:100880000F901F9018951F920F920FB60F92112480
:100890002F933F934F935F936F937F938F939F9388
:1008A000AF93BF93EF93FF93E0919800F09199007D
:1008B000309709F00995FF91EF91BF91AF919F910A
:1008C0008F917F916F915F914F913F912F910F90F9
:1008D0000FBE0F901F9018951F920F920FB60F9298
:1008E00011242F933F934F935F936F937F938F9335
:1008F0009F93AF93BF93EF93FF93E0919C00F09190
:100900009D00309709F00995FF91EF91BF91AF914C
:100910009F918F917F916F915F914F913F912F9117
:100920000F900FBE0F901F9018951F920F920FB649
:100930000F9211242F933F934F935F936F937F9365
:100940008F939F93AF93BF93EF93FF93E0919A00A0
:10095000F0919B00309709F00995FF91EF91BF91BD
:10096000AF919F918F917F916F915F914F913F9147
:100970002F910F900FBE0F901F901895823099F015
:1009800038F4882369F0813051F58EB58B7F20C013
:100990008430A9F070F0853011F58EB5846018C0F0
:1009A0008EB58B7F0EC08EB58B7F8EBD8EB582606F
:1009B0000BC08EB58B7F8EBD8EB582600CC08EB5A0
:1009C00084608EBD8EB58D7F8EBD8EB58E7F06C048
:1009D0008EBD8EB58D7F8EBD8EB581608EBD862F0E
:1009E00090E08031910508F05CC0FC01E65DFF4FAE
:1009F0000C9401088EB58F7E20C08EB58F7E23C0EB
:100A00008EB58F7E29C08EB58F7E2CC08EB58F7E21
:100A10008EBD8EB588608EBD8FB58D7F32C08EB590
:100A20008F7E8EBD8EB5886011C08EB58F7E23C03F
:100A30008EB58F7E2CC08EB580618EBD8EB5877FC2
:100A4000EACF8EB580618EBD8EB5877F8EBD8FB5A6
:100A50008D7F23C08EB580618EBD8EB5877F0EC021
:100A60008EB580618EBD8EB5877F14C08EB58061D6
:100A7000CFCF8EB580618EBD8EB588608EBD8FB5AF
:100A800082608FBD8FB58E7F0BC08EB580618EBDAD
:100A90008EB588608EBD8FB582608FBD8FB5816049
:100AA0008FBD413059F038F0423059F0433099F45D
:100AB0008FB580680CC08FB58F7705C08FB58F77E5
:100AC00006C08FB580688FBD8FB58F7B03C08FBD8B
:100AD0008FB580648FBD213049F028F0223049F075
:100AE000233069F008958FB58F7D05C08FB58F7D58
:100AF00008C08FB580628FBD8FB58F7E05C08FB562
:100B000080628FBD8FB580618FBD0895882319F0F5
:100B1000813021F008958EB58F7B02C08EB5806440
:100B20008EBD089589B7846089BF089589B78062B2
:100B300089BF08959093A1008093A0000895909399
:100B40009F0080939E0008951F920F920FB60F9200
:100B500011242F933F934F935F936F937F938F93C2
:100B60009F93AF93BF93EF93FF93E091A400F09115
:100B7000A500309709F00995FF91EF91BF91AF91D2
:100B80009F918F917F916F915F914F913F912F91A5
:100B90000F900FBE0F901F9018951F920F920FB6D7
:100BA0000F9211242F933F934F935F936F937F93F3
:100BB0008F939F93AF93BF93EF93FF93E091A20026
:100BC000F091A300309709F00995FF91EF91BF9143
:100BD000AF919F918F917F916F915F914F913F91D5
:100BE0002F910F900FBE0F901F9018951F920F928C
:100BF0000FB60F9211242F933F934F935F936F93F0
:100C00007F938F939F93AF93BF93EF93FF93E09165
:100C1000A000F091A100309709F00995FF91EF91A4
:100C2000BF91AF919F918F917F916F915F914F9104
:100C30003F912F910F900FBE0F901F9018951F920C
:100C40000F920FB60F9211242F933F934F935F9300
:100C50006F937F938F939F93AF93BF93EF93FF9384
:100C6000E0919E00F0919F00309709F00995FF9167
:100C7000EF91BF91AF919F918F917F916F915F9114
:100C80004F913F912F910F900FBE0F901F9018958D
:100C90001F920F920FB60F9211242F933F934F93F1
:100CA0005F936F937F938F939F93AF93BF93EF93D4
:100CB000FF93E091AA00F091AB00309709F00995FD
:100CC000FF91EF91BF91AF919F918F917F916F9124
:100CD0005F914F913F912F910F900FBE0F901F90FA
:100CE00018951F920F920FB60F9211242F933F93D6
:100CF0004F935F936F937F938F939F93AF93BF9324
:100D0000EF93FF93E091A800F091A900309709F0CC
:100D10000995FF91EF91BF91AF919F918F917F9135
:100D20006F915F914F913F912F910F900FBE0F9058
:100D30001F9018951F920F920FB60F9211242F93A8
:100D40003F934F935F936F937F938F939F93AF9353
:100D5000BF93EF93FF93E091A600F091A700309727
:100D600009F00995FF91EF91BF91AF919F918F91FC
:100D70007F916F915F914F913F912F910F900FBE97
:100D80000F901F9018950E945F0788F09F5798F06A
:100D9000B92F9927B751B0F0E1F0660F771F881F80
:100DA000991F1AF0BA95C9F714C0B13091F00E949A
:100DB0007907B1E008950C947907672F782F882779
:100DC000B85F39F0B93FCCF3869577956795B395C1
:100DD000D9F73EF490958095709561957F4F8F4F30
:100DE0009F4F0895E89409C097FB3EF49095809535
:100DF000709561957F4F8F4F9F4F9923A9F0F92FE1
:100E000096E9BB279395F695879577956795B7955E
:100E1000F111F8CFFAF4BB0F11F460FF1BC06F5F44
:100E20007F4F8F4F9F4F16C0882311F096E911C056
:100E3000772321F09EE8872F762F05C0662371F077
:100E400096E8862F70E060E02AF09A95660F771F8B
:100E5000881FDAF7880F9695879597F9089597F97F
:100E60009F6780E870E060E008959FEF80EC089550
:100E700000240A9416161706180609060895002479
:100E80000A9412161306140605060895092E0394F3
:100E9000000C11F4882352F0BB0F40F4BF2B11F467
:100EA00060FF04C06F5F7F4F8F4F9F4F089557FDC6
:100EB0009058440F551F59F05F3F71F04795880FC8
:100EC00097FB991F61F09F3F79F08795089512165F
:100ED00013061406551FF2CF4695F1DF08C016160B
:100EE00017061806991FF1CF8695710561050894BC
:100EF0000895E894BB2766277727CB0197F90895D3
:100F00000E9493070C9446070E94380738F00E940D
:100F10003F0720F0952311F00C942F070C94350710
:100F200011240C947A070E94570770F3959FC1F320
:100F3000950F50E0551F629FF001729FBB27F00D87
:100F4000B11D639FAA27F00DB11DAA1F649F6627DC
:100F5000B00DA11D661F829F2227B00DA11D621F2B
:100F6000739FB00DA11D621F839FA00D611D221FE5
:100F7000749F3327A00D611D231F849F600D211DC9
:100F8000822F762F6A2F11249F5750409AF0F1F04C
:100F900088234AF0EE0FFF1FBB1F661F771F881FB5
:100FA00091505040A9F79E3F510580F00C942F07B7
:100FB0000C947A075F3FE4F3983ED4F386957795D7
:100FC0006795B795F795E7959F5FC1F7FE2B880F5B
:100FD000911D9695879597F90895AA1BBB1B51E122
:100FE00007C0AA1FBB1FA617B70710F0A61BB70B99
:100FF000881F991F5A95A9F780959095BC01CD013E
:101000000895EE0FFF1F0590F491E02D0994F894D8
:02101000FFCF10
:10101200012000636D0000000000000000000000DD
:1010220000000202020200000000000000000000B6
:06103200000000000100B7
:00000001FF
