:100000000C9449000C94AF0A0C94D80A0C94010B80
:100010000C9466000C9466000C944E0D0C94D30C5A
:100020000C94FC0C0C94250D0C94B90B0C94E20B65
:100030000C942A0B0C94770D0C94C90D0C94A00D04
:100040000C9407090C9466000C9466000C946600EE
:100050000C946600CA08CC08CE08D008D308D6088D
:10006000DA08EC08EE08F008F408F608F908FC08CD
:10007000FE08470C4A0C4D0C500C530C5C0C620CE7
:10008000650C680C6E0C770C7D0C830C9E0C860C3A
:10009000920C11241FBECFE5D8E0DEBFCDBF10E02B
:1000A000A0E6B0E0E6E0F1E202C005900D92AE39C4
:1000B000B107D9F720E0AEE9B0E001C01D92A53E3E
:1000C000B207E1F70E94AE080C9481100C94000076
:1000D0000E94300963E081E00E94B3080E94DF08BB
:1000E00043E061E082E00E94530B20E042E06EE0DA
:1000F00082E00E940B0C0E94A50360E080E00E9459
:10010000E00380E690E00E94EE0366E080E00E945B
:10011000E00384E690E00E94EE036CE080E00E9441
:10012000E00389E690E00C94EE034F925F926F92A9
:100130007F92AF92BF92DF92EF92FF920F931F9345
:10014000CF93DF9300D000D01F92CDB7DEB70E94CF
:100150007C02D82E8E010F5F1F4F85E0F8011192AF
:100160008A95E9F78FEC8D0D833008F08BC0F1E3B1
:10017000DF1203C044E060E007C082E344E0D8122D
:1001800002C066E001C06CE081E00E949D04412C49
:10019000512C3201E12C5801AE0CB11CF5018081CB
:1001A0008D3309F446C00E947C02F82E8823D1F1D9
:1001B000F5018083F4E0EF1619F180EDB82EBF0C45
:1001C00089E08B1518F4EDE2FE121AC08F2D0E9403
:1001D000EC03F9E0FB15A0F0AAE0B0E0A301920166
:1001E0000E9476104F2D50E09A01205331092901C9
:1001F000330F66087708460E571E681E791E06C024
:100200008DE3F81679F0E3E4FE1611F0E3940AC0EA
:1002100044E060E081E00E949D041A821B821C82FF
:100220001D82E12C8981833421F0F4E0FE1508F071
:10023000B2CFF801EE0DF11D80818D3319F5898162
:100240008D3241F47094609450944094411C511C40
:10025000611C711CF1E3DF1205C05092AF004092A7
:10026000AE0010C082E3D81205C05092A7004092A1
:10027000A60008C040929E0050929F006092A0008D
:100280007092A1000E94DF049091B200891721F0C2
:100290008093B3008093B2008091AE009091AF0044
:1002A0002091B0003091B1008217930749F0853654
:1002B000910530F48093B3009093B1008093B00027
:1002C0008091B3000E94B60460E081E00E94E003E8
:1002D0008091B30090E00E946B040E94F704682FA5
:1002E00070E080E090E00E94090F20E030E044E3FD
:1002F00053E40E94BE0F20E030E048EC52E40E943C
:100300005F0E20E030E044EB52E40E94F20D0E94C8
:10031000D10E2091AA003091AB002617370769F063
:100320007093AD006093AC007093AB006093AA0033
:1003300044E066E081E00E949D048091A6009091D7
:10034000A7002091A8003091A9008217930799F087
:100350009C01265A3F4F253B310568F49093AD0030
:100360008093AC009093A9008093A80044E066E0DD
:1003700081E00E949D046091AC007091AD00072E59
:10038000000C880B990B0E94090F0E940F0566E074
:1003900081E00E94E0038091AC009091AD0097FD58
:1003A00003C00E946B0406C0BC01990F880B990B17
:1003B0000E94010460919E0070919F008091A000B6
:1003C0009091A1006115710581059105B9F06093C7
:1003D000A2007093A3008093A4009093A5000E94B4
:1003E000300510929E0010929F001092A000109273
:1003F000A10044E06CE081E00E949D048091A20095
:100400009091A300A091A400B091A5006CE0B7FD6D
:100410001BC081E00E94E0038091A2009091A300A4
:100420000F900F900F900F900F90DF91CF911F9131
:100430000F91FF90EF90DF90BF90AF907F906F9003
:100440005F904F900C946B0481E00E94E0036091F8
:10045000A2007091A3008091A4009091A5000F903C
:100460000F900F900F900F90DF91CF911F910F91F0
:10047000FF90EF90DF90BF90AF907F906F905F9074
:100480004F900C9401040F931F93CF93DF93D82FB9
:10049000062FC42F122F60E00E940F0A802F0E94A7
:1004A0008A0A4C2F50E0212F30E0440F551F440F93
:1004B000551F811113C0FA01EC54FF4FE20FF31FD7
:1004C0008081811111C042595F4FDA01A20FB31F21
:1004D0008C918093C40081E0808306C04C545F4FB0
:1004E000FA01E20FF31F108261E08D2FDF91CF91AF
:1004F0001F910F910C940F0A61E08AE10E940F0A8C
:1005000061E08BE10E940F0A61E08CE10E940F0A1A
:1005100061E088E10E940F0A1092C40020E040E0F0
:100520006CE08AE10E94430221E040E06CE08BE154
:100530000E94430222E040E06CE08CE10E94430212
:1005400023E040E06CE088E10E94430220E041E0CB
:100550006DE08AE10E94430221E041E06DE08BE121
:100560000E94430222E041E06DE08CE10E944302E0
:1005700023E041E06DE088E10E94430220E042E098
:100580006EE08AE10E94430221E042E06EE08BE1EE
:100590000E94430222E042E06EE08CE10E944302AE
:1005A00023E042E06EE088E10E94430220E043E065
:1005B0006FE08AE10E94430221E043E06FE08BE1BB
:1005C0000E94430222E043E06FE08CE10E9443027C
:1005D00023E043E06FE088E10E9443028091C40081
:1005E0000895CF93C82F60E081E00E940F0AC4FBFA
:1005F000662760F983E00E940F0AC5FB662760F951
:1006000084E00E940F0AC6FB662760F985E00E941D
:100610000F0A6C2F661F6627661F86E00E940F0A6E
:1006200061E082E00E940F0A8FEC97E00197F1F7FA
:1006300000C0000060E082E00E940F0A6C2F617031
:1006400083E00E940F0AC1FB662760F984E00E94E4
:100650000F0AC2FB662760F985E00E940F0AC3FB00
:10066000662760F986E00E940F0A61E082E00E943E
:100670000F0A8FEC97E00197F1F700C0000060E0EF
:1006800082E00E940F0A8FEC97E00197F1F700C01B
:100690000000CF910895CF93C82F61E081E00E94C0
:1006A0000F0AC4FB662760F983E00E940F0AC5FBAE
:1006B000662760F984E00E940F0AC6FB662760F98E
:1006C00085E00E940F0A6C2F661F6627661F86E072
:1006D0000E940F0A61E082E00E940F0A8FEC97E00F
:1006E0000197F1F700C0000060E082E00E940F0A6D
:1006F0006C2F617083E00E940F0AC1FB662760F9CE
:1007000084E00E940F0AC2FB662760F985E00E9420
:100710000F0AC3FB662760F986E00E940F0A61E0BA
:1007200082E00E940F0A8FEC97E00197F1F700C07A
:10073000000060E082E00E940F0A8FEC97E00197D2
:10074000F1F700C00000CF9108952FE788E391E012
:10075000215080409040E1F700C0000082E20E94FA
:10076000F10260E081E00E940F0A60E085E00E94F3
:100770000F0A61E086E00E940F0A61E082E00E94B9
:100780000F0A8FEC97E00197F1F700C0000060E0DE
:1007900082E00E940F0A8FEC97E00197F1F700C00A
:1007A00000008CE00E94F10281E00E94F1028FECD7
:1007B00097E00197F1F700C0000086E00C94F10289
:1007C000811102C0862F04C0813029F480E4860F95
:1007D00080680C94F10208950C944B030F931F93BF
:1007E000CF938C01C0E0F801EC0FF11D80818823CC
:1007F00021F00E944B03CF5FF6CFCF911F910F9155
:1008000008958F929F92AF92BF92CF92DF92EF9214
:10081000FF92CF93611571058105910561F480E325
:10082000CF91FF90EF90DF90CF90BF90AF909F90CF
:100830008F900C944B036B017C0197FF0AC08DE2F3
:100840000E944B0366277727CB016C197D098E091F
:100850009F090E94090F6B017C01C0E020E030E09D
:1008600040E85FE3C701B6010E94B90F87FD0CC0E5
:1008700020E030E040E251E4C701B6010E945F0E83
:100880006B017C01CF5FEACF8AE0882E912CA12CEE
:10089000B12CCC23B1F020E030E040E251E4C701BC
:1008A000B6010E94BE0F6B017C010E94D80EA5010B
:1008B00094010E943F1080E3860F0E944B03C150B9
:1008C000E8CFCF91FF90EF90DF90CF90BF90AF90A7
:1008D0009F908F9008950F931F93CF93DF938C0178
:1008E00068EE73E00E942B10CB01CAE0D0E0BE019D
:1008F0000E942B10805D0E944B03C80164E670E0EB
:100900000E942B10CB01BE010E942B10805D0E9423
:100910004B03C801BE010E942B10182FCB01BE0152
:100920000E942B10805D0E944B0380E3810FDF91BA
:10093000CF911F910F910C944B030F931F93CF9363
:10094000DF93D82F162F042F0E94E003C1E00C176D
:1009500028F080E20E944B03CF5FF9CF612F8D2FEB
:10096000DF91CF911F910F910C94E003CF93C82F8B
:1009700061E086E10E940F0A60E087E10E940F0AB1
:100980006C2F70E080E090E00E94090F20E030E0E2
:1009900048EC52E40E945F0E9B01AC0160E070E005
:1009A00080E89FE30E94F20D20E030E04FE753E43F
:1009B0000E94BE0F0E94D80E6CBFCF91089580E0B8
:1009C0000E94E108BC0180E090E00E94070F20E057
:1009D00030E048EC52E40E94BE0F20E030EC4FE7DC
:1009E00054E40E945F0E0E94D80E862F089587E07F
:1009F0000E94E108BC0180E090E00E94070F20E027
:100A000030E048EC52E40E94BE0F20E030EC4FE7AB
:100A100054E40E945F0E0E94D80E862F089520E0B5
:100A200030E044EB52E40E94F30D20E030E044E378
:100A300053E40E945F0E20E030E04AE754E40E9455
:100A4000BE0F20E030EC49E754E40E94F30D0E9411
:100A5000D80E20E23EE437BD26BD7BBD6ABD0895B9
:100A60009F92AF92BF92CF92DF92EF92FF920F933D
:100A70001F93CF93DF936B017C018091C700F7FC3C
:100A8000B4C181110AC081E08093C6008093C50083
:100A90008093C7008093C80007C08091C6008093F0
:100AA000C50081E08093C6008091C50081110FC010
:100AB0008091C800863011F488E007C0853011F4B9
:100AC00087E003C0843071F486E08093C800C8E0FA
:100AD000D2E013E004E035E0B32E46E0A42E57E068
:100AE000952E3BC0833011F485E0EFCF823011F4B6
:100AF00084E0EBCF813011F483E0E7CF883011F44C
:100B000082E0E3CF873019F781E0DFCF8091C80022
:100B1000813051F18091C800823009F44DC080913C
:100B2000C800833009F470C08091C800843009F493
:100B300093C08091C800853009F4B6C08091C80088
:100B4000863009F4D9C08091C800873009F4FCC010
:100B50008091C800883009F41FC185E0C816D1040F
:100B6000E104F1049CF6EEC260E080E10E940F0A0D
:100B700060E081E10E940F0A60E082E10E940F0ABA
:100B800061E083E10E940F0A2FE788E391E02150A2
:100B900080409040E1F700C00000D093C80025E0FD
:100BA000C21AD108E108F10885E0C816D104E104B1
:100BB000F1040CF0AFCFC6C260E080E10E940F0AE2
:100BC00060E081E10E940F0A61E082E10E940F0A69
:100BD00061E083E10E940F0A9FE728E381E09150E2
:100BE00020408040E1F700C000001093C80095E06D
:100BF000C91AD108E108F10825E0C216D104E104C0
:100C0000F1040CF08CCF9EC260E080E10E940F0ADC
:100C100060E081E10E940F0A61E082E10E940F0A18
:100C200060E083E10E940F0A8FE798E321E08150A2
:100C300090402040E1F700C000000093C80085E02C
:100C4000C81AD108E108F10895E0C916D104E104F9
:100C5000F1040CF069CF76C260E080E10E940F0AD7
:100C600061E081E10E940F0A61E082E10E940F0AC7
:100C700060E083E10E940F0A2FE788E391E02150B2
:100C800080409040E1F700C00000B092C80025E02D
:100C9000C21AD108E108F10885E0C816D104E104C0
:100CA000F1040CF046CF4EC260E080E10E940F0AD2
:100CB00061E081E10E940F0A60E082E10E940F0A78
:100CC00060E083E10E940F0A9FE728E381E09150F2
:100CD00020408040E1F700C00000A092C80095E0ED
:100CE000C91AD108E108F10825E0C216D104E104CF
:100CF000F1040CF023CF26C261E080E10E940F0ACC
:100D000061E081E10E940F0A60E082E10E940F0A27
:100D100060E083E10E940F0A8FE798E321E08150B1
:100D200090402040E1F700C000009092C80085E0AC
:100D3000C81AD108E108F10895E0C916D104E10408
:100D4000F1040CF000CFFEC161E080E10E940F0AC7
:100D500060E081E10E940F0A60E082E10E940F0AD8
:100D600060E083E10E940F0A2FE788E391E02150C1
:100D700080409040E1F700C00000C093C80025E02B
:100D8000C21AD108E108F10885E0C816D104E104CF
:100D9000F1040CF0DDCED6C161E080E10E940F0AC3
:100DA00060E081E10E940F0A60E082E10E940F0A88
:100DB00061E083E10E940F0A9FE728E381E0915000
:100DC00020408040E1F700C0000081E08093C8002F
:100DD00095E0C91AD108E108F10825E0C216D1044E
:100DE000E104F1040CF0B9CEADC181110BC0109239
:100DF000C6001092C50081E08093C70087E0809311
:100E0000C80006C08091C6008093C5001092C6003D
:100E10009091C500913021F58091C800823011F485
:100E200088E01CC0833019F49093C80019C0843046
:100E300011F482E013C0853011F483E00FC08630D6
:100E400011F484E00BC0873011F485E007C08830CE
:100E500011F486E003C0813019F487E08093C80064
:100E6000F094E094D094C094C11CD11CE11CF11CFE
:100E7000C6E0D5E014E003E082E0B82E98E0A92EA9
:100E800027E0922E25E0C216D104E104F1040CF40F
:100E900059C18091C800873039F561E080E10E9436
:100EA0000F0A60E081E10E940F0A60E082E10E9487
:100EB0000F0A60E083E10E940F0A9FE728E381E0C8
:100EC000915020408040E1F700C00000C093C8006E
:100ED00095E0C91AD108E108F10825E0C216D1044D
:100EE000E104F1040CF42EC18091C800863039F57C
:100EF00061E080E10E940F0A61E081E10E940F0A37
:100F000060E082E10E940F0A60E083E10E940F0A24
:100F10008FE798E321E0815090402040E1F700C046
:100F20000000D093C80085E0C81AD108E108F10894
:100F300095E0C916D104E104F1040CF403C18091D9
:100F4000C800853039F560E080E10E940F0A61E059
:100F500081E10E940F0A60E082E10E940F0A60E0D6
:100F600083E10E940F0A2FE788E391E0215080403F
:100F70009040E1F700C000001093C80025E0C21ABD
:100F8000D108E108F10885E0C816D104E104F104B4
:100F90000CF4D8C08091C800843039F560E080E15D
:100FA0000E940F0A61E081E10E940F0A61E082E184
:100FB0000E940F0A60E083E10E940F0A9FE728E386
:100FC00081E0915020408040E1F700C00000009394
:100FD000C80095E0C91AD108E108F10825E0C21659
:100FE000D104E104F1040CF4ADC08091C800833059
:100FF00039F560E080E10E940F0A60E081E10E9423
:101000000F0A61E082E10E940F0A60E083E10E9422
:101010000F0A8FE798E321E0815090402040E1F7EC
:1010200000C00000B092C80085E0C81AD108E108ED
:10103000F10895E0C916D104E104F1040CF482C072
:101040008091C800823041F560E080E10E940F0A83
:1010500060E081E10E940F0A61E082E10E940F0AD4
:1010600061E083E10E940F0A2FE788E391E02150BD
:1010700080409040E1F700C0000081E08093C8000C
:1010800025E0C21AD108E108F10885E0C816D104AC
:10109000E104F1040CF456C08091C800813031F5B0
:1010A00060E080E10E940F0A60E081E10E940F0A87
:1010B00060E082E10E940F0A61E083E10E940F0A72
:1010C0009FE728E381E0915020408040E1F700C095
:1010D0000000A092C80095E0C91AD108E108F10803
:1010E00025E0C216D104E104F10464F18091C80046
:1010F000883009F0C7CE61E080E10E940F0A60E00D
:1011000081E10E940F0A60E082E10E940F0A61E023
:1011100083E10E940F0A8FE798E321E0815090401D
:101120002040E1F700C000009092C80085E0C81A96
:10113000D108E108F10895E0C916D104E104F104F1
:101140000CF0A0CEDF91CF911F910F91FF90EF9007
:10115000DF90CF90BF90AF909F9008950E9468005D
:101160000E949500FDCF813041F020F0833039F4AA
:101170003F9A04C03F983E9802C03F983E9A862FFF
:1011800090E0FC013197E730F105B8F4E65DFF4FE0
:101190000C946110329808C0329809C032980BC084
:1011A000329A319805C0329A319806C0329A319AF3
:1011B000309803C0329A319A309A3D980895379A00
:1011C000089590E088309105E0F4FC01EF5CFF4F5A
:1011D0003C983B980C9461103A9809C03A980AC020
:1011E0003A98399A38980DC03A9809C03A9A39987D
:1011F000F9CF3A9A399804C03A9AF3CF3A9A399A81
:10120000389A369A3699FECF84B195B108951F92D7
:101210000F920FB60F9211242F933F934F935F932A
:101220006F937F938F939F93AF93BF93EF93FF93AE
:10123000E091C900F091CA00309709F00995FF913B
:10124000EF91BF91AF919F918F917F916F915F913E
:101250004F913F912F910F900FBE0F901F901895B7
:10126000CF93DF93EEE7F0E020EFA8EE38EF40E019
:1012700050E081E090E0719171113CC0483078F409
:10128000BAB3EC01042E02C0CC0FDD1F0A94E2F7C2
:10129000BE017B2F762B7ABB7BB360953EC0383086
:1012A00068F4B7B3BC01032E01C0660F0A94EAF7D5
:1012B0007B2F762B77BB78B360953FC0283068F4DE
:1012C000B4B3BC01022E01C0660F0A94EAF77B2F6B
:1012D000762B74BB75B3609540C0B1B3BC010A2EC8
:1012E00001C0660F0A94EAF77B2F762B71BB72B3AD
:1012F000609541C0713009F040C0483080F4BAB305
:10130000EC01042E02C0CC0FDD1F0A94E2F7BE01EF
:1013100060957B2F76237ABB7BB3672342C038303E
:1013200070F4B7B3BC01032E01C0660F0A94EAF74C
:1013300060957B2F762377BB78B3672343C0283033
:1013400070F4B4B3BC01022E01C0660F0A94EAF730
:1013500060957B2F762374BB75B3672344C0B1B30C
:10136000BC010A2E01C0660F0A94EAF760957B2F34
:10137000762371BB72B3672345C0723009F043C056
:10138000483088F4BAB3EC01042E02C0CC0FDD1F44
:101390000A94E2F7BE017C2F70957B237ABB7BB366
:1013A000672B6BBB30C0383078F4B7B3BC01032E69
:1013B00001C0660F0A94EAF7762F70957B2377BBFE
:1013C00078B3672B68BB1FC0283078F4B4B3BC0176
:1013D000022E01C0660F0A94EAF7762F70957B23E0
:1013E00074BB75B3672B65BB0EC0B1B3BC010A2ECD
:1013F00001C0660F0A94EAF7762F70957B2371BBC4
:1014000072B3672B62BB4F5F5F4F3F5FAF5F2F5F72
:101410004032510509F02FCFDF91CF91089561112E
:101420003CC0883068F44BB321E030E0B90102C021
:10143000660F771F8A95E2F7CB01809584233CC025
:1014400038EF380F383050F428B381E090E001C015
:10145000880F3A95EAF7809582233CC030EF380F29
:10146000383050F425B381E090E001C0880F3A9500
:10147000EAF7809582233CC08851883008F049C043
:1014800042B321E030E0B90102C0660F771F8A95B0
:10149000E2F7CB01809584233BC06130D1F58830E1
:1014A00068F44BB321E030E0B90102C0660F771F4A
:1014B0008A95E2F7CB01842B8BBB089528EF280F88
:1014C000283050F438B381E090E001C0880F2A95AD
:1014D000EAF7832B88BB089520EF280F283050F4BB
:1014E00035B381E090E001C0880F2A95EAF7832B9D
:1014F00085BB08958851883060F442B321E030E024
:10150000B90102C0660F771F8A95E2F7CB01842BE1
:1015100082BB0895282F883010F499B316C038EF95
:10152000380F383010F486B305C030EF380F38303C
:1015300040F483B390E002C0959587953A95E2F721
:101540000BC02851283050F490B3892F90E002C08E
:10155000959587952A95E2F78170089508951F92D1
:101560000F920FB60F9211242F933F934F935F93D7
:101570006F937F938F939F93AF93BF93EF93FF935B
:10158000E091CF00F091D000309709F00995FF91DC
:10159000EF91BF91AF919F918F917F916F915F91EB
:1015A0004F913F912F910F900FBE0F901F90189564
:1015B0001F920F920FB60F9211242F933F934F93C8
:1015C0005F936F937F938F939F93AF93BF93EF93AB
:1015D000FF93E091CD00F091CE00309709F009958E
:1015E000FF91EF91BF91AF919F918F917F916F91FB
:1015F0005F914F913F912F910F900FBE0F901F90D1
:1016000018951F920F920FB60F9211242F933F93AC
:101610004F935F936F937F938F939F93AF93BF93FA
:10162000EF93FF93E091CB00F091CC00309709F05D
:101630000995FF91EF91BF91AF919F918F917F910C
:101640006F915F914F913F912F910F900FBE0F902F
:101650001F9018951F920F920FB60F9211242F937F
:101660003F934F935F936F937F938F939F93AF932A
:10167000BF93EF93FF93E091D100F091D2003097A8
:1016800009F00995FF91EF91BF91AF919F918F91D3
:101690007F916F915F914F913F912F910F900FBE6E
:1016A0000F901F901895823099F038F4882369F0D4
:1016B000813051F583B78B7F20C08430A9F070F062
:1016C000853011F583B7846018C083B78B7F0EC057
:1016D00083B78B7F83BF83B782600BC083B78B7F59
:1016E00083BF83B782600CC083B7846083BF83B736
:1016F0008D7F83BF83B78E7F06C083BF83B78D7F07
:1017000083BF83B7816083BF613059F038F06230A6
:1017100059F0633099F483B788600CC083B7877F32
:1017200005C083B7877F06C083B7886083BF83B750
:101730008F7B03C083BF83B7806483BF413049F090
:1017400028F0423049F0433069F0089583B78F7D27
:1017500005C083B78F7D08C083B7806283BF83B71E
:101760008F7E05C083B7806283BF83B7806183BFEC
:1017700008951F920F920FB60F9211242F933F934B
:101780004F935F936F937F938F939F93AF93BF9389
:10179000EF93FF93E091D500F091D600309709F0D8
:1017A0000995FF91EF91BF91AF919F918F917F919B
:1017B0006F915F914F913F912F910F900FBE0F90BE
:1017C0001F9018951F920F920FB60F9211242F930E
:1017D0003F934F935F936F937F938F939F93AF93B9
:1017E000BF93EF93FF93E091D300F091D400309733
:1017F00009F00995FF91EF91BF91AF919F918F9162
:101800007F916F915F914F913F912F910F900FBEFC
:101810000F901F901895823099F038F4882369F062
:10182000813051F58EB58B7F20C08430A9F070F0E7
:10183000853011F58EB5846018C08EB58B7F0EC0D3
:101840008EB58B7F8EBD8EB582600BC08EB58B7FC3
:101850008EBD8EB582600CC08EB584608EBD8EB597
:101860008D7F8EBD8EB58E7F06C08EBD8EB58D7F71
:101870008EBD8EB581608EBD862F90E08031910542
:1018800008F05CC0FC01E75CFF4F0C9461108EB562
:101890008F7E20C08EB58F7E23C08EB58F7E29C0EF
:1018A0008EB58F7E2CC08EB58F7E8EBD8EB5886036
:1018B0008EBD8FB58D7F32C08EB58F7E8EBD8EB5BD
:1018C000886011C08EB58F7E23C08EB58F7E2CC0F0
:1018D0008EB580618EBD8EB5877FEACF8EB5806173
:1018E0008EBD8EB5877F8EBD8FB58D7F23C08EB5A3
:1018F00080618EBD8EB5877F0EC08EB580618EBD36
:101900008EB5877F14C08EB58061CFCF8EB58061D4
:101910008EBD8EB588608EBD8FB582608FBD8FB550
:101920008E7F0BC08EB580618EBD8EB588608EBDFA
:101930008FB582608FBD8FB581608FBD413059F00A
:1019400038F0423059F0433099F48FB580680CC0BC
:101950008FB58F7705C08FB58F7706C08FB580683C
:101960008FBD8FB58F7B03C08FBD8FB580648FBD5A
:10197000213049F028F0223049F0233069F00895F1
:101980008FB58F7D05C08FB58F7D08C08FB5806204
:101990008FBD8FB58F7E05C08FB580628FBD8FB52F
:1019A00080618FBD08951F920F920FB60F92112480
:1019B0002F933F934F935F936F937F938F939F9357
:1019C000AF93BF93EF93FF93E091DD00F091DE00C2
:1019D000309709F00995FF91EF91BF91AF919F91D9
:1019E0008F917F916F915F914F913F912F910F90C8
:1019F0000FBE0F901F9018951F920F920FB60F9267
:101A000011242F933F934F935F936F937F938F9303
:101A10009F93AF93BF93EF93FF93E091DB00F0911F
:101A2000DC00309709F00995FF91EF91BF91AF91DC
:101A30009F918F917F916F915F914F913F912F91E6
:101A40000F900FBE0F901F9018951F920F920FB618
:101A50000F9211242F933F934F935F936F937F9334
:101A60008F939F93AF93BF93EF93FF93E091D90030
:101A7000F091DA00309709F00995FF91EF91BF914D
:101A8000AF919F918F917F916F915F914F913F9116
:101A90002F910F900FBE0F901F9018951F920F92CD
:101AA0000FB60F9211242F933F934F935F936F9331
:101AB0007F938F939F93AF93BF93EF93FF93E091A7
:101AC000D700F091D800309709F00995FF91EF9178
:101AD000BF91AF919F918F917F916F915F914F9146
:101AE0003F912F910F900FBE0F901F9018951F924E
:101AF0000F920FB60F9211242F933F934F935F9342
:101B00006F937F938F939F93AF93BF93EF93FF93C5
:101B1000E091E300F091E400309709F00995FF911E
:101B2000EF91BF91AF919F918F917F916F915F9155
:101B30004F913F912F910F900FBE0F901F901895CE
:101B40001F920F920FB60F9211242F933F934F9332
:101B50005F936F937F938F939F93AF93BF93EF9315
:101B6000FF93E091E100F091E200309709F00995D0
:101B7000FF91EF91BF91AF919F918F917F916F9165
:101B80005F914F913F912F910F900FBE0F901F903B
:101B900018951F920F920FB60F9211242F933F9317
:101BA0004F935F936F937F938F939F93AF93BF9365
:101BB000EF93FF93E091DF00F091E000309709F0A0
:101BC0000995FF91EF91BF91AF919F918F917F9177
:101BD0006F915F914F913F912F910F900FBE0F909A
:101BE0001F9018955058BB27AA270E940A0E0C94E4
:101BF0007F0F0E94710F38F00E94780F20F039F4A7
:101C00009F3F19F426F40C946E0F0EF4E095E7FB59
:101C10000C94680FE92F0E94900F58F3BA176207CF
:101C200073078407950720F079F4A6F50C94B20F9A
:101C30000EF4E0950B2EBA2FA02D0B01B9019001E7
:101C40000C01CA01A0011124FF27591B99F0593F2B
:101C500050F4503E68F11A16F040A22F232F342F73
:101C60004427585FF3CF469537952795A795F040C1
:101C70005395C9F77EF41F16BA0B620B730B840BD6
:101C8000BAF09150A1F0FF0FBB1F661F771F881F8E
:101C9000C2F70EC0BA0F621F731F841F48F48795E6
:101CA00077956795B795F7959E3F08F0B0CF9395D8
:101CB000880F08F09927EE0F9795879508950E9451
:101CC000730E0C947F0F0E94780F58F00E94710FD2
:101CD00040F029F45F3F29F00C94680F51110C94E7
:101CE000B30F0C946E0F0E94900F68F39923B1F319
:101CF000552391F3951B550BBB27AA276217730732
:101D0000840738F09F5F5F4F220F331F441FAA1FC5
:101D1000A9F335D00E2E3AF0E0E832D09150504081
:101D2000E695001CCAF72BD0FE2F29D0660F771F2F
:101D3000881FBB1F261737074807AB07B0E809F015
:101D4000BB0B802DBF01FF2793585F4F3AF09E3F9A
:101D5000510578F00C94680F0C94B30F5F3FE4F3D7
:101D6000983ED4F3869577956795B795F7959F5FDD
:101D7000C9F7880F911D9695879597F90895E1E029
:101D8000660F771F881FBB1F621773078407BA0788
:101D900020F0621B730B840BBA0BEE1F88F7E095E3
:101DA00008950E94D80E6894B1110C94B30F089551
:101DB0000E94980F88F09F5798F0B92F9927B75134
:101DC000B0F0E1F0660F771F881F991F1AF0BA95DF
:101DD000C9F714C0B13091F00E94B20FB1E008957C
:101DE0000C94B20F672F782F8827B85F39F0B93F6E
:101DF000CCF3869577956795B395D9F73EF4909592
:101E00008095709561957F4F8F4F9F4F0895E8940F
:101E100009C097FB3EF490958095709561957F4F32
:101E20008F4F9F4F9923A9F0F92F96E9BB279395E0
:101E3000F695879577956795B795F111F8CFFAF4F0
:101E4000BB0F11F460FF1BC06F5F7F4F8F4F9F4F21
:101E500016C0882311F096E911C0772321F09EE87F
:101E6000872F762F05C0662371F096E8862F70E0E5
:101E700060E02AF09A95660F771F881FDAF7880FBF
:101E80009695879597F90895990F0008550FAA0B15
:101E9000E0E8FEEF16161706E807F907C0F012167D
:101EA0001306E407F50798F0621B730B840B950B80
:101EB00039F40A2661F0232B242B252B21F40895D5
:101EC0000A2609F4A140A6958FEF811D811D089572
:101ED00097F99F6780E870E060E008959FEF80ECDD
:101EE000089500240A941616170618060906089580
:101EF00000240A9412161306140605060895092EE6
:101F00000394000C11F4882352F0BB0F40F4BF2B54
:101F100011F460FF04C06F5F7F4F8F4F9F4F089594
:101F200057FD9058440F551F59F05F3F71F047958A
:101F3000880F97FB991F61F09F3F79F0879508956F
:101F4000121613061406551FF2CF4695F1DF08C08E
:101F5000161617061806991FF1CF869571056105AB
:101F600008940895E894BB2766277727CB0197F953
:101F700008950E94440F08F48FEF08950E94D10F36
:101F80000C947F0F0E94710F38F00E94780F20F0A0
:101F9000952311F00C94680F0C946E0F11240C947F
:101FA000B30F0E94900F70F3959FC1F3950F50E00F
:101FB000551F629FF001729FBB27F00DB11D639FFB
:101FC000AA27F00DB11DAA1F649F6627B00DA11DA1
:101FD000661F829F2227B00DA11D621F739FB00D47
:101FE000A11D621F839FA00D611D221F749F3327B7
:101FF000A00D611D231F849F600D211D822F762F50
:102000006A2F11249F5750409AF0F1F088234AF02C
:10201000EE0FFF1FBB1F661F771F881F9150504098
:10202000A9F79E3F510580F00C94680F0C94B30FF4
:102030005F3FE4F3983ED4F3869577956795B7951F
:10204000F795E7959F5FC1F7FE2B880F911D969539
:10205000879597F90895AA1BBB1B51E107C0AA1FDA
:10206000BB1FA617B70710F0A61BB70B881F991F39
:102070005A95A9F780959095BC01CD010895A1E2EC
:102080001A2EAA1BBB1BFD010DC0AA1FBB1FEE1FF2
:10209000FF1FA217B307E407F50720F0A21BB30B3D
:1020A000E40BF50B661F771F881F991F1A9469F7B9
:1020B00060957095809590959B01AC01BD01CF0115
:1020C0000895EE0FFF1F0590F491E02D0994A29F53
:1020D000B001B39FC001A39F700D811D1124911DFC
:1020E000B29F700D811D1124911D08950E946710EB
:1020F000A59F900DB49F900DA49F800D911D11245C
:062100000895F894FFCFE2
:1021060044432E005345522E005354452E00373873
:10211600392F3435362A3132332D43303D2B0100E9
:1021260000000000000100000000020202020000A0
:0E21360000000000000000000000000000009B
:00000001FF
