S014000061746D65676133325F4543552E7372656300
S11300000C942A000C94FD070C9426080C944F08B9
S11300100C9447000C9447000C946E090C94F3085C
S11300200C941C090C9445090C94A1080C94CA085E
S11300300C9478080C9497090C94E9090C94C00961
S11300400C9455060C9447000C9447000C944700FC
S11300500C94470011241FBECFE5D8E0DEBFCDBF0E
S113006011E0A0E6B0E0E8E2F4E102C005900D92F0
S1130070A231B107D9F721E0A2E1B1E001C01D929C
S1130080A435B207E1F70E9450060C94120A0C94AE
S113009000002091140190E0E92FF0E0EC5EFE4FA7
S11300A08081882369F02A3269F02F3259F0805315
S11300B08A3020F0818180538A3020F49F5FECCF16
S11300C081E0089580E008953091140190E0E92FD3
S11300D0F0E0EC5EFE4F8081882389F03A3289F0AB
S11300E03F3279F020ED280F2A3020F0218120536F
S11300F02A3038F48253883020F09F5FE8CF81E0C3
S1130100089580E008950E940C0660E080E00E945B
S1130110160680E690E00E94240660E081E00E94DA
S1130120160689E690E00E9424060E94A8048093A3
S11301301201809112018823C1F30C940C060E94D1
S1130140A80480931201809112018D3349F1833404
S113015039F18823A1F3809113018D3080F7811147
S11301600AC04DE064E081E00E9437064DE064E09F
S113017080E00E943706809112010E942206E091DD
S11301801301AE2FB0E0AC5EBE4F809112018C9390
S1130190EF5FE0931301F0E0EC5EFE4F1082CFCFEF
S11301A008950E94A80480931201809112018D3356
S11301B009F45BC0833409F458C0882391F3809117
S11301C013018D3070F781110AC04DE064E081E0C5
S11301D00E9437064DE064E080E00E94370680917B
S11301E012018F3251F481E40E942206E09113013E
S11301F0F0E0EC5EFE4F81E42DC08A3251F482E4DB
S11302000E942206E0911301F0E0EC5EFE4F82E4CE
S113021021C08D3251F484E40E942206E09113013E
S1130220F0E0EC5EFE4F84E415C08B3251F485E4BB
S11302300E942206E0911301F0E0EC5EFE4F85E49B
S113024009C00E942206E0911301F0E0EC5EFE4F2B
S1130250809112018083E0911301EF5FE093130119
S1130260F0E0EC5EFE4F10829CCF08950E947E0663
S11302700E94D1050E940C0660E080E00E941606F0
S11302808BE790E00E9424062FEF81EE94E021504A
S113029080409040E1F700C0000060E080E00E94F0
S11302A0160686E990E00E94240660E081E00E9440
S11302B0160686E890E00E9424062FEF81EE94E073
S11302C0215080409040E1F700C0000081E080931D
S11302D026010C940C0680912601813011F50E94B0
S11302E0A8049FEC980F923088F060E080E00E94B0
S11302F0160684E990E00E94240660E081E00E94F2
S1130300160681EA90E00E942406E9CF10921301B8
S1130310813311F482E001C083E0809326010E94BE
S11303200C06809126018230D9F50E94A80480939E
S11303301201809112018D3309F4B8C2833439F16A
S1130340882399F380911301803178F781110AC0D1
S113035040E160E081E00E94370640E160E080E037
S11303600E943706809112010E942206E091130137
S1130370AE2FB0E0AC5EBE4F809112018C93EF5F64
S1130380E0931301F0E0EC5EFE4F1082CECF1092AA
S113039013011092140181E0809326010E940C063F
S11303A0809126018330B9F50E94A8048093250129
S11303B0809125019FEC980F933008F48BC283340D
S11303C009F160E080E00E9416068DEA90E00E9448
S11303D0240660E081E00E9416068BEB90E00E9408
S11303E0240666E081E00E9416068FEB90E00E94EE
S11303F024066CE081E00E94160683EC90E00E94E3
S11304002406D2CF81E0809326011092130110922A
S113041014010E940C0680912601843009F059C011
S11304200E94A8049FEC980F933020F1833409F4C0
S11304304BC060E080E00E94160687EC90E00E94CA
S1130440240660E081E00E9416068BEB90E00E9497
S1130450240666E081E00E9416068FEB90E00E947D
S113046024066CE081E00E94160683EC90E00E9472
S11304702406D6CF90912501813361F4913311F490
S113048085E023C0923311F488E01FC09333F9F45C
S11304908BE01BC0823361F4913311F486E015C004
S11304A0923311F489E011C0933389F48CE00DC0C8
S11304B0913311F487E009C0923311F48AE005C046
S11304C0933329F48DE001C081E0809326010E94DA
S11304D00C06809126018530A9F560E080E00E9439
S11304E0160683ED90E00E94240660E081E00E94FD
S11304F0160683ED90E00E9424060E949F008091DE
S113050012018D33A1F40E944900882349F064E06C
S113051081E00E94160684E191E00E94240602C054
S11305200E94830010921301109214010BC08334B3
S113053049F4109213011092140181E08093260172
S11305400E940C06809126018630A9F560E080E0C7
S11305500E94160683ED90E00E94240660E081E08C
S11305600E94160688ED90E00E9424060E949F00D7
S1130570809112018D33A1F40E944900882349F02F
S113058064E081E00E94160684E191E00E94240662
S113059002C00E94830010921301109214010BC038
S11305A0833449F4109213011092140181E0809372
S11305B026010E940C06809126018730A9F560E08F
S11305C080E00E94160683ED90E00E94240660E01D
S11305D081E00E9416068DED90E00E9424060E94A0
S11305E09F00809112018D33A1F40E944900882359
S11305F049F064E081E00E94160684E191E00E94E3
S1130600240602C00E948300109213011092140168
S11306100BC0833449F4109213011092140181E049
S1130620809326010E940C0680912601883071F582
S113063060E080E00E94160688ED90E00E942406A7
S113064060E081E00E94160683ED90E00E9424069B
S11306500E94D100809112018D3369F464E081E03D
S11306600E94160684E191E00E9424061092130170
S1130670109214010BC0833449F4109213011092A8
S1130680140181E0809326010E940C0680912601CA
S1130690893071F560E080E00E94160688ED90E0F4
S11306A00E94240660E081E00E94160688ED90E036
S11306B00E9424060E94D100809112018D3369F4B6
S11306C064E081E00E94160684E191E00E94240621
S11306D010921301109214010BC0833449F4109248
S11306E013011092140181E0809326010E940C06EC
S11306F0809126018A3071F560E080E00E94160640
S113070088ED90E00E94240660E081E00E941606D5
S11307108DED90E00E9424060E94D1008091120188
S11307208D3369F464E081E00E94160684E191E06F
S11307300E94240610921301109214010BC08334FA
S113074049F4109213011092140181E08093260160
S11307500E940C06809126018B30A9F560E080E0B0
S11307600E9416068DED90E00E94240660E081E070
S11307700E94160683ED90E00E9424060E949F00CA
S1130780809112018D33A1F40E946400882349F002
S113079064E081E00E94160684E191E00E94240650
S11307A002C00E94830010921301109214010BC026
S11307B0833449F4109213011092140181E0809360
S11307C026010E940C06809126018C30A9F560E078
S11307D080E00E9416068DED90E00E94240660E001
S11307E081E00E94160688ED90E00E9424060E9493
S11307F09F00809112018D33A1F40E94640088232C
S113080049F064E081E00E94160684E191E00E94D0
S1130810240602C00E948300109213011092140156
S11308200BC0833449F4109213011092140181E037
S1130830809326010E940C06809126018D3009F0D8
S11308404DC060E080E00E9416068DED90E00E94AD
S1130850240660E081E00E9416068DED90E00E947F
S113086024060E949F00809112018D33A1F40E94FE
S11308706400882349F064E081E00E94160684E164
S113088091E00E94240602C00E948300109213018A
S1130890109214010895833409F5109213011092F3
S11308A0140181E0809326010C940C060E944900F7
S11308B0882349F060E081E00E94160684E191E01B
S11308C00E94240602C00E94830010921301109219
S11308D0140166CD84E0809326019BCD08950F9387
S11308E01F93CF93DF93D82F062FC42F122F60E0CE
S11308F00E945D07802F0E94D8074C2F50E0212FC3
S113090030E0440F551F440F551F811113C0FA01E5
S1130910E95DFE4FE20FF31F8081811111C04E513A
S11309205F4FDA01A20FB31F8C918093370181E0EE
S1130930808306C0495D5E4FFA01E20FF31F108207
S113094061E08D2FDF91CF911F910F910C945D0782
S113095061E08AE10E945D0761E08BE10E945D072E
S113096061E08CE10E945D0761E08DE10E945D071A
S11309701092370120E040E06CE08AE10E946F04AD
S113098021E040E06CE08BE10E946F0422E040E053
S11309906CE08CE10E946F0423E040E06CE08DE1A8
S11309A00E946F0420E041E06DE08AE10E946F0440
S11309B021E041E06DE08BE10E946F0422E041E020
S11309C06DE08CE10E946F0423E041E06DE08DE175
S11309D00E946F0420E042E06EE08AE10E946F040E
S11309E021E042E06EE08BE10E946F0422E042E0ED
S11309F06EE08CE10E946F0423E042E06EE08DE142
S1130A000E946F0420E043E06FE08AE10E946F04DB
S1130A1021E043E06FE08BE10E946F0422E043E0B9
S1130A206FE08CE10E946F0423E043E06FE08DE10E
S1130A300E946F04809137010895CF93C82F60E01E
S1130A4081E00E945D07C4FB662760F983E00E9491
S1130A505D07C5FB662760F984E00E945D07C6FB5D
S1130A60662760F985E00E945D076C2F661F662784
S1130A70661F86E00E945D0761E082E00E945D07D8
S1130A808FEC97E00197F1F700C0000060E082E08E
S1130A900E945D076C2F617083E00E945D07C1FBBB
S1130AA0662760F984E00E945D07C2FB662760F94F
S1130AB085E00E945D07C3FB662760F986E00E941B
S1130AC05D0761E082E00E945D078FEC97E001978B
S1130AD0F1F700C0000060E082E00E945D078FEC47
S1130AE097E00197F1F700C00000CF910895CF93EC
S1130AF0C82F61E081E00E945D07C4FB662760F9AE
S1130B0083E00E945D07C5FB662760F984E00E94CC
S1130B105D07C6FB662760F985E00E945D076C2FC0
S1130B20661F6627661F86E00E945D0761E082E01B
S1130B300E945D078FEC97E00197F1F700C0000079
S1130B4060E082E00E945D076C2F617083E00E9488
S1130B505D07C1FB662760F984E00E945D07C2FB64
S1130B60662760F985E00E945D07C3FB662760F98C
S1130B7086E00E945D0761E082E00E945D078FECE1
S1130B8097E00197F1F700C0000060E082E00E9466
S1130B905D078FEC97E00197F1F700C00000CF915B
S1130BA008952FE788E391E0215080409040E1F7D9
S1130BB000C0000082E20E941D0560E081E00E9406
S1130BC05D0760E085E00E945D0761E086E00E94C9
S1130BD05D0761E082E00E945D078FEC97E001977A
S1130BE0F1F700C0000060E082E00E945D078FEC36
S1130BF097E00197F1F700C000008CE00E941D050A
S1130C0081E00E941D058FEC97E00197F1F700C089
S1130C10000086E00C941D0581E00E941D058FEC08
S1130C2097E00197F1F700C000000895811102C018
S1130C30862F04C0813029F480E4860F80680C94E8
S1130C401D0508950C9477050F931F93CF938C0182
S1130C50C0E0F801EC0FF11D8081882321F00E948F
S1130C607705CF5FF6CFCF911F910F9108950F9322
S1130C701F93CF93DF93D82F162F042F0E941606AD
S1130C80C1E00C1728F080E20E947705CF5FF9CF0E
S1130C90612F8D2FDF91CF911F910F910C94160628
S1130CA00E9436010E946B01FDCF1F920F920FB676
S1130CB00F9211242F933F934F935F936F937F93DE
S1130CC08F939F93AF93BF93EF93FF93E09138017A
S1130CD0F0913901309709F00995FF91EF91BF9197
S1130CE0AF919F918F917F916F915F914F913F91C0
S1130CF02F910F900FBE0F901F901895CF93DF93F5
S1130D00E2EFF0E020EFA8EE38EF40E050E081E0C1
S1130D1090E0719171113CC0483078F4BAB3EC01A1
S1130D20042E02C0CC0FDD1F0A94E2F7BE017B2F14
S1130D30762B7ABB7BB360953EC0383068F4B7B38A
S1130D40BC01032E01C0660F0A94EAF77B2F762BB1
S1130D5077BB78B360953FC0283068F4B4B3BC0166
S1130D60022E01C0660F0A94EAF77B2F762B74BB20
S1130D7075B3609540C0B1B3BC010A2E01C0660FC3
S1130D800A94EAF77B2F762B71BB72B3609541C04E
S1130D90713009F040C0483080F4BAB3EC01042E3D
S1130DA002C0CC0FDD1F0A94E2F7BE0160957B2FD1
S1130DB076237ABB7BB3672342C0383070F4B7B371
S1130DC0BC01032E01C0660F0A94EAF760957B2FDD
S1130DD0762377BB78B3672343C0283070F4B4B369
S1130DE0BC01022E01C0660F0A94EAF760957B2FBE
S1130DF0762374BB75B3672344C0B1B3BC010A2E18
S1130E0001C0660F0A94EAF760957B2F762371BBC5
S1130E1072B3672345C0723009F043C0483088F488
S1130E20BAB3EC01042E02C0CC0FDD1F0A94E2F722
S1130E30BE017C2F70957B237ABB7BB3672B6BBB86
S1130E4030C0383078F4B7B3BC01032E01C0660F4C
S1130E500A94EAF7762F70957B2377BB78B3672BD8
S1130E6068BB1FC0283078F4B4B3BC01022E01C0A3
S1130E70660F0A94EAF7762F70957B2374BB75B3DB
S1130E80672B65BB0EC0B1B3BC010A2E01C0660F4F
S1130E900A94EAF7762F70957B2371BB72B3672BA4
S1130EA062BB4F5F5F4F3F5FAF5F2F5F40325105C3
S1130EB009F02FCFDF91CF91089561113CC08830A4
S1130EC068F44BB321E030E0B90102C0660F771F2C
S1130ED08A95E2F7CB01809584233CC038EF380F24
S1130EE0383050F428B381E090E001C0880F3A957F
S1130EF0EAF7809582233CC030EF380F383050F445
S1130F0025B381E090E001C0880F3A95EAF7809517
S1130F1082233CC08851883008F049C042B321E0A4
S1130F2030E0B90102C0660F771F8A95E2F7CB0162
S1130F30809584233BC06130D1F5883068F44BB38D
S1130F4021E030E0B90102C0660F771F8A95E2F70D
S1130F50CB01842B8BBB089528EF280F283050F445
S1130F6038B381E090E001C0880F2A95EAF7832B1B
S1130F7088BB089520EF280F283050F435B381E062
S1130F8090E001C0880F2A95EAF7832B85BB08956A
S1130F908851883060F442B321E030E0B90102C0E6
S1130FA0660F771F8A95E2F7CB01842B82BB0895E5
S1130FB0282F883010F499B316C038EF380F383022
S1130FC010F486B305C030EF380F383040F483B3E3
S1130FD090E002C0959587953A95E2F70BC02851A9
S1130FE0283050F490B3892F90E002C095958795EE
S1130FF02A95E2F78170089508951F920F920FB613
S11310000F9211242F933F934F935F936F937F938A
S11310108F939F93AF93BF93EF93FF93E0913E0120
S1131020F0913F01309709F00995FF91EF91BF913D
S1131030AF919F918F917F916F915F914F913F916C
S11310402F910F900FBE0F901F9018951F920F9223
S11310500FB60F9211242F933F934F935F936F9387
S11310607F938F939F93AF93BF93EF93FF93E091FD
S11310703C01F0913D01309709F00995FF91EF9102
S1131080BF91AF919F918F917F916F915F914F919C
S11310903F912F910F900FBE0F901F9018951F92A4
S11310A00F920FB60F9211242F933F934F935F9398
S11310B06F937F938F939F93AF93BF93EF93FF931C
S11310C0E0913A01F0913B01309709F00995FF91C5
S11310D0EF91BF91AF919F918F917F916F915F91AC
S11310E04F913F912F910F900FBE0F901F90189525
S11310F01F920F920FB60F9211242F933F934F9389
S11311005F936F937F938F939F93AF93BF93EF936B
S1131110FF93E0914001F0914101309709F0099566
S1131120FF91EF91BF91AF919F918F917F916F91BB
S11311305F914F913F912F910F900FBE0F901F9091
S113114018951F920F920FB60F9211242F933F936D
S11311504F935F936F937F938F939F93AF93BF93BB
S1131160EF93FF93E0914401F0914501309709F02A
S11311700995FF91EF91BF91AF919F918F917F91CD
S11311806F915F914F913F912F910F900FBE0F90F0
S11311901F9018951F920F920FB60F9211242F9340
S11311A03F934F935F936F937F938F939F93AF93EB
S11311B0BF93EF93FF93E0914201F0914301309785
S11311C009F00995FF91EF91BF91AF919F918F9194
S11311D07F916F915F914F913F912F910F900FBE2F
S11311E00F901F9018951F920F920FB60F92112413
S11311F02F933F934F935F936F937F938F939F931B
S1131200AF93BF93EF93FF93E0914C01F0914D01A5
S1131210309709F00995FF91EF91BF91AF919F919C
S11312208F917F916F915F914F913F912F910F908B
S11312300FBE0F901F9018951F920F920FB60F922A
S113124011242F933F934F935F936F937F938F93C7
S11312509F93AF93BF93EF93FF93E0914A01F09173
S11312604B01309709F00995FF91EF91BF91AF9130
S11312709F918F917F916F915F914F913F912F91AA
S11312800F900FBE0F901F9018951F920F920FB6DC
S11312900F9211242F933F934F935F936F937F93F8
S11312A08F939F93AF93BF93EF93FF93E091480184
S11312B0F0914901309709F00995FF91EF91BF91A1
S11312C0AF919F918F917F916F915F914F913F91DA
S11312D02F910F900FBE0F901F9018951F920F9291
S11312E00FB60F9211242F933F934F935F936F93F5
S11312F07F938F939F93AF93BF93EF93FF93E0916B
S11313004601F0914701309709F00995FF91EF915B
S1131310BF91AF919F918F917F916F915F914F9109
S11313203F912F910F900FBE0F901F9018951F9211
S11313300F920FB60F9211242F933F934F935F9305
S11313406F937F938F939F93AF93BF93EF93FF9389
S1131350E0915201F0915301309709F00995FF9102
S1131360EF91BF91AF919F918F917F916F915F9119
S11313704F913F912F910F900FBE0F901F90189592
S11313801F920F920FB60F9211242F933F934F93F6
S11313905F936F937F938F939F93AF93BF93EF93D9
S11313A0FF93E0915001F0915101309709F00995B4
S11313B0FF91EF91BF91AF919F918F917F916F9129
S11313C05F914F913F912F910F900FBE0F901F90FF
S11313D018951F920F920FB60F9211242F933F93DB
S11313E04F935F936F937F938F939F93AF93BF9329
S11313F0EF93FF93E0914E01F0914F01309709F084
S11314000995FF91EF91BF91AF919F918F917F913A
S11314106F915F914F913F912F910F900FBE0F905D
S10B14201F901895F894FFCF0A
S11314284552524F522021210050524553532041D6
S11314384E59204B4559202E2E2E0057656C636F4C
S11314486D65202121006D616465206279204769FA
S113145868616400312E43616C63756C61746F72EA
S113146800322E436F6E76657274657200636F6E18
S1131478766572742066726F6D3A00312E440032BC
S11314882E4800332E4200636F6E766572742054C2
S11314986F3A004445433A004845583A0042494E99
S11314A83A003738392F3435362A3132332D433020
S11314B83D2B0000000000000000000000000202B4
S11314C8020200000000000000000000000000000C
S10514D800000E
S9030000FC
