:100000000C9439000C9443060C946C060C949506E1
:100010000C9456000C9456000C94B4070C943907B9
:100020000C9462070C948B070C94E7060C94100751
:100030000C94BE060C94DD070C942F080C94060853
:100040000C949B040C9456000C9456000C9456008F
:100050000C9456004D044F045104530456045904A3
:100060005D046F0471047304770479047C047F04D5
:10007000810411241FBECFE5D8E0DEBFCDBF10E064
:10008000A0E6B0E0EAE5F3E102C005900D92A03CE5
:10009000B107D9F721E0A0ECB0E001C01D92A9356D
:1000A000B207E1F70E9431040C94AB090C940000F4
:1000B00010922901109228010E948A030E94920343
:1000C00060E080E00E94330380E690E00E944103FC
:1000D00066E080E00E94330385E690E00E944103E1
:1000E00080912A0190912B010E94540366E081E0E7
:1000F0000E9433038BE690E00E9441038091280127
:10010000909129010C9454030E94C501809326010B
:10011000882399F08D3311F00E943F038091C00035
:100120009091C10001969093C1008093C000FC01A2
:10013000EE53FF4F2091260120830895CF93DF9344
:100140000E94C50180932601882309F45BC01092A8
:10015000C1001092C0000E94290360E080E00E946C
:100160003303809126010E943F03E091C000F0918B
:10017000C100EE53FF4F8091260180838091C00023
:100180009091C100FC01EE53FF4F20812D3371F49B
:1001900001969093C1008093C000FC01EE53FF4F85
:1001A0001082E1E7F0E0A2ECB0E008C083369105F0
:1001B00078F784E890E00E94D003E0CF8191882313
:1001C000F9F09D919817D1F30E94290360E080E037
:1001D0000E94330385E790E00E944103C0E0D0E035
:1001E0008EE990E00E94D00380912701882321F0BE
:1001F0002196C730D105A1F7DF91CF910C94290347
:1002000010922701DF91CF9108950E94C40466E007
:1002100081E00E9436040E94EE020E9462040E9465
:1002200058000C942104CF930E9496039B01709375
:100230002B0160932A01213981E0380718F4CF910E
:100240000C945800233C314008F464C00E949D0384
:100250009093290180932801C39748F50E94860353
:100260000E94920360E080E00E94330386E890E001
:100270000E94410366E080E00E94330385E690E03F
:100280000E94410380912A0190912B010E94540306
:1002900066E081E00E9433038BE690E00E94410318
:1002A0008091280190912901CF910C945403C1E0D1
:1002B000C09327010E9486030E948E0360E080E0C5
:1002C0000E9433038BE890E00E94410366E080E0E7
:1002D0000E94330385E690E00E94410380912A0149
:1002E00090912B010E94540366E081E00E94330349
:1002F0008BE690E00E9441038091280190912901B2
:100300000E9454038EE990E00E94D003809127015F
:10031000813071F2CF9108950F931F93CF93DF93A4
:10032000D82F062FC42F122F60E00E94A305802F24
:100330000E941E064C2F50E0212F30E0440F551F25
:10034000440F551F811113C0FA01E45DFE4FE20F07
:10035000F31F8081811111C040575F4FDA01A20F56
:10036000B31F8C9180933C0181E0808306C0445D83
:100370005E4FFA01E20FF31F108261E08D2FDF91D3
:10038000CF911F910F910C94A30561E08AE10E9427
:10039000A30561E08BE10E94A30561E08CE10E946E
:1003A000A30561E08DE10E94A30510923C0120E0CD
:1003B00040E06CE08AE10E948C0121E040E06CE0CA
:1003C0008BE10E948C0122E040E06CE08CE10E9415
:1003D0008C0123E040E06CE08DE10E948C0120E084
:1003E00041E06DE08AE10E948C0121E041E06DE096
:1003F0008BE10E948C0122E041E06DE08CE10E94E3
:100400008C0123E041E06DE08DE10E948C0120E051
:1004100042E06EE08AE10E948C0121E042E06EE061
:100420008BE10E948C0122E042E06EE08CE10E94B0
:100430008C0123E042E06EE08DE10E948C0120E01F
:1004400043E06FE08AE10E948C0121E043E06FE02D
:100450008BE10E948C0122E043E06FE08CE10E947E
:100460008C0123E043E06FE08DE10E948C018091DC
:100470003C010895CF93C82F60E081E00E94A3055E
:10048000C4FB662760F983E00E94A305C5FB6627CD
:1004900060F984E00E94A305C6FB662760F985E049
:1004A0000E94A3056C2F661F6627661F86E00E94C8
:1004B000A30561E082E00E94A3058FEC97E001971D
:1004C000F1F700C0000060E082E00E94A3056C2FFD
:1004D000617083E00E94A305C1FB662760F984E098
:1004E0000E94A305C2FB662760F985E00E94A30570
:1004F000C3FB662760F986E00E94A30561E082E005
:100500000E94A3058FEC97E00197F1F700C000006F
:1005100060E082E00E94A3058FEC97E00197F1F77D
:1005200000C00000CF910895CF93C82F61E081E013
:100530000E94A305C4FB662760F983E00E94A3051F
:10054000C5FB662760F984E00E94A305C6FB662709
:1005500060F985E00E94A3056C2F661F6627661F61
:1005600086E00E94A30561E082E00E94A3058FEC73
:1005700097E00197F1F700C0000060E082E00E9480
:10058000A3056C2F617083E00E94A305C1FB662761
:1005900060F984E00E94A305C2FB662760F985E04C
:1005A0000E94A305C3FB662760F986E00E94A305AD
:1005B00061E082E00E94A3058FEC97E00197F1F7DC
:1005C00000C0000060E082E00E94A3058FEC97E08D
:1005D0000197F1F700C00000CF9108952FE788E35D
:1005E00091E0215080409040E1F700C0000082E29D
:1005F0000E943A0260E081E00E94A30560E085E08D
:100600000E94A30561E086E00E94A30561E082E00C
:100610000E94A3058FEC97E00197F1F700C000005E
:1006200060E082E00E94A3058FEC97E00197F1F76C
:1006300000C000008CE00E943A0281E00E943A0271
:100640008FEC97E00197F1F700C0000086E00C9472
:100650003A0281E00E943A028FEC97E00197F1F7AD
:1006600000C000000895811102C0862F04C08130AF
:1006700029F480E4860F80680C943A0208950C9463
:1006800094020F931F93CF938C01C0E0F801EC0FFD
:10069000F11D8081882321F00E949402CF5FF6CF64
:1006A000CF911F910F9108950F931F93CF93DF93D5
:1006B0008C0168EE73E00E948209CB01CAE0D0E0B1
:1006C000BE010E948209805D0E949402C80164E616
:1006D00070E00E948209CB01BE010E948209805D08
:1006E0000E949402C801BE010E948209182FCB010A
:1006F000BE010E948209805D0E94940280E3810F06
:10070000DF91CF911F910F910C94940261E080E1F1
:100710000C94A30560E080E10C94A30561E082E104
:100720000C94A30560E082E10C94A30580E00E9494
:100730008A04BC0180E090E0089587E00E94640490
:10074000BC0180E090E00E94870820E030E048ECA7
:1007500052E40E94150920E030E040E85AE30E948C
:1007600015090E945808CB0108950F931F93CF934A
:10077000DF938C01C0E0D0E00115110511F0F80104
:1007800009958FEC97E00197F1F700C000002196E2
:10079000C436D10589F7DF91CF911F910F9108954C
:1007A000CF93DF93EC0160E083E10E94A30560E05A
:1007B00084E10E94A30561E085E10E94A30560E059
:1007C00086E10E94A305CE010E94B50360E083E1AB
:1007D0000E94A30561E084E10E94A30560E085E139
:1007E0000E94A30560E086E10E94A305CE010E945D
:1007F000B50360E083E10E94A30560E084E10E940C
:10080000A30560E085E10E94A30561E086E10E9406
:10081000A305CE010E94B50361E083E10E94A30518
:1008200060E084E10E94A30560E085E10E94A305E9
:1008300060E086E10E94A305CE01DF91CF910C9488
:10084000B50360E083E10E94A30560E084E10E94BB
:10085000A30560E085E10E94A30560E086E10C94B9
:10086000A3050E9405010E941301FDCF813041F0D4
:1008700020F0833039F43F9A04C03F983E9802C07C
:100880003F983E9A862F90E0FC013197E730F105C2
:10089000B8F4E65DFF4F0C949609329808C0329880
:1008A00009C032980BC0329A319805C0329A3198FB
:1008B00006C0329A319A309803C0329A319A309AEF
:1008C0003D980895379A089590E088309105E0F4B6
:1008D000FC01EF5CFF4F3C983B980C9496093A98CA
:1008E00009C03A980AC03A98399A38980DC03A988F
:1008F00009C03A9A3998F9CF3A9A399804C03A9A85
:10090000F3CF3A9A399A389A369A3699FECF84B10B
:1009100095B108950E9464049C01A8E8B3E10E9487
:100920009C09DC01CB012AE0B695A79597958795A0
:100930002A95D1F708951F920F920FB60F921124A6
:100940002F933F934F935F936F937F938F939F93D7
:10095000AF93BF93EF93FF93E0913D01F0913E0180
:10096000309709F00995FF91EF91BF91AF919F9159
:100970008F917F916F915F914F913F912F910F9048
:100980000FBE0F901F901895CF93DF93E0EAF0E031
:1009900020EFA8EE38EF40E050E081E090E0719168
:1009A00071113CC0483078F4BAB3EC01042E02C097
:1009B000CC0FDD1F0A94E2F7BE017B2F762B7ABBAA
:1009C0007BB360953EC0383068F4B7B3BC01032EEA
:1009D00001C0660F0A94EAF77B2F762B77BB78B3BA
:1009E00060953FC0283068F4B4B3BC01022E01C04A
:1009F000660F0A94EAF77B2F762B74BB75B360956C
:100A000040C0B1B3BC010A2E01C0660F0A94EAF7D8
:100A10007B2F762B71BB72B3609541C0713009F0AA
:100A200040C0483080F4BAB3EC01042E02C0CC0FB1
:100A3000DD1F0A94E2F7BE0160957B2F76237ABB17
:100A40007BB3672342C0383070F4B7B3BC01032EC8
:100A500001C0660F0A94EAF760957B2F762377BB77
:100A600078B3672343C0283070F4B4B3BC01022EBE
:100A700001C0660F0A94EAF760957B2F762374BB5A
:100A800075B3672344C0B1B3BC010A2E01C0660F21
:100A90000A94EAF760957B2F762371BB72B36723C4
:100AA00045C0723009F043C0483088F4BAB3EC0155
:100AB000042E02C0CC0FDD1F0A94E2F7BE017C2F8A
:100AC00070957B237ABB7BB3672B6BBB30C0383010
:100AD00078F4B7B3BC01032E01C0660F0A94EAF79D
:100AE000762F70957B2377BB78B3672B68BB1FC0CD
:100AF000283078F4B4B3BC01022E01C0660F0A940A
:100B0000EAF7762F70957B2374BB75B3672B65BBB3
:100B10000EC0B1B3BC010A2E01C0660F0A94EAF7F9
:100B2000762F70957B2371BB72B3672B62BB4F5FCF
:100B30005F4F3F5FAF5F2F5F4032510509F02FCF0E
:100B4000DF91CF91089561113CC0883068F44BB3B8
:100B500021E030E0B90102C0660F771F8A95E2F705
:100B6000CB01809584233CC038EF380F383050F4E7
:100B700028B381E090E001C0880F3A95EAF78095AC
:100B800082233CC030EF380F383050F425B381E079
:100B900090E001C0880F3A95EAF7809582233CC027
:100BA0008851883008F049C042B321E030E0B901F3
:100BB00002C0660F771F8A95E2F7CB0180958423E8
:100BC0003BC06130D1F5883068F44BB321E030E0B0
:100BD000B90102C0660F771F8A95E2F7CB01842B1B
:100BE0008BBB089528EF280F283050F438B381E0EC
:100BF00090E001C0880F2A95EAF7832B88BB0895FF
:100C000020EF280F283050F435B381E090E001C088
:100C1000880F2A95EAF7832B85BB08958851883081
:100C200060F442B321E030E0B90102C0660F771FE3
:100C30008A95E2F7CB01842B82BB0895282F883058
:100C400010F499B316C038EF380F383010F486B36B
:100C500005C030EF380F383040F483B390E002C065
:100C6000959587953A95E2F70BC02851283050F4B6
:100C700090B3892F90E002C0959587952A95E2F769
:100C80008170089508951F920F920FB60F9211244C
:100C90002F933F934F935F936F937F938F939F9384
:100CA000AF93BF93EF93FF93E0914301F091440121
:100CB000309709F00995FF91EF91BF91AF919F9106
:100CC0008F917F916F915F914F913F912F910F90F5
:100CD0000FBE0F901F9018951F920F920FB60F9294
:100CE00011242F933F934F935F936F937F938F9331
:100CF0009F93AF93BF93EF93FF93E0914101F091E6
:100D00004201309709F00995FF91EF91BF91AF91A2
:100D10009F918F917F916F915F914F913F912F9113
:100D20000F900FBE0F901F9018951F920F920FB645
:100D30000F9211242F933F934F935F936F937F9361
:100D40008F939F93AF93BF93EF93FF93E0913F01F6
:100D5000F0914001309709F00995FF91EF91BF9113
:100D6000AF919F918F917F916F915F914F913F9143
:100D70002F910F900FBE0F901F9018951F920F92FA
:100D80000FB60F9211242F933F934F935F936F935E
:100D90007F938F939F93AF93BF93EF93FF93E091D4
:100DA0004501F0914601309709F00995FF91EF91C7
:100DB000BF91AF919F918F917F916F915F914F9173
:100DC0003F912F910F900FBE0F901F9018951F927B
:100DD0000F920FB60F9211242F933F934F935F936F
:100DE0006F937F938F939F93AF93BF93EF93FF93F3
:100DF000E0914901F0914A01309709F00995FF917E
:100E0000EF91BF91AF919F918F917F916F915F9182
:100E10004F913F912F910F900FBE0F901F901895FB
:100E20001F920F920FB60F9211242F933F934F935F
:100E30005F936F937F938F939F93AF93BF93EF9342
:100E4000FF93E0914701F0914801309709F009952F
:100E5000FF91EF91BF91AF919F918F917F916F9192
:100E60005F914F913F912F910F900FBE0F901F9068
:100E700018951F920F920FB60F9211242F933F9344
:100E80004F935F936F937F938F939F93AF93BF9392
:100E9000EF93FF93E0915101F0915201309709F0E7
:100EA0000995FF91EF91BF91AF919F918F917F91A4
:100EB0006F915F914F913F912F910F900FBE0F90C7
:100EC0001F9018951F920F920FB60F9211242F9317
:100ED0003F934F935F936F937F938F939F93AF93C2
:100EE000BF93EF93FF93E0914F01F0915001309742
:100EF00009F00995FF91EF91BF91AF919F918F916B
:100F00007F916F915F914F913F912F910F900FBE05
:100F10000F901F9018951F920F920FB60F921124E9
:100F20002F933F934F935F936F937F938F939F93F1
:100F3000AF93BF93EF93FF93E0914D01F0914E017A
:100F4000309709F00995FF91EF91BF91AF919F9173
:100F50008F917F916F915F914F913F912F910F9062
:100F60000FBE0F901F9018951F920F920FB60F9201
:100F700011242F933F934F935F936F937F938F939E
:100F80009F93AF93BF93EF93FF93E0914B01F09149
:100F90004C01309709F00995FF91EF91BF91AF9106
:100FA0009F918F917F916F915F914F913F912F9181
:100FB0000F900FBE0F901F9018951F920F920FB6B3
:100FC0000F9211242F933F934F935F936F937F93CF
:100FD0008F939F93AF93BF93EF93FF93E09157014C
:100FE000F0915801309709F00995FF91EF91BF9169
:100FF000AF919F918F917F916F915F914F913F91B1
:101000002F910F900FBE0F901F9018951F920F9267
:101010000FB60F9211242F933F934F935F936F93CB
:101020007F938F939F93AF93BF93EF93FF93E09141
:101030005501F0915601309709F00995FF91EF9114
:10104000BF91AF919F918F917F916F915F914F91E0
:101050003F912F910F900FBE0F901F9018951F92E8
:101060000F920FB60F9211242F933F934F935F93DC
:101070006F937F938F939F93AF93BF93EF93FF9360
:10108000E0915301F0915401309709F00995FF91D7
:10109000EF91BF91AF919F918F917F916F915F91F0
:1010A0004F913F912F910F900FBE0F901F90189569
:1010B0000E94F40888F09F5798F0B92F9927B751EC
:1010C000B0F0E1F0660F771F881F991F1AF0BA95EC
:1010D000C9F714C0B13091F00E940E09B1E0089533
:1010E0000C940E09672F782F8827B85F39F0B93F25
:1010F000CCF3869577956795B395D9F73EF490959F
:101100008095709561957F4F8F4F9F4F0895E8941C
:1011100009C097FB3EF490958095709561957F4F3F
:101120008F4F9F4F9923A9F0F92F96E9BB279395ED
:10113000F695879577956795B795F111F8CFFAF4FD
:10114000BB0F11F460FF1BC06F5F7F4F8F4F9F4F2E
:1011500016C0882311F096E911C0772321F09EE88C
:10116000872F762F05C0662371F096E8862F70E0F2
:1011700060E02AF09A95660F771F881FDAF7880FCC
:101180009695879597F9089597F99F6780E870E09D
:1011900060E008959FEF80EC089500240A941616ED
:1011A000170618060906089500240A941216130655
:1011B000140605060895092E0394000C11F48823E3
:1011C00052F0BB0F40F4BF2B11F460FF04C06F5FFF
:1011D0007F4F8F4F9F4F089557FD9058440F551FD5
:1011E00059F05F3F71F04795880F97FB991F61F0A9
:1011F0009F3F79F087950895121613061406551F20
:10120000F2CF4695F1DF08C0161617061806991F8B
:10121000F1CF86957105610508940895E894BB2780
:1012200066277727CB0197F908950E9428090C9427
:10123000DB080E94CD0838F00E94D40820F09523E6
:1012400011F00C94C4080C94CA0811240C940F09D2
:101250000E94EC0870F3959FC1F3950F50E0551F65
:10126000629FF001729FBB27F00DB11D639FAA27FB
:10127000F00DB11DAA1F649F6627B00DA11D661F4A
:10128000829F2227B00DA11D621F739FB00DA11D6B
:10129000621F839FA00D611D221F749F3327A00D25
:1012A000611D231F849F600D211D822F762F6A2FC1
:1012B00011249F5750409AF0F1F088234AF0EE0F26
:1012C000FF1FBB1F661F771F881F91505040A9F753
:1012D0009E3F510580F00C94C4080C940F095F3FA9
:1012E000E4F3983ED4F3869577956795B795F7958F
:1012F000E7959F5FC1F7FE2B880F911D9695879507
:1013000097F90895AA1BBB1B51E107C0AA1FBB1F79
:10131000A617B70710F0A61BB70B881F991F5A9581
:10132000A9F780959095BC01CD010895EE0FFF1FA0
:101330000590F491E02D0994A29FB001B39FC001E4
:10134000A39F700D811D1124911DB29F700D811DF1
:0A1350001124911D0895F894FFCFB9
:10135A0046696E650054656D703A00536D6F6B3A5D
:10136A00003935340057726F6E6720506173737796
:10137A006F726421210048656174004669726500D4
:10138A003738392F3435362A3132332D43303D2B15
:10139A000100000000000001000000000202020239
:1013AA000000000000000000000000000000000033
:00000001FF
