:100000000C942A000C9410030C9439030C94620392
:100010000C9447000C9447000C9481040C94060443
:100020000C942F040C9458040C94B4030C94DD032A
:100030000C948B030C94AA040C94FC040C94D3042D
:100040000C948D010C9447000C9447000C944700CD
:100050000C94470011241FBECFE5D8E0DEBFCDBF12
:1000600010E0A0E6B0E0EEE4FAE002C005900D92E8
:10007000A43AB107D9F720E0A4EAB0E001C01D928C
:10008000A03CB207E1F70E9486010C9425050C9470
:1000900000000E94B6010C942C0160E080E00E94F8
:1000A000670180E690E00E9473012FEF89E698E1F6
:1000B000215080409040E1F700C0000060E080E007
:1000C0000E9467018BE690E00E94730160E081E08E
:1000D0000E94670186E790E00E9473012FEF89E696
:1000E00098E1215080409040E1F700C00000089561
:1000F000CF93C82F60E081E00E949502C4FB662781
:1001000060F983E00E949502C5FB662760F984E0F0
:100110000E949502C6FB662760F985E00E94950261
:100120006C2F661F6627661F86E00E94950261E0BD
:1001300082E00E9495028FEC97E00197F1F700C0F2
:10014000000060E082E00E9495026C2F617083E005
:100150000E949502C1FB662760F984E00E94950227
:10016000C2FB662760F985E00E949502C3FB662703
:1001700060F986E00E94950261E082E00E949502AB
:100180008FEC97E00197F1F700C0000060E082E09B
:100190000E9495028FEC97E00197F1F700C00000F4
:1001A000CF910895CF93C82F61E081E00E9495021E
:1001B000C4FB662760F983E00E949502C5FB6627B1
:1001C00060F984E00E949502C6FB662760F985E02D
:1001D0000E9495026C2F661F6627661F86E00E94AC
:1001E000950261E082E00E9495028FEC97E0019712
:1001F000F1F700C0000060E082E00E9495026C2FE1
:10020000617083E00E949502C1FB662760F984E07B
:100210000E949502C2FB662760F985E00E94950264
:10022000C3FB662760F986E00E94950261E082E0E8
:100230000E9495028FEC97E00197F1F700C0000053
:1002400060E082E00E9495028FEC97E00197F1F761
:1002500000C00000CF9108952FE788E391E021507E
:1002600080409040E1F700C0000082E20E947800E8
:1002700060E081E00E94950260E085E00E949502C6
:1002800061E086E00E94950261E082E00E949502B2
:100290008FEC97E00197F1F700C0000060E082E08A
:1002A0000E9495028FEC97E00197F1F700C00000E3
:1002B0008EE00E94780081E00E9478008FEC97E049
:1002C0000197F1F700C0000086E00C9478008111DE
:1002D00002C0862F04C0813029F480E4860F806834
:1002E0000C94780008950F931F93CF938C01C0E076
:1002F000F801EC0FF11D8081882321F00E94D200CB
:10030000CF5FF6CFCF911F910F9108950E944900C2
:100310000E944D0080E090E008951F920F920FB66A
:100320000F9211242F933F934F935F936F937F937B
:100330008F939F93AF93BF93EF93FF93E091A400AC
:10034000F091A500309709F00995FF91EF91BF91C9
:10035000AF919F918F917F916F915F914F913F915D
:100360002F910F900FBE0F901F901895CF93DF9392
:10037000E4E8F0E020EFA8EE38EF40E050E081E064
:1003800090E0719171113CC0483078F4BAB3EC013F
:10039000042E02C0CC0FDD1F0A94E2F7BE017B2FB2
:1003A000762B7ABB7BB360953EC0383068F4B7B328
:1003B000BC01032E01C0660F0A94EAF77B2F762B4F
:1003C00077BB78B360953FC0283068F4B4B3BC0104
:1003D000022E01C0660F0A94EAF77B2F762B74BBBE
:1003E00075B3609540C0B1B3BC010A2E01C0660F61
:1003F0000A94EAF77B2F762B71BB72B3609541C0EC
:10040000713009F040C0483080F4BAB3EC01042EDA
:1004100002C0CC0FDD1F0A94E2F7BE0160957B2F6E
:1004200076237ABB7BB3672342C0383070F4B7B30E
:10043000BC01032E01C0660F0A94EAF760957B2F7A
:10044000762377BB78B3672343C0283070F4B4B306
:10045000BC01022E01C0660F0A94EAF760957B2F5B
:10046000762374BB75B3672344C0B1B3BC010A2EB5
:1004700001C0660F0A94EAF760957B2F762371BB63
:1004800072B3672345C0723009F043C0483088F426
:10049000BAB3EC01042E02C0CC0FDD1F0A94E2F7C0
:1004A000BE017C2F70957B237ABB7BB3672B6BBB24
:1004B00030C0383078F4B7B3BC01032E01C0660FEA
:1004C0000A94EAF7762F70957B2377BB78B3672B76
:1004D00068BB1FC0283078F4B4B3BC01022E01C041
:1004E000660F0A94EAF7762F70957B2374BB75B379
:1004F000672B65BB0EC0B1B3BC010A2E01C0660FED
:100500000A94EAF7762F70957B2371BB72B3672B41
:1005100062BB4F5F5F4F3F5FAF5F2F5F4032510560
:1005200009F02FCFDF91CF91089561113CC0883041
:1005300068F44BB321E030E0B90102C0660F771FC9
:100540008A95E2F7CB01809584233CC038EF380FC1
:10055000383050F428B381E090E001C0880F3A951C
:10056000EAF7809582233CC030EF380F383050F4E2
:1005700025B381E090E001C0880F3A95EAF78095B5
:1005800082233CC08851883008F049C042B321E042
:1005900030E0B90102C0660F771F8A95E2F7CB0100
:1005A000809584233BC06130D1F5883068F44BB32B
:1005B00021E030E0B90102C0660F771F8A95E2F7AB
:1005C000CB01842B8BBB089528EF280F283050F4E3
:1005D00038B381E090E001C0880F2A95EAF7832BB9
:1005E00088BB089520EF280F283050F435B381E000
:1005F00090E001C0880F2A95EAF7832B85BB089508
:100600008851883060F442B321E030E0B90102C083
:10061000660F771F8A95E2F7CB01842B82BB089582
:100620001F920F920FB60F9211242F933F934F9367
:100630005F936F937F938F939F93AF93BF93EF934A
:10064000FF93E091AA00F091AB00309709F0099573
:10065000FF91EF91BF91AF919F918F917F916F919A
:100660005F914F913F912F910F900FBE0F901F9070
:1006700018951F920F920FB60F9211242F933F934C
:100680004F935F936F937F938F939F93AF93BF939A
:10069000EF93FF93E091A800F091A900309709F043
:1006A0000995FF91EF91BF91AF919F918F917F91AC
:1006B0006F915F914F913F912F910F900FBE0F90CF
:1006C0001F9018951F920F920FB60F9211242F931F
:1006D0003F934F935F936F937F938F939F93AF93CA
:1006E000BF93EF93FF93E091A600F091A70030979E
:1006F00009F00995FF91EF91BF91AF919F918F9173
:100700007F916F915F914F913F912F910F900FBE0D
:100710000F901F9018951F920F920FB60F921124F1
:100720002F933F934F935F936F937F938F939F93F9
:10073000AF93BF93EF93FF93E091AC00F091AD00C6
:10074000309709F00995FF91EF91BF91AF919F917B
:100750008F917F916F915F914F913F912F910F906A
:100760000FBE0F901F9018951F920F920FB60F9209
:1007700011242F933F934F935F936F937F938F93A6
:100780009F93AF93BF93EF93FF93E091B000F091ED
:10079000B100309709F00995FF91EF91BF91AF91AA
:1007A0009F918F917F916F915F914F913F912F9189
:1007B0000F900FBE0F901F9018951F920F920FB6BB
:1007C0000F9211242F933F934F935F936F937F93D7
:1007D0008F939F93AF93BF93EF93FF93E091AE00FE
:1007E000F091AF00309709F00995FF91EF91BF911B
:1007F000AF919F918F917F916F915F914F913F91B9
:100800002F910F900FBE0F901F9018951F920F926F
:100810000FB60F9211242F933F934F935F936F93D3
:100820007F938F939F93AF93BF93EF93FF93E09149
:10083000B800F091B900309709F00995FF91EF9158
:10084000BF91AF919F918F917F916F915F914F91E8
:100850003F912F910F900FBE0F901F9018951F92F0
:100860000F920FB60F9211242F933F934F935F93E4
:100870006F937F938F939F93AF93BF93EF93FF9368
:10088000E091B600F091B700309709F00995FF911B
:10089000EF91BF91AF919F918F917F916F915F91F8
:1008A0004F913F912F910F900FBE0F901F90189571
:1008B0001F920F920FB60F9211242F933F934F93D5
:1008C0005F936F937F938F939F93AF93BF93EF93B8
:1008D000FF93E091B400F091B500309709F00995CD
:1008E000FF91EF91BF91AF919F918F917F916F9108
:1008F0005F914F913F912F910F900FBE0F901F90DE
:1009000018951F920F920FB60F9211242F933F93B9
:100910004F935F936F937F938F939F93AF93BF9307
:10092000EF93FF93E091B200F091B300309709F09C
:100930000995FF91EF91BF91AF919F918F917F9119
:100940006F915F914F913F912F910F900FBE0F903C
:100950001F9018951F920F920FB60F9211242F938C
:100960003F934F935F936F937F938F939F93AF9337
:10097000BF93EF93FF93E091BE00F091BF003097DB
:1009800009F00995FF91EF91BF91AF919F918F91E0
:100990007F916F915F914F913F912F910F900FBE7B
:1009A0000F901F9018951F920F920FB60F9211245F
:1009B0002F933F934F935F936F937F938F939F9367
:1009C000AF93BF93EF93FF93E091BC00F091BD0014
:1009D000309709F00995FF91EF91BF91AF919F91E9
:1009E0008F917F916F915F914F913F912F910F90D8
:1009F0000FBE0F901F9018951F920F920FB60F9277
:100A000011242F933F934F935F936F937F938F9313
:100A10009F93AF93BF93EF93FF93E091BA00F09150
:100A2000BB00309709F00995FF91EF91BF91AF910D
:100A30009F918F917F916F915F914F913F912F91F6
:0E0A40000F900FBE0F901F901895F894FFCFE7
:100A4E0057656C636F6D652021210043616C637582
:100A5E006C61746F72006D61646520627920476904
:100A6E00686164000000000000000000000000004B
:100A7E00020202020000000000000000000002025C
:040A8E000202000060
:00000001FF
