S014000061746D65676133325F4543552E7372656300
S11300000C9449000C94C2090C94EB090C94140A46
S11300100C9466000C9466000C94610C0C94E60B32
S11300200C940F0C0C94380C0C94CC0A0C94F50A18
S11300300C943D0A0C948A0C0C94DC0C0C94B30CB8
S11300400C941A080C9466000C9466000C946600D8
S11300500C946600DD07DF07E107E307E607E9071D
S1130060ED07FF0701080308070809080C080F0833
S113007011085A0B5D0B600B630B660B6F0B750B52
S1130080780B7B0B810B8A0B900B960BB10B990BA6
S1130090A50B11241FBECFE5D8E0DEBFCDBF10E015
S11300A0A0E6B0E0E4E5FEE102C005900D92AE39B1
S11300B0B107D9F720E0AEE9B0E001C01D92A23E3D
S11300C0B207E1F70E94C1070C94280F0C940000BA
S11300D00E94430863E081E00E94C6070E94F20781
S11300E043E061E082E00E94660A20E042E06EE0C4
S11300F082E00E941E0B0E943A0360E080E00E94AE
S1130100750380E690E00E94830366E080E00E942D
S1130110750384E690E00E9483036CE080E00E9413
S1130120750389E690E00C9483038F929F92AF92BB
S1130130BF92CF92DF92EF92FF920F931F93CF93D0
S1130140DF9300D000D01F92CDB7DEB70E940A041F
S11301509091AF00891721F08093B0008093AF0095
S11301608091AB009091AC002091AD003091AE0035
S11301708217930749F08536910530F48093B000D7
S11301809093AE008093AD008091B0000E94E10393
S113019060E081E00E9475038091B00090E00E94CD
S11301A096030E940A04182F8091A600181781F064
S11301B0612F70E080E090E00E94130E6093A7002E
S11301C07093A8008093A9009093AA001093A600AE
S11301D00091A2001091A3008091A4009091A50029
S11301E008171907F1F0063A8FEF1807D4F0809139
S11301F0AB009091AC008B3591059CF4B801012EB5
S1130200000C880B990B0E94150E6093A700709345
S1130210A8008093A9009093AA001093A5000093CE
S1130220A4006091A7007091A8008091A90090910A
S1130230AA000E94220466E081E00E947503609196
S1130240A7007091A8008091A9009091AA000E9433
S1130250E40DCB010E94960360919E0070919F0073
S11302608091A0009091A1006817790751F07093D4
S1130270A1006093A000072E000C880B990B0E942C
S113028043046CE081E00E94750380919E0090918C
S11302909F000E9496030E941102B82EFE0131961F
S11302A06F0185E011928A95E9F78FEC8B0D83300D
S11302B008F06CC0F1E3BF1203C044E060E007C083
S11302C082E344E0B81202C066E001C06CE081E061
S11302D00E94C803E12CF12C00E08AE0A82E46011C
S11302E0800E911CF40180818D3381F10E941102F2
S11302F0182F882331F1F4018083043091F00E9497
S1130300810380ED810F8A3060F4AE9C9001AF9C34
S1130310300D1124812F90E0C0977C01E20EF31E72
S113032004C01D3371F0133411F00F5F0AC044E0B0
S113033060E081E00E94C8031A821B821C821D8235
S113034000E08981833411F0053048F2F601E00FB2
S1130350F11D80818D33D1F489818D3219F4F194AA
S1130360E194F108F1E3BF1205C0F092AC00E09211
S1130370AB000CC082E3B81205C0F092A300E09277
S1130380A20004C0F0929F00E0929E000F900F9094
S11303900F900F900F90DF91CF911F910F91FF90CD
S11303A0EF90DF90CF90BF90AF909F908F90089583
S11303B00F931F93CF93DF93D82F062FC42F122FA1
S11303C060E00E942209802F0E949D094C2F50E07A
S11303D0212F30E0440F551F440F551F811113C0C6
S11303E0FA01EF54FF4FE20FF31F8081811111C016
S11303F042595F4FDA01A20FB31F8C918093C10061
S113040081E0808306C04F545F4FFA01E20FF31F6F
S1130410108261E08D2FDF91CF911F910F910C9489
S1130420220961E08AE10E94220961E08BE10E94D5
S1130430220961E08CE10E94220961E088E10E94C6
S113044022091092C10020E040E06CE08AE10E94A1
S1130450D80121E040E06CE08BE10E94D80122E069
S113046040E06CE08CE10E94D80123E040E06CE0C5
S113047088E10E94D80120E041E06DE08AE10E9419
S1130480D80121E041E06DE08BE10E94D80122E037
S113049041E06DE08CE10E94D80123E041E06DE091
S11304A088E10E94D80120E042E06EE08AE10E94E7
S11304B0D80121E042E06EE08BE10E94D80122E005
S11304C042E06EE08CE10E94D80123E042E06EE05D
S11304D088E10E94D80120E043E06FE08AE10E94B5
S11304E0D80121E043E06FE08BE10E94D80122E0D3
S11304F043E06FE08CE10E94D80123E043E06FE029
S113050088E10E94D8018091C1000895CF93C82F3B
S113051060E081E00E942209C4FB662760F983E061
S11305200E942209C5FB662760F984E00E94220923
S1130530C6FB662760F985E00E9422096C2F661FBE
S11305406627661F86E00E94220961E082E00E941D
S113055022098FEC97E00197F1F700C0000060E0FA
S113056082E00E9422096C2F617083E00E942209BC
S1130570C1FB662760F984E00E942209C2FB66275A
S113058060F985E00E942209C3FB662760F986E0D2
S11305900E94220961E082E00E9422098FEC97E028
S11305A00197F1F700C0000060E082E00E94220998
S11305B08FEC97E00197F1F700C00000CF91089508
S11305C0CF93C82F61E081E00E942209C4FB662713
S11305D060F983E00E942209C5FB662760F984E084
S11305E00E942209C6FB662760F985E00E94220961
S11305F06C2F661F6627661F86E00E94220961E051
S113060082E00E9422098FEC97E00197F1F700C085
S1130610000060E082E00E9422096C2F617083E098
S11306200E942209C1FB662760F984E00E94220926
S1130630C2FB662760F985E00E942209C3FB662796
S113064060F986E00E94220961E082E00E942209AA
S11306508FEC97E00197F1F700C0000060E082E0C2
S11306600E9422098FEC97E00197F1F700C0000087
S1130670CF9108952FE788E391E021508040904086
S1130680E1F700C0000082E20E94860260E081E09F
S11306900E94220960E085E00E94220961E086E070
S11306A00E94220961E082E00E9422098FEC97E017
S11306B00197F1F700C0000060E082E00E94220987
S11306C08FEC97E00197F1F700C000008CE00E94E6
S11306D0860281E00E9486028FEC97E00197F1F791
S11306E000C0000086E00C948602811102C0862FAF
S11306F004C0813029F480E4860F80680C9486025B
S113070008950C94E0020F931F93CF938C01C0E0E3
S1130710F801EC0FF11D8081882321F00E94E00292
S1130720CF5FF6CFCF911F910F9108950F931F9331
S1130730CF93DF938C0168EE73E00E940E0FCB0120
S1130740CAE0D0E0BE010E940E0F805D0E94E0026C
S1130750C80164E670E00E940E0FCB01BE010E9446
S11307600E0F805D0E94E002C801BE010E940E0FC0
S1130770182FCB01BE010E940E0F805D0E94E00283
S113078080E3810FDF91CF911F910F910C94E002D0
S11307900F931F93CF93DF93D82F162F042F0E940C
S11307A07503C1E00C1728F080E20E94E002CF5FDD
S11307B0F9CF612F8D2FDF91CF911F910F910C9461
S11307C07503CF93C82F61E086E10E94220960E09F
S11307D087E10E9422096C2F70E080E090E00E9483
S11307E0150E20E030E048EC52E40E94720D9B01AB
S11307F0AC0160E070E080E89FE30E94050D20E01A
S113080030E04FE753E40E94A10E0E94E40D6CBF58
S1130810CF91089580E00E94F407BC0180E090E04D
S11308200E94130E20E030E048EC52E40E94A10E36
S113083020E030EC4FE754E40E94720D0E94E40D76
S1130840862F089520E030E044EB52E40E94060D28
S113085020E030E044E353E40E94720D20E030E0F5
S11308604AE754E40E94A10E20E030EC49E754E446
S11308700E94060D0E94E40D20E23EE437BD26BD31
S11308807BBD6ABD08959F92AF92BF92CF92DF92D3
S1130890EF92FF920F931F93CF93DF936B017C0131
S11308A08091C400F7FCB4C181110AC081E0809337
S11308B0C3008093C2008093C4008093C50007C026
S11308C08091C3008093C20081E08093C300809133
S11308D0C20081110FC08091C500863011F488E0F8
S11308E007C0853011F487E003C0843071F486E0DA
S11308F08093C500C8E0D2E013E004E035E0B32EF5
S113090046E0A42E57E0952E3BC0833011F485E0D9
S1130910EFCF823011F484E0EBCF813011F483E027
S1130920E7CF883011F482E0E3CF873019F781E014
S1130930DFCF8091C500813051F18091C5008230B4
S113094009F44DC08091C500833009F470C08091D2
S1130950C500843009F493C08091C500853009F442
S1130960B6C08091C500863009F4D9C08091C50015
S1130970873009F4FCC08091C500883009F41FC198
S113098085E0C816D104E104F1049CF6EEC260E0EF
S113099080E10E94220960E081E10E94220960E076
S11309A082E10E94220961E083E10E9422092FE78B
S11309B088E391E0215080409040E1F700C00000BE
S11309C0D093C50025E0C21AD108E108F10885E0FA
S11309D0C816D104E104F1040CF0AFCFC6C260E044
S11309E080E10E94220960E081E10E94220961E025
S11309F082E10E94220961E083E10E9422099FE7CB
S1130A0028E381E0915020408040E1F700C00000DD
S1130A101093C50095E0C91AD108E108F10825E052
S1130A20C216D104E104F1040CF08CCF9EC260E044
S1130A3080E10E94220960E081E10E94220961E0D4
S1130A4082E10E94220960E083E10E9422098FE78B
S1130A5098E321E0815090402040E1F700C000007D
S1130A600093C50085E0C81AD108E108F10895E0B3
S1130A70C916D104E104F1040CF069CF76C260E038
S1130A8080E10E94220961E081E10E94220961E083
S1130A9082E10E94220960E083E10E9422092FE79B
S1130AA088E391E0215080409040E1F700C00000CD
S1130AB0B092C50025E0C21AD108E108F10885E02A
S1130AC0C816D104E104F1040CF046CF4EC260E034
S1130AD080E10E94220961E081E10E94220960E034
S1130AE082E10E94220960E083E10E9422099FE7DB
S1130AF028E381E0915020408040E1F700C00000ED
S1130B00A092C50095E0C91AD108E108F10825E0D2
S1130B10C216D104E104F1040CF023CF26C261E033
S1130B2080E10E94220961E081E10E94220960E0E3
S1130B3082E10E94220960E083E10E9422098FE79A
S1130B4098E321E0815090402040E1F700C000008C
S1130B509092C50085E0C81AD108E108F10895E033
S1130B60C916D104E104F1040CF000CFFEC161E028
S1130B7080E10E94220960E081E10E94220960E094
S1130B8082E10E94220960E083E10E9422092FE7AA
S1130B9088E391E0215080409040E1F700C00000DC
S1130BA0C093C50025E0C21AD108E108F10885E028
S1130BB0C816D104E104F1040CF0DDCED6C161E025
S1130BC080E10E94220960E081E10E94220960E044
S1130BD082E10E94220961E083E10E9422099FE7E9
S1130BE028E381E0915020408040E1F700C00000FC
S1130BF081E08093C50095E0C91AD108E108F108A5
S1130C0025E0C216D104E104F1040CF0B9CEADC163
S1130C1081110BC01092C3001092C20081E0809336
S1130C20C40087E08093C50006C08091C300809310
S1130C30C2001092C3009091C200913021F58091BE
S1130C40C500823011F488E01CC0833019F49093FD
S1130C50C50019C0843011F482E013C0853011F44A
S1130C6083E00FC0863011F484E00BC0873011F4A8
S1130C7085E007C0883011F486E003C0813019F4A0
S1130C8087E08093C500F094E094D094C094C11C94
S1130C90D11CE11CF11CC6E0D5E014E003E082E0C5
S1130CA0B82E98E0A92E27E0922E25E0C216D10492
S1130CB0E104F1040CF459C18091C500873039F581
S1130CC061E080E10E94220960E081E10E94220942
S1130CD060E082E10E94220960E083E10E9422092F
S1130CE09FE728E381E0915020408040E1F700C075
S1130CF00000C093C50095E0C91AD108E108F108C5
S1130D0025E0C216D104E104F1040CF42EC1809153
S1130D10C500863039F561E080E10E94220961E076
S1130D2081E10E94220960E082E10E94220960E0E0
S1130D3083E10E9422098FE798E321E081509040EB
S1130D402040E1F700C00000D093C50085E0C81A38
S1130D50D108E108F10895E0C916D104E104F104D1
S1130D600CF403C18091C500853039F560E080E161
S1130D700E94220961E081E10E94220960E082E18F
S1130D800E94220960E083E10E9422092FE788E3A0
S1130D9091E0215080409040E1F700C000001093A2
S1130DA0C50025E0C21AD108E108F10885E0C8169B
S1130DB0D104E104F1040CF4D8C08091C50084305E
S1130DC039F560E080E10E94220961E081E10E943E
S1130DD0220961E082E10E94220960E083E10E942D
S1130DE022099FE728E381E0915020408040E1F709
S1130DF000C000000093C50095E0C91AD108E108BD
S1130E00F10825E0C216D104E104F1040CF4ADC0EC
S1130E108091C500833039F560E080E10E942209A9
S1130E2060E081E10E94220961E082E10E942209DE
S1130E3060E083E10E9422098FE798E321E081507A
S1130E4090402040E1F700C00000B092C50085E06A
S1130E50C81AD108E108F10895E0C916D104E104E3
S1130E60F1040CF482C08091C500823041F560E049
S1130E7080E10E94220960E081E10E94220961E090
S1130E8082E10E94220961E083E10E9422092FE7A6
S1130E9088E391E0215080409040E1F700C00000D9
S1130EA081E08093C50025E0C21AD108E108F10869
S1130EB085E0C816D104E104F1040CF456C0809115
S1130EC0C500813031F560E080E10E94220960E0D4
S1130ED081E10E94220960E082E10E94220961E02E
S1130EE083E10E9422099FE728E381E0915020409A
S1130EF08040E1F700C00000A092C50095E0C91A47
S1130F00D108E108F10825E0C216D104E104F10496
S1130F1064F18091C500883009F0C7CE61E080E1BA
S1130F200E94220960E081E10E94220960E082E1DE
S1130F300E94220961E083E10E9422098FE798E37D
S1130F4021E0815090402040E1F700C000009092E1
S1130F50C50085E0C81AD108E108F10895E0C91672
S1130F60D104E104F1040CF0A0CEDF91CF911F91E4
S1130F700F91FF90EF90DF90CF90BF90AF909F9034
S1130F8008950E9468000E949500FDCF813041F0D1
S1130F9020F0833039F43F9A04C03F983E9802C051
S1130FA03F983E9A862F90E0FC013197E730F10597
S1130FB0B8F4E65DFF4F0C94220F329808C03298C3
S1130FC009C032980BC0329A319805C0329A3198D0
S1130FD006C0329A319A309803C0329A319A309AC4
S1130FE03D980895379A089590E088309105E0F48B
S1130FF0FC01EF5CFF4F3C983B980C94220F3A980D
S113100009C03A980AC03A98399A38980DC03A9863
S113101009C03A9A3998F9CF3A9A399804C03A9A59
S1131020F3CF3A9A399A389A369A3699FECF84B1E0
S113103095B108951F920F920FB60F9211242F931A
S11310403F934F935F936F937F938F939F93AF934C
S1131050BF93EF93FF93E091C600F091C7003097E0
S113106009F00995FF91EF91BF91AF919F918F91F5
S11310707F916F915F914F913F912F910F900FBE90
S11310800F901F901895CF93DF93EEE7F0E020EFD9
S1131090A8EE38EF40E050E081E090E071917111EA
S11310A03CC0483078F4BAB3EC01042E02C0CC0F33
S11310B0DD1F0A94E2F7BE017B2F762B7ABB7BB34C
S11310C060953EC0383068F4B7B3BC01032E01C04C
S11310D0660F0A94EAF77B2F762B77BB78B360957B
S11310E03FC0283068F4B4B3BC01022E01C0660FBF
S11310F00A94EAF77B2F762B74BB75B3609540C0D6
S1131100B1B3BC010A2E01C0660F0A94EAF77B2F23
S1131110762B71BB72B3609541C0713009F040C049
S1131120483080F4BAB3EC01042E02C0CC0FDD1FAA
S11311300A94E2F7BE0160957B2F76237ABB7BB3DA
S1131140672342C0383070F4B7B3BC01032E01C02A
S1131150660F0A94EAF760957B2F762377BB78B302
S1131160672343C0283070F4B4B3BC01022E01C01D
S1131170660F0A94EAF760957B2F762374BB75B3E8
S1131180672344C0B1B3BC010A2E01C0660F0A94A0
S1131190EAF760957B2F762371BB72B3672345C052
S11311A0723009F043C0483088F4BAB3EC01042E1D
S11311B002C0CC0FDD1F0A94E2F7BE017C2F7095AC
S11311C07B237ABB7BB3672B6BBB30C0383078F49E
S11311D0B7B3BC01032E01C0660F0A94EAF7762F59
S11311E070957B2377BB78B3672B68BB1FC028300F
S11311F078F4B4B3BC01022E01C0660F0A94EAF776
S1131200762F70957B2374BB75B3672B65BB0EC0BB
S1131210B1B3BC010A2E01C0660F0A94EAF7762F17
S113122070957B2371BB72B3672B62BB4F5F5F4FBB
S11312303F5FAF5F2F5F4032510509F02FCFDF9141
S1131240CF91089561113CC0883068F44BB321E01C
S113125030E0B90102C0660F771F8A95E2F7CB012F
S1131260809584233CC038EF380F383050F428B3CD
S113127081E090E001C0880F3A95EAF780958223D7
S11312803CC030EF380F383050F425B381E090E0A3
S113129001C0880F3A95EAF7809582233CC08851B3
S11312A0883008F049C042B321E030E0B90102C0FF
S11312B0660F771F8A95E2F7CB01809584233BC0A4
S11312C06130D1F5883068F44BB321E030E0B901E6
S11312D002C0660F771F8A95E2F7CB01842B8BBB84
S11312E0089528EF280F283050F438B381E090E0B7
S11312F001C0880F2A95EAF7832B88BB089520EF55
S1131300280F283050F435B381E090E001C0880FF5
S11313102A95EAF7832B85BB08958851883060F4B9
S113132042B321E030E0B90102C0660F771F8A950D
S1131330E2F7CB01842B82BB0895282F883010F468
S113134099B316C038EF380F383010F486B305C09F
S113135030EF380F383040F483B390E002C09595F5
S113136087953A95E2F70BC02851283050F490B392
S1131370892F90E002C0959587952A95E2F78170B0
S1131380089508951F920F920FB60F9211242F9370
S11313903F934F935F936F937F938F939F93AF93F9
S11313A0BF93EF93FF93E091CC00F091CD00309781
S11313B009F00995FF91EF91BF91AF919F918F91A2
S11313C07F916F915F914F913F912F910F900FBE3D
S11313D00F901F9018951F920F920FB60F92112421
S11313E02F933F934F935F936F937F938F939F9329
S11313F0AF93BF93EF93FF93E091CA00F091CB00BA
S1131400309709F00995FF91EF91BF91AF919F91AA
S11314108F917F916F915F914F913F912F910F9099
S11314200FBE0F901F9018951F920F920FB60F9238
S113143011242F933F934F935F936F937F938F93D5
S11314409F93AF93BF93EF93FF93E091C800F09104
S1131450C900309709F00995FF91EF91BF91AF91C1
S11314609F918F917F916F915F914F913F912F91B8
S11314700F900FBE0F901F9018951F920F920FB6EA
S11314800F9211242F933F934F935F936F937F9306
S11314908F939F93AF93BF93EF93FF93E091CE000D
S11314A0F091CF00309709F00995FF91EF91BF912A
S11314B0AF919F918F917F916F915F914F913F91E8
S11314C02F910F900FBE0F901F901895823099F0B6
S11314D038F4882369F0813051F583B78B7F20C0BD
S11314E08430A9F070F0853011F583B7846018C09A
S11314F083B78B7F0EC083B78B7F83BF83B7826034
S11315000BC083B78B7F83BF83B782600CC083B764
S1131510846083BF83B78D7F83BF83B78E7F06C00C
S113152083BF83B78D7F83BF83B7816083BF6130FF
S113153059F038F0623059F0633099F483B7886019
S11315400CC083B7877F05C083B7877F06C083B786
S1131550886083BF83B78F7B03C083BF83B78064F6
S113156083BF413049F028F0423049F0433069F0FC
S1131570089583B78F7D05C083B78F7D08C083B777
S1131580806283BF83B78F7E05C083B7806283BFC9
S113159083B7806183BF08951F920F920FB60F9295
S11315A011242F933F934F935F936F937F938F9364
S11315B09F93AF93BF93EF93FF93E091D200F09189
S11315C0D300309709F00995FF91EF91BF91AF9146
S11315D09F918F917F916F915F914F913F912F9147
S11315E00F900FBE0F901F9018951F920F920FB679
S11315F00F9211242F933F934F935F936F937F9395
S11316008F939F93AF93BF93EF93FF93E091D00099
S1131610F091D100309709F00995FF91EF91BF91B6
S1131620AF919F918F917F916F915F914F913F9176
S11316302F910F900FBE0F901F901895823099F044
S113164038F4882369F0813051F58EB58B7F20C042
S11316508430A9F070F0853011F58EB5846018C01F
S11316608EB58B7F0EC08EB58B7F8EBD8EB582609E
S11316700BC08EB58B7F8EBD8EB582600CC08EB5CF
S113168084608EBD8EB58D7F8EBD8EB58E7F06C077
S11316908EBD8EB58D7F8EBD8EB581608EBD862F3D
S11316A090E08031910508F05CC0FC01E75CFF4FDD
S11316B00C94220F8EB58F7E20C08EB58F7E23C0F2
S11316C08EB58F7E29C08EB58F7E2CC08EB58F7E51
S11316D08EBD8EB588608EBD8FB58D7F32C08EB5C0
S11316E08F7E8EBD8EB5886011C08EB58F7E23C06F
S11316F08EB58F7E2CC08EB580618EBD8EB5877FF2
S1131700EACF8EB580618EBD8EB5877F8EBD8FB5D5
S11317108D7F23C08EB580618EBD8EB5877F0EC050
S11317208EB580618EBD8EB5877F14C08EB5806105
S1131730CFCF8EB580618EBD8EB588608EBD8FB5DE
S113174082608FBD8FB58E7F0BC08EB580618EBDDC
S11317508EB588608EBD8FB582608FBD8FB5816078
S11317608FBD413059F038F0423059F0433099F48C
S11317708FB580680CC08FB58F7705C08FB58F7714
S113178006C08FB580688FBD8FB58F7B03C08FBDBA
S11317908FB580648FBD213049F028F0223049F0A4
S11317A0233069F008958FB58F7D05C08FB58F7D87
S11317B008C08FB580628FBD8FB58F7E05C08FB591
S11317C080628FBD8FB580618FBD08951F920F9287
S11317D00FB60F9211242F933F934F935F936F9300
S11317E07F938F939F93AF93BF93EF93FF93E09176
S11317F0DA00F091DB00309709F00995FF91EF9141
S1131800BF91AF919F918F917F916F915F914F9114
S11318103F912F910F900FBE0F901F9018951F921C
S11318200F920FB60F9211242F933F934F935F9310
S11318306F937F938F939F93AF93BF93EF93FF9394
S1131840E091D800F091D900309709F00995FF9103
S1131850EF91BF91AF919F918F917F916F915F9124
S11318604F913F912F910F900FBE0F901F9018959D
S11318701F920F920FB60F9211242F933F934F9301
S11318805F936F937F938F939F93AF93BF93EF93E4
S1131890FF93E091D600F091D700309709F00995B5
S11318A0FF91EF91BF91AF919F918F917F916F9134
S11318B05F914F913F912F910F900FBE0F901F900A
S11318C018951F920F920FB60F9211242F933F93E6
S11318D04F935F936F937F938F939F93AF93BF9334
S11318E0EF93FF93E091D400F091D500309709F085
S11318F00995FF91EF91BF91AF919F918F917F9146
S11319006F915F914F913F912F910F900FBE0F9068
S11319101F9018951F920F920FB60F9211242F93B8
S11319203F934F935F936F937F938F939F93AF9363
S1131930BF93EF93FF93E091E000F091E1003097C3
S113194009F00995FF91EF91BF91AF919F918F910C
S11319507F916F915F914F913F912F910F900FBEA7
S11319600F901F9018951F920F920FB60F9211248B
S11319702F933F934F935F936F937F938F939F9393
S1131980AF93BF93EF93FF93E091DE00F091DF00FC
S1131990309709F00995FF91EF91BF91AF919F9115
S11319A08F917F916F915F914F913F912F910F9004
S11319B00FBE0F901F9018951F920F920FB60F92A3
S11319C011242F933F934F935F936F937F938F9340
S11319D09F93AF93BF93EF93FF93E091DC00F0915B
S11319E0DD00309709F00995FF91EF91BF91AF9118
S11319F09F918F917F916F915F914F913F912F9123
S1131A000F900FBE0F901F9018955058BB27AA2710
S1131A100E941D0D0C94670E0E94590E38F00E940E
S1131A20600E20F039F49F3F19F426F40C94560EFE
S1131A300EF4E095E7FB0C94500EE92F0E94780E0B
S1131A4058F3BA17620773078407950720F079F4EF
S1131A50A6F50C949A0E0EF4E0950B2EBA2FA02D39
S1131A600B01B90190010C01CA01A0011124FF2747
S1131A70591B99F0593F50F4503E68F11A16F04042
S1131A80A22F232F342F4427585FF3CF4695379541
S1131A902795A795F0405395C9F77EF41F16BA0B06
S1131AA0620B730B840BBAF09150A1F0FF0FBB1FB4
S1131AB0661F771F881FC2F70EC0BA0F621F731FFD
S1131AC0841F48F4879577956795B795F7959E3F5A
S1131AD008F0B0CF9395880F08F09927EE0F9795EB
S1131AE0879508950E94860D0C94670E0E94600EDF
S1131AF058F00E94590E40F029F45F3F29F00C94ED
S1131B00500E51110C949B0E0C94560E0E94780E9C
S1131B1068F39923B1F3552391F3951B550BBB2718
S1131B20AA2762177307840738F09F5F5F4F220F5D
S1131B30331F441FAA1FA9F335D00E2E3AF0E0E854
S1131B4032D091505040E695001CCAF72BD0FE2F9E
S1131B5029D0660F771F881FBB1F26173707480732
S1131B60AB07B0E809F0BB0B802DBF01FF279358EA
S1131B705F4F3AF09E3F510578F00C94500E0C9450
S1131B809B0E5F3FE4F3983ED4F386957795679573
S1131B90B795F7959F5FC9F7880F911D969587951F
S1131BA097F90895E1E0660F771F881FBB1F62173E
S1131BB073078407BA0720F0621B730B840BBA0BFC
S1131BC0EE1F88F7E09508950E94800E88F09F57D5
S1131BD098F0B92F9927B751B0F0E1F0660F771F4D
S1131BE0881F991F1AF0BA95C9F714C0B13091F043
S1131BF00E949A0EB1E008950C949A0E672F782FE4
S1131C008827B85F39F0B93FCCF386957795679507
S1131C10B395D9F73EF490958095709561957F4F73
S1131C208F4F9F4F0895E89409C097FB3EF4909519
S1131C308095709561957F4F8F4F9F4F9923A9F0A1
S1131C40F92F96E9BB279395F69587957795679530
S1131C50B795F111F8CFFAF4BB0F11F460FF1BC074
S1131C606F5F7F4F8F4F9F4F16C0882311F096E907
S1131C7011C0772321F09EE8872F762F05C06623B5
S1131C8071F096E8862F70E060E02AF09A95660F6E
S1131C90771F881FDAF7880F9695879597F9089527
S1131CA097F99F6780E870E060E008959FEF80EC0B
S1131CB0089500240A9416161706180609060895AE
S1131CC000240A9412161306140605060895092E14
S1131CD00394000C11F4882352F0BB0F40F4BF2B83
S1131CE011F460FF04C06F5F7F4F8F4F9F4F0895C3
S1131CF057FD9058440F551F59F05F3F71F04795B9
S1131D00880F97FB991F61F09F3F79F0879508959D
S1131D10121613061406551FF2CF4695F1DF08C0BC
S1131D20161617061806991FF1CF869571056105D9
S1131D3008940895E894BB2766277727CB0197F981
S1131D4008950E94B40E0C94670E0E94590E38F048
S1131D500E94600E20F0952311F00C94500E0C9408
S1131D60560E11240C949B0E0E94780E70F3959FCE
S1131D70C1F3950F50E0551F629FF001729FBB277E
S1131D80F00DB11D639FAA27F00DB11DAA1F649F1A
S1131D906627B00DA11D661F829F2227B00DA11DCD
S1131DA0621F739FB00DA11D621F839FA00D611D53
S1131DB0221F749F3327A00D611D231F849F600D74
S1131DC0211D822F762F6A2F11249F5750409AF09D
S1131DD0F1F088234AF0EE0FFF1FBB1F661F771F29
S1131DE0881F91505040A9F79E3F510580F00C94F4
S1131DF0500E0C949B0E5F3FE4F3983ED4F386950B
S1131E0077956795B795F795E7959F5FC1F7FE2B93
S1131E10880F911D9695879597F90895AA1BBB1B6A
S1131E2051E107C0AA1FBB1FA617B70710F0A61BD6
S1131E30B70B881F991F5A95A9F780959095BC01F7
S1131E40CD010895EE0FFF1F0590F491E02D099444
S1071E50F894FFCF30
S1131E5444432E005345522E005354452E00373824
S1131E64392F3435362A3132332D43303D2B01009A
S1131E740000000000010000000002020202000051
S1111E8400000000000000000000000000004C
S9030000FC
