:100000000C942A000C9478040C949F040C94C6045D
:100010000C9447000C9447000C941F060C94AA05FE
:100020000C94D1050C94F8050C945C050C94830594
:100030000C9447000C9447000C9447000C94470024
:100040000C94E7020C9447000C9447000C94470072
:100050000C94470011241FBECFE5D8E0DEBFCDBF12
:1000600010E0A0E6B0E0E4E4F1E102C005900D92FA
:10007000A039B107D9F720E0A0E9B0E001C01D9296
:10008000A63BB207E1F70E947A020C94A0080C94F8
:100090000000CF93C82F60E089E10E94ED03C4FB0C
:1000A000662760F984E10E94ED03C5FB662760F9CD
:1000B00085E10E94ED03C6FB662760F986E10E9498
:1000C000ED036C2F661F6627661F87E10E94ED0314
:1000D00061E088E10E94ED038FEC97E00197F1F772
:1000E00000C0000060E088E10E94ED036C2F6170A9
:1000F00084E10E94ED03C1FB662760F985E10E945F
:10010000ED03C2FB662760F986E10E94ED03C3FBA5
:10011000662760F987E10E94ED0361E088E10E94B3
:10012000ED038FEC97E00197F1F700C0000060E06D
:1001300088E10E94ED038FEC97E00197F1F700C092
:100140000000CF910895CF93C82F61E089E10E940C
:10015000ED03C4FB662760F984E10E94ED03C5FB53
:10016000662760F985E10E94ED03C6FB662760F90A
:1001700086E10E94ED036C2F661F6627661F87E1EC
:100180000E94ED0361E088E10E94ED038FEC97E0AF
:100190000197F1F700C0000060E088E10E94ED03E4
:1001A0006C2F617084E10E94ED03C1FB662760F94A
:1001B00085E10E94ED03C2FB662760F986E10E949B
:1001C000ED03C3FB662760F987E10E94ED0361E060
:1001D00088E10E94ED038FEC97E00197F1F700C0F2
:1001E000000060E088E10E94ED038FEC97E001974A
:1001F000F1F700C00000CF9108952FE788E391E068
:10020000215080409040E1F700C0000082E20E944F
:10021000490060E089E10E94ED0360E086E10E9410
:10022000ED0361E087E10E94ED0361E088E10E9457
:10023000ED038FEC97E00197F1F700C0000060E05C
:1002400088E10E94ED038FEC97E00197F1F700C081
:1002500000008EE00E94490081E00E9449008FEC7E
:1002600097E00197F1F700C0000086E00C94490088
:10027000811102C0862F04C0813029F480E4860FEA
:1002800080680C94490008958F929F92AF92BF921C
:10029000CF92DF92EF92FF92CF93611571058105A6
:1002A000910561F480E3CF91FF90EF90DF90CF90C4
:1002B000BF90AF909F908F900C94A3006B017C0136
:1002C00097FF0AC08DE20E94A30066277727CB0123
:1002D0006C197D098E099F090E94F0066B017C0153
:1002E000C0E020E030E040E85FE3C701B6010E94D3
:1002F000DE0787FD0CC020E030E040E251E4C7019A
:10030000B6010E9446066B017C01CF5FEACF8AE00E
:10031000882E912CA12CB12CCC23B1F020E030E020
:1003200040E251E4C701B6010E94E3076B017C0182
:100330000E94BF06A50194010E94500880E3860F29
:100340000E94A300C150E8CFCF91FF90EF90DF90C3
:10035000CF90BF90AF909F908F900895AF92CF9223
:10036000EF920F931F93CF93DF93C82F862F142FF5
:10037000D22F6C2F61700E94ED03C1FB662760F9DC
:10038000812F0E94ED03C2FB662760F98D2F0E942A
:10039000ED03C3FB662760F9802F0E94ED03C4FBC9
:1003A000662760F98E2D0E94ED03C5FB662760F974
:1003B0008C2D0E94ED03C6FB662760F98A2DDF9124
:1003C000CF911F910F91EF90CF90AF900C94ED03D0
:1003D000AF92CF92EF920F93803180F4E82FF0E04C
:1003E000E05AFF4F3EE0A32E4DE0C42E5CE0E52E28
:1003F0000BE02AE049E068E080810BC08EE0A82E87
:100400009DE0C92E2CE0E22E0BE02AE049E068E0F6
:1004100080E00E94AE010F91EF90CF90AF900895D1
:1004200020919A0030919B0040919C0050919D003A
:1004300060919E0070919F008091A0009091A1001A
:10044000A1E00E94940820939A0030939B0040936F
:100450009C0050939D0060939E0070939F0080933A
:10046000A0009093A100089580919000811118C080
:1004700012BE10929A0010929B0010929C00109253
:100480009D0010929E0010929F001092A00010926A
:10049000A10061E00E94ED0381E080939000089547
:1004A00082B78093990080919A0080939100809107
:1004B0009B008093920080919C0080939300809198
:1004C0009D008093940080919E0080939500809180
:1004D0009F00809396008091A00080939700809168
:1004E000A1008093980060E080E00E94ED031092EC
:1004F000900008950E940E0381E00E94680440E08D
:1005000060E082E00E94ED040E94FD0078940E9469
:100510006F040E94530584E392E00E94730480E11B
:1005200092E00E945705C0E0209191003091920026
:1005300040919300509194006091950070919600C5
:10054000809197009091980008E00E947208A09016
:100550009900B12CC12CD12CE12CF12C00E010E041
:100560000E948B080E942B072DEB37E346E855E3EA
:100570000E94E30720E030E04AE754E40E94E307EA
:100580000E94B8066B017C0160E080E00E943801A7
:10059000C701B6010E94440160E081E00E94380179
:1005A0006C2F70E080E090E00E9444018C2F0E944C
:1005B000E8012FEF81EE94E0215080409040E1F778
:1005C00000C00000CF5FCA3009F0AECFACCF1F92A1
:1005D0000F920FB60F9211242F933F934F935F9377
:1005E0006F937F938F939F93AF93BF93EF93FF93FB
:1005F000E091A200F091A3000995FF91EF91BF91C6
:10060000AF919F918F917F916F915F914F913F91AA
:100610002F910F900FBE0F901F901895CF93DF93DF
:10062000E0E7F0E020EFA8EE38EF40E050E081E0B6
:1006300090E0719171113CC0483078F4BAB3EC018C
:10064000042E02C0CC0FDD1F0A94E2F7BE017B2FFF
:10065000762B7ABB7BB360953EC0383068F4B7B375
:10066000BC01032E01C0660F0A94EAF77B2F762B9C
:1006700077BB78B360953FC0283068F4B4B3BC0151
:10068000022E01C0660F0A94EAF77B2F762B74BB0B
:1006900075B3609540C0B1B3BC010A2E01C0660FAE
:1006A0000A94EAF77B2F762B71BB72B3609541C039
:1006B000713009F040C0483080F4BAB3EC01042E28
:1006C00002C0CC0FDD1F0A94E2F7BE0160957B2FBC
:1006D00076237ABB7BB3672342C0383070F4B7B35C
:1006E000BC01032E01C0660F0A94EAF760957B2FC8
:1006F000762377BB78B3672343C0283070F4B4B354
:10070000BC01022E01C0660F0A94EAF760957B2FA8
:10071000762374BB75B3672344C0B1B3BC010A2E02
:1007200001C0660F0A94EAF760957B2F762371BBB0
:1007300072B3672345C0723009F043C0483088F473
:10074000BAB3EC01042E02C0CC0FDD1F0A94E2F70D
:10075000BE017C2F70957B237ABB7BB3672B6BBB71
:1007600030C0383078F4B7B3BC01032E01C0660F37
:100770000A94EAF7762F70957B2377BB78B3672BC3
:1007800068BB1FC0283078F4B4B3BC01022E01C08E
:10079000660F0A94EAF7762F70957B2374BB75B3C6
:1007A000672B65BB0EC0B1B3BC010A2E01C0660F3A
:1007B0000A94EAF7762F70957B2371BB72B3672B8F
:1007C00062BB4F5F5F4F3F5FAF5F2F5F40325105AE
:1007D00009F02FCFDF91CF91089561113CC088308F
:1007E00068F44BB321E030E0B90102C0660F771F17
:1007F0008A95E2F7CB01809584233CC038EF380F0F
:10080000383050F428B381E090E001C0880F3A9569
:10081000EAF7809582233CC030EF380F383050F42F
:1008200025B381E090E001C0880F3A95EAF7809502
:1008300082233CC08851883008F049C042B321E08F
:1008400030E0B90102C0660F771F8A95E2F7CB014D
:10085000809584233BC06130D1F5883068F44BB378
:1008600021E030E0B90102C0660F771F8A95E2F7F8
:10087000CB01842B8BBB089528EF280F283050F430
:1008800038B381E090E001C0880F2A95EAF7832B06
:1008900088BB089520EF280F283050F435B381E04D
:1008A00090E001C0880F2A95EAF7832B85BB089555
:1008B0008851883060F442B321E030E0B90102C0D1
:1008C000660F771F8A95E2F7CB01842B82BB0895D0
:1008D00095B79C7F95BF95B7892B85BF08958BB73A
:1008E00080648BBF08959093A9008093A800089519
:1008F0001F920F920FB60F9211242F933F934F9395
:100900005F936F937F938F939F93AF93BF93EF9377
:10091000FF93E091A800F091A9000995FF91EF9154
:10092000BF91AF919F918F917F916F915F914F9107
:100930003F912F910F900FBE0F901F9018951F920F
:100940000F920FB60F9211242F933F934F935F9303
:100950006F937F938F939F93AF93BF93EF93FF9387
:10096000E091A600F091A7000995FF91EF91BF914A
:10097000AF919F918F917F916F915F914F913F9137
:100980002F910F900FBE0F901F9018951F920F92EE
:100990000FB60F9211242F933F934F935F936F9352
:1009A0007F938F939F93AF93BF93EF93FF93E091C8
:1009B000A400F091A5000995FF91EF91BF91AF912F
:1009C0009F918F917F916F915F914F913F912F9167
:1009D0000F900FBE0F901F901895823099F038F449
:1009E000882369F0813051F583B78B7F20C0843034
:1009F000A9F070F0853011F583B7846018C083B713
:100A00008B7F0EC083B78B7F83BF83B782600BC0A1
:100A100083B78B7F83BF83B782600CC083B784604A
:100A200083BF83B78D7F83BF83B78E7F06C083BFAD
:100A300083B78D7F83BF83B7816083BF613059F0F7
:100A400038F0623059F0633099F483B788600CC095
:100A500083B7877F05C083B7877F06C083B7886069
:100A600083BF83B78F7B03C083BF83B7806483BF9B
:100A7000413049F028F0423049F0433069F00895A0
:100A800083B78F7D05C083B78F7D08C083B7806231
:100A900083BF83B78F7E05C083B7806283BF83B770
:100AA000806183BF089589B7816089BF089590935D
:100AB000AB008093AA0008951F920F920FB60F9279
:100AC00011242F933F934F935F936F937F938F9353
:100AD0009F93AF93BF93EF93FF93E091AC00F0919E
:100AE000AD000995FF91EF91BF91AF919F918F91CB
:100AF0007F916F915F914F913F912F910F900FBE1A
:100B00000F901F9018951F920F920FB60F921124FD
:100B10002F933F934F935F936F937F938F939F9305
:100B2000AF93BF93EF93FF93E091AA00F091AB00D6
:100B30000995FF91EF91BF91AF919F918F917F9117
:100B40006F915F914F913F912F910F900FBE0F903A
:100B50001F9018951F920F920FB60F9211242F938A
:100B60003F934F935F936F937F938F939F93AF9335
:100B7000BF93EF93FF93E091B400F091B500099516
:100B8000FF91EF91BF91AF919F918F917F916F9165
:100B90005F914F913F912F910F900FBE0F901F903B
:100BA00018951F920F920FB60F9211242F933F9317
:100BB0004F935F936F937F938F939F93AF93BF9365
:100BC000EF93FF93E091B200F091B3000995FF918C
:100BD000EF91BF91AF919F918F917F916F915F91B5
:100BE0004F913F912F910F900FBE0F901F9018952E
:100BF0001F920F920FB60F9211242F933F934F9392
:100C00005F936F937F938F939F93AF93BF93EF9374
:100C1000FF93E091B000F091B1000995FF91EF9141
:100C2000BF91AF919F918F917F916F915F914F9104
:100C30003F912F910F900FBE0F901F9018951F920C
:100C40000F920FB60F9211242F933F934F935F9300
:100C50006F937F938F939F93AF93BF93EF93FF9384
:100C6000E091AE00F091AF000995FF91EF91BF9137
:100C7000AF919F918F917F916F915F914F913F9134
:100C80002F910F900FBE0F901F9018950E945A063B
:100C90000C94A4070E949D0758F00E94960740F00C
:100CA00029F45F3F29F00C948D0751110C94D8075B
:100CB0000C9493070E94B50768F39923B1F3552369
:100CC00091F3951B550BBB27AA276217730784075F
:100CD00038F09F5F5F4F220F331F441FAA1FA9F3F5
:100CE00035D00E2E3AF0E0E832D091505040E695E3
:100CF000001CCAF72BD0FE2F29D0660F771F881F44
:100D0000BB1F261737074807AB07B0E809F0BB0B36
:100D1000802DBF01FF2793585F4F3AF09E3F51054A
:100D200078F00C948D070C94D8075F3FE4F3983E5D
:100D3000D4F3869577956795B795F7959F5FC9F733
:100D4000880F911D9695879597F90895E1E0660FB4
:100D5000771F881FBB1F621773078407BA0720F02D
:100D6000621B730B840BBA0BEE1F88F7E095089596
:100D70000E94BF066894B1110C94D80708950E9490
:100D8000BD0788F09F5798F0B92F9927B751B0F059
:100D9000E1F0660F771F881F991F1AF0BA95C9F7FF
:100DA00014C0B13091F00E94D707B1E008950C94BF
:100DB000D707672F782F8827B85F39F0B93FCCF372
:100DC000869577956795B395D9F73EF4909580957C
:100DD000709561957F4F8F4F9F4F0895E89409C09C
:100DE00097FB3EF490958095709561957F4F8F4F5E
:100DF0009F4F9923A9F0F92F96E9BB279395F69574
:100E0000879577956795B795F111F8CFFAF4BB0FF1
:100E100011F460FF1BC06F5F7F4F8F4F9F4F16C055
:100E2000882311F096E911C0772321F09EE8872FDF
:100E3000762F05C0662371F096E8862F70E060E09B
:100E40002AF09A95660F771F881FDAF7880F969514
:100E5000879597F90895E894F92F96EBFF2381F091
:100E6000121613061406440B9395F69587957795FD
:100E7000679557954040FF23B9F71BC09927089500
:100E8000882351F49850D2F7872B762F652F542F53
:100E9000432F322F20E0B1F3121613061406440B31
:100EA00088233AF09A95440F551F661F771F881FB5
:100EB000CAF755234AF4440F551F11F460FF04C0CC
:100EC0006F5F7F4F8F4F9F4F880F9695879597F94C
:100ED0000895990F0008550FAA0BE0E8FEEF1616CB
:100EE0001706E807F907C0F012161306E407F5071E
:100EF00098F0621B730B840B950B39F40A2661F092
:100F0000232B242B252B21F408950A2609F4A14034
:100F1000A6958FEF811D811D089597F99F6780E841
:100F200070E060E008959FEF80EC089500240A943B
:100F30001616170618060906089500240A941216B4
:100F40001306140605060895092E0394000C11F4E7
:100F5000882352F0BB0F40F4BF2B11F460FF04C094
:100F60006F5F7F4F8F4F9F4F089557FD9058440FED
:100F7000551F59F05F3F71F04795880F97FB991FF8
:100F800061F09F3F79F087950895121613061406B5
:100F9000551FF2CF4695F1DF08C016161706180642
:100FA000991FF1CF86957105610508940895E8941D
:100FB000BB2766277727CB0197F908950E94690719
:100FC00008F48FEF08950E94F6070C94A4070E947E
:100FD000960738F00E949D0720F0952311F00C949D
:100FE0008D070C94930711240C94D8070E94B50721
:100FF00070F3959FC1F3950F50E0551F629FF0016C
:10100000729FBB27F00DB11D639FAA27F00DB11D84
:10101000AA1F649F6627B00DA11D661F829F22270D
:10102000B00DA11D621F739FB00DA11D621F839F94
:10103000A00D611D221F749F3327A00D611D231F6A
:10104000849F600D211D822F762F6A2F11249F57B8
:1010500050409AF0F1F088234AF0EE0FFF1FBB1FBB
:10106000661F771F881F91505040A9F79E3F51057A
:1010700080F00C948D070C94D8075F3FE4F3983E02
:10108000D4F3869577956795B795F795E7959F5F24
:10109000C1F7FE2B880F911D9695879597F90895B6
:1010A000A1E21A2EAA1BBB1BFD010DC0AA1FBB1F6C
:1010B000EE1FFF1FA217B307E407F50720F0A21BDE
:1010C000B30BE40BF50B661F771F881F991F1A944B
:1010D00069F760957095809590959B01AC01BD0175
:1010E000CF0108950F93083090F0982F872F762F17
:1010F000652F542F432F322F22270850F4CF220F71
:10110000331F441F551F661F771F881F991F0A959D
:10111000B2F70F9108952A0D3B1D4C1D5D1D6E1DEC
:101120007F1D801F911F08950024A7FD00942A0FA2
:10113000301D401D501D601D701D801D901D0895A7
:04114000F894FFCF51
:101144003F065B4F666D7D077F6F777C395E7971F3
:101154000000000101010101000000000000000086
:10116400020202020000000000000202000000006F
:00000001FF
