S014000061746D65676133325F4543552E7372656300
S11300000C942A000C941C080C9445080C946E085B
S11300100C9447000C9447000C948D090C9412091D
S11300200C943B090C9464090C94C0080C94E908E2
S11300300C9497080C94B6090C94080A0C94DF09E4
S11300400C9462060C9447000C9447000C944700EF
S11300500C94470011241FBECFE5D8E0DEBFCDBF0E
S113006010E0A0E6B0E0E0E4F9E102C005900D92F2
S1130070A63CB107D9F721E0A6ECB0E001C01D927F
S1130080A434B207E1F70E945D060C949E0C0C9414
S11300900000AF92BF92CF92DF92EF92FF920F9344
S11300A01F93CF93DF938C016B015A01CA010E9405
S11300B01408F80180837801C1E0D0E0F1E0CF1AA0
S11300C0D108CC15DD0570F0C00FD11F1882DF9167
S11300D0CF911F910F91FF90EF90DF90CF90BF9041
S11300E0AF900895F70181917F01882369F3C501D9
S11300F08C0F9D1F0E941408F70180832196E1CF85
S11301000F931F93CF93009709F4A3C0C62F8C01BC
S11301108091E50081113EC01092D0001092CF0072
S113012082E090E09093CC008093CB0090936400A5
S1130130809363001092CE001092CD0083E090E093
S1130140909362008093610060E30E940A088091AA
S113015061009091620060E301960E940A08809118
S113016061009091620060E302960E940A08809107
S113017061009091620060E303960E940A088091F6
S113018061009091620060E004960E940A0881E098
S11301908093E5008091CF009091D0000E941408D4
S11301A08093CB008091CF009091D00001960E9463
S11301B014088093CC008091CB009091CC008B3EAE
S11301C09340B0F082E090E09093CC008093CB0019
S11301D062E08091CF009091D0000E940A08809143
S11301E0CF009091D0006091CC0001970E940A0842
S11301F08091CB009091CC00909364008093630035
S11302000E94140890E09093CE008093CD00039751
S113021058F060E080916300909164000E940A08A5
S11302201092CE001092CD004091CB005091CC00A2
S11302304F5F5F4F50936200409361006C2F70E0FA
S11302406115710531F0C801CF911F910F910C9484
S11302504900CF911F910F910895EF92FF920F9350
S11302601F93CF93DF93EC01162F8091C7009091D9
S1130270C800439758F5E0906100F090620001E0F7
S1130280009360008091CA008093C6000E94170406
S11302908093CA009091C6008913E9C017C08334C3
S11302A009F414C12091C7003091C800F901EF523C
S11302B0FF4F8083C90101969093C8008093C700C3
S11302C0FC01EF52FF4F10820093600080916000A8
S11302D0823091F48091C900813071F4612F70E013
S11302E06115710539F04091610050916200CE01B1
S11302F00E9449001092C9008091CD009091CE00D7
S1130300039709F063C08091CB009091CC009C01CD
S1130310265D334027313C4F10F0459602C082E001
S113032090E09093CC008093CB006091CB008091BF
S1130330CF009091D0000E940A088091CF00909144
S1130340D0006091CC0001960E940A088091CB00F5
S11303509091CC00909364008093630060E00E94CD
S11303600A081092CE001092CD0080916100909105
S113037062000E94140810E02091CB003091CC0060
S1130380412F50E0882391F02F5F3F4F682FC90120
S1130390840F951F0E940A081F5F8091610090914D
S11303A06200810F911D0E941408E6CFC9010196D5
S11303B060E0840F951F0E940A088091CB00909101
S11303C0CC000196909362008093610060E080E02D
S11303D00E9485056091CB007091CC0080E090E094
S11303E00E94A40560E081E00E9485058091CF0011
S11303F09091D0000E940E0666E080E00E94850580
S11304008091CD009091CE000E940E0666E081E0BE
S11304100E94850580916300909164000E940E06FD
S11304206BE080E00E94850580916000823011F4C9
S1130430CE0104C0813021F481ED90E00E94910549
S11304408AE690E00E9491056BE081E00E948505B8
S113045080916100909162000E940E06809160007C
S1130460DF91CF911F910F91FF90EF900895882312
S113047009F42CCF8D3309F012CF00E0802F90E0E7
S1130480FC01EF52FF4F60818E0D9F1D662321F00A
S11304900E940A080F5FF2CF0E940A086091CD0003
S11304A07091CE006F5F7F4F7093CE006093CD004C
S11304B080916300909164000E940A081092C80021
S11304C01092C70081E08093C90004C01092C80054
S11304D01092C70082E080936000F8CE0E949303DC
S11304E00E948B060E94400564E18CEE90E00C941F
S11304F080001F93CF93DF938091EA0081111EC087
S11305008091EB008093E7000E9417048093EB0036
S11305109091E700891791F0813309F0E7C01092B8
S1130520000160E080E00E9485058FE690E00E9473
S1130530910581E08093EA008093E8008091E800CF
S1130540813061F58091EA00813041F56091650068
S113055080E091E00E949503019729F0ECEEF0E031
S1130560A0E0B1E00DC060E081E00E94850580E07C
S113057091E00E9491058FE790E00E9491050EC0E2
S11305808191882309F4BDC09D919817C9F383E034
S11305908093EA001092E8000E947B058091E900B4
S11305A08130A1F58091EA008130D1F46091650039
S11305B080E091E00E949503019769F460E081E096
S11305C00E94850580E091E00E9491058FE790E00C
S11305D00E94910505C082E08093EA000E947B0599
S11305E08091EA00823091F4ECEEF0E0A0E0B1E01A
S11305F08191882309F488C09D919817C9F383E0F9
S11306008093EA001092E9000E947B058091EA0041
S1130610833009F084C060E080E00E94850584E8AE
S113062090E00E949105C0E0D0E011E08091E600E6
S1130630811121C020E030E040E85FE36091660072
S11306407091670080916800909169000E94320A5D
S113065060936600709367008093680090936900CC
S113066020E030E044EB52E40E949E0A811125C050
S11306701093E60022C0813001F520E030E040E82C
S11306805FE36091660070916700809168009091CB
S113069069000E94310A609366007093670080933A
S11306A068009093690020E030E044EB52EC0E9433
S11306B09E0A811102C01092E6006091660070915A
S11306C0670080916800909169000E94400682E072
S11306D08A95F1F700C02196C83B8BE0D80709F052
S11306E0A5CF0E947B051092EA0019C0823309F05D
S11306F025CF1092000181E08093EA008093E90005
S11307001DCF1092EA0046CF64E18CEE90E00E9487
S11307102D01823009F07ACF1092EA0073CFDF9175
S1130720CF911F9108950C948B060F931F93CF9331
S11307308C01C62F60E080E00E9485058FE690E082
S11307400E9491050115110569F1CC2359F180919D
S113075015018C1738F580911601809314010E94BD
S1130760170480931601909114018917D9F08823F6
S1130770C9F090911501292F30E0F801E20FF31F21
S113078080838D3391F06C2F70E0615071092617CE
S1130790370759F081E0890F80931501F801E80FBC
S11307A0F11D108281E090E005C0108210921501C5
S11307B082E090E0CF911F910F9108950F931F93C2
S11307C0CF93DF93D82F062FC42F122F60E00E94FF
S11307D06A07802F0E94E5074C2F50E0212F30E05C
S11307E0440F551F440F551F811113C0FA01E95ED0
S11307F0FE4FE20FF31F8081811111C04B565F4FF2
S1130800DA01A20FB31F8C918093270181E08083CA
S113081006C0495E5E4FFA01E20FF31F108261E0E9
S11308208D2FDF91CF911F910F910C946A0761E096
S113083089E10E946A0761E08AE10E946A0761E037
S11308408BE10E946A0761E08CE10E946A071092C2
S1130850270120E040E06CE089E10E94DE0321E012
S113086040E06CE08AE10E94DE0322E040E06CE0BC
S11308708BE10E94DE0323E040E06CE08CE10E9407
S1130880DE0320E041E06DE089E10E94DE0321E027
S113089041E06DE08AE10E94DE0322E041E06DE088
S11308A08BE10E94DE0323E041E06DE08CE10E94D5
S11308B0DE0320E042E06EE089E10E94DE0321E0F5
S11308C042E06EE08AE10E94DE0322E042E06EE054
S11308D08BE10E94DE0323E042E06EE08CE10E94A3
S11308E0DE0320E043E06FE089E10E94DE0321E0C3
S11308F043E06FE08AE10E94DE0322E043E06FE020
S11309008BE10E94DE0323E043E06FE08CE10E9470
S1130910DE03809127010895CF93C82F60E081E022
S11309200E946A07C4FB662760F983E00E946A0795
S1130930C5FB662760F984E00E946A07C6FB662748
S113094060F985E00E946A076C2F661F6627661FA0
S113095086E00E946A0761E082E00E946A078FECE9
S113096097E00197F1F700C0000060E082E00E9488
S11309706A076C2F617083E00E946A07C1FB6627D7
S113098060F984E00E946A07C2FB662760F985E08B
S11309900E946A07C3FB662760F986E00E946A0723
S11309A061E082E00E946A078FEC97E00197F1F71B
S11309B000C0000060E082E00E946A078FEC97E0CC
S11309C00197F1F700C00000CF910895CF93C82F8D
S11309D061E081E00E946A07C4FB662760F983E056
S11309E00E946A07C5FB662760F984E00E946A07D3
S11309F0C6FB662760F985E00E946A076C2F661FB4
S1130A006627661F86E00E946A0761E082E00E9412
S1130A106A078FEC97E00197F1F700C0000060E0EF
S1130A2082E00E946A076C2F617083E00E946A076B
S1130A30C1FB662760F984E00E946A07C2FB66274F
S1130A4060F985E00E946A07C3FB662760F986E0C7
S1130A500E946A0761E082E00E946A078FEC97E0D7
S1130A600197F1F700C0000060E082E00E946A078D
S1130A708FEC97E00197F1F700C00000CF91089543
S1130A802FE788E391E0215080409040E1F700C0D7
S1130A90000082E20E948C0460E081E00E946A0708
S1130AA060E085E00E946A0761E086E00E946A07D0
S1130AB061E082E00E946A078FEC97E00197F1F70A
S1130AC000C0000060E082E00E946A078FEC97E0BB
S1130AD00197F1F700C000008CE00E948C0481E0D3
S1130AE00E948C048FEC97E00197F1F700C000009E
S1130AF086E00C948C0481E00E948C048FEC97E0D7
S1130B000197F1F700C000000895811102C0862FFB
S1130B1004C0813029F480E4860F80680C948C042E
S1130B2008950F931F93CF938C01C0E0F801EC0F4D
S1130B30F11D8081882321F00E94E604CF5FF6CF67
S1130B40CF911F910F9108958F929F92AF92BF9270
S1130B50CF92DF92EF92FF92CF93611571058105D9
S1130B60910561F480E3CF91FF90EF90DF90CF90F7
S1130B70BF90AF909F908F900C94E6046B017C0122
S1130B8097FF0AC08DE20E94E60466277727CB010F
S1130B906C197D098E099F090E94460B6B017C012B
S1130BA0C0E020E030E040E85FE3C701B6010E9406
S1130BB0F60B87FD0CC020E030E040E251E4C701B1
S1130BC0B6010E94A30A6B017C01CF5FEACF8AE0E1
S1130BD0882E912CA12CB12CCC23B1F020E030E054
S1130BE040E251E4C701B6010E94FB0B6B017C019A
S1130BF00E94150BA50194010E947C0C80E3860FD2
S1130C000E94E604C150E8CFCF91FF90EF90DF90AF
S1130C10CF90BF90AF909F908F9008950F931F93A4
S1130C20CF93DF938C0168EE73E00E94680CCB01D4
S1130C30CAE0D0E0BE010E94680C805D0E94E60418
S1130C40C80164E670E00E94680CCB01BE010E94FA
S1130C50680C805D0E94E604C801BE010E94680C15
S1130C60182FCB01BE010E94680C805D0E94E6042F
S1130C7080E3810FDF91CF911F910F910C94E604D3
S1130C8020E030E044EB52E40E94320A20E030E0FD
S1130C9044E353E40E94A30A20E030E04AE754E42A
S1130CA00E94FB0B20E030EC49E754E40E94320A36
S1130CB00E94150B7BBD6ABD08950E946E020E94BE
S1130CC07902FDCF1F920F920FB60F9211242F932A
S1130CD03F934F935F936F937F938F939F93AF93C0
S1130CE0BF93EF93FF93E0912801F091290130978E
S1130CF009F00995FF91EF91BF91AF919F918F9169
S1130D007F916F915F914F913F912F910F900FBE03
S1130D100F901F901895CF93DF93E5EAF0E020EF52
S1130D20A8EE38EF40E050E081E090E0719171115D
S1130D303CC0483078F4BAB3EC01042E02C0CC0FA6
S1130D40DD1F0A94E2F7BE017B2F762B7ABB7BB3BF
S1130D5060953EC0383068F4B7B3BC01032E01C0BF
S1130D60660F0A94EAF77B2F762B77BB78B36095EE
S1130D703FC0283068F4B4B3BC01022E01C0660F32
S1130D800A94EAF77B2F762B74BB75B3609540C049
S1130D90B1B3BC010A2E01C0660F0A94EAF77B2F97
S1130DA0762B71BB72B3609541C0713009F040C0BD
S1130DB0483080F4BAB3EC01042E02C0CC0FDD1F1E
S1130DC00A94E2F7BE0160957B2F76237ABB7BB34E
S1130DD0672342C0383070F4B7B3BC01032E01C09E
S1130DE0660F0A94EAF760957B2F762377BB78B376
S1130DF0672343C0283070F4B4B3BC01022E01C091
S1130E00660F0A94EAF760957B2F762374BB75B35B
S1130E10672344C0B1B3BC010A2E01C0660F0A9413
S1130E20EAF760957B2F762371BB72B3672345C0C5
S1130E30723009F043C0483088F4BAB3EC01042E90
S1130E4002C0CC0FDD1F0A94E2F7BE017C2F70951F
S1130E507B237ABB7BB3672B6BBB30C0383078F411
S1130E60B7B3BC01032E01C0660F0A94EAF7762FCC
S1130E7070957B2377BB78B3672B68BB1FC0283082
S1130E8078F4B4B3BC01022E01C0660F0A94EAF7E9
S1130E90762F70957B2374BB75B3672B65BB0EC02F
S1130EA0B1B3BC010A2E01C0660F0A94EAF7762F8B
S1130EB070957B2371BB72B3672B62BB4F5F5F4F2F
S1130EC03F5FAF5F2F5F4032510509F02FCFDF91B5
S1130ED0CF91089561113CC0883068F44BB321E090
S1130EE030E0B90102C0660F771F8A95E2F7CB01A3
S1130EF0809584233CC038EF380F383050F428B341
S1130F0081E090E001C0880F3A95EAF7809582234A
S1130F103CC030EF380F383050F425B381E090E016
S1130F2001C0880F3A95EAF7809582233CC0885126
S1130F30883008F049C042B321E030E0B90102C072
S1130F40660F771F8A95E2F7CB01809584233BC017
S1130F506130D1F5883068F44BB321E030E0B90159
S1130F6002C0660F771F8A95E2F7CB01842B8BBBF7
S1130F70089528EF280F283050F438B381E090E02A
S1130F8001C0880F2A95EAF7832B88BB089520EFC8
S1130F90280F283050F435B381E090E001C0880F69
S1130FA02A95EAF7832B85BB08958851883060F42D
S1130FB042B321E030E0B90102C0660F771F8A9581
S1130FC0E2F7CB01842B82BB0895282F883010F4DC
S1130FD099B316C038EF380F383010F486B305C013
S1130FE030EF380F383040F483B390E002C0959569
S1130FF087953A95E2F70BC02851283050F490B306
S1131000892F90E002C0959587952A95E2F7817023
S113101008950895E199FECF70E07EBB6DBB9FBB40
S11310208EBBE29AE19A0895E199FECF9FBB8EBBF5
S1131030E09A8DB39EB308951F920F920FB60F924C
S113104011242F933F934F935F936F937F938F93C9
S11310509F93AF93BF93EF93FF93E0912E01F09191
S11310602F01309709F00995FF91EF91BF91AF914E
S11310709F918F917F916F915F914F913F912F91AC
S11310800F900FBE0F901F9018951F920F920FB6DE
S11310900F9211242F933F934F935F936F937F93FA
S11310A08F939F93AF93BF93EF93FF93E0912C01A2
S11310B0F0912D01309709F00995FF91EF91BF91BF
S11310C0AF919F918F917F916F915F914F913F91DC
S11310D02F910F900FBE0F901F9018951F920F9293
S11310E00FB60F9211242F933F934F935F936F93F7
S11310F07F938F939F93AF93BF93EF93FF93E0916D
S11311002A01F0912B01309709F00995FF91EF9195
S1131110BF91AF919F918F917F916F915F914F910B
S11311203F912F910F900FBE0F901F9018951F9213
S11311300F920FB60F9211242F933F934F935F9307
S11311406F937F938F939F93AF93BF93EF93FF938B
S1131150E0913001F0913101309709F00995FF9148
S1131160EF91BF91AF919F918F917F916F915F911B
S11311704F913F912F910F900FBE0F901F90189594
S11311801F920F920FB60F9211242F933F934F93F8
S11311905F936F937F938F939F93AF93BF93EF93DB
S11311A0FF93E0913401F0913501309709F00995EE
S11311B0FF91EF91BF91AF919F918F917F916F912B
S11311C05F914F913F912F910F900FBE0F901F9001
S11311D018951F920F920FB60F9211242F933F93DD
S11311E04F935F936F937F938F939F93AF93BF932B
S11311F0EF93FF93E0913201F0913301309709F0BE
S11312000995FF91EF91BF91AF919F918F917F913C
S11312106F915F914F913F912F910F900FBE0F905F
S11312201F9018951F920F920FB60F9211242F93AF
S11312303F934F935F936F937F938F939F93AF935A
S1131240BF93EF93FF93E0913C01F0913D01309700
S113125009F00995FF91EF91BF91AF919F918F9103
S11312607F916F915F914F913F912F910F900FBE9E
S11312700F901F9018951F920F920FB60F92112482
S11312802F933F934F935F936F937F938F939F938A
S1131290AF93BF93EF93FF93E0913A01F0913B0139
S11312A0309709F00995FF91EF91BF91AF919F910C
S11312B08F917F916F915F914F913F912F910F90FB
S11312C00FBE0F901F9018951F920F920FB60F929A
S11312D011242F933F934F935F936F937F938F9337
S11312E09F93AF93BF93EF93FF93E0913801F091F5
S11312F03901309709F00995FF91EF91BF91AF91B2
S11313009F918F917F916F915F914F913F912F9119
S11313100F900FBE0F901F9018951F920F920FB64B
S11313200F9211242F933F934F935F936F937F9367
S11313308F939F93AF93BF93EF93FF93E091360105
S1131340F0913701309709F00995FF91EF91BF9122
S1131350AF919F918F917F916F915F914F913F9149
S11313602F910F900FBE0F901F9018951F920F9200
S11313700FB60F9211242F933F934F935F936F9364
S11313807F938F939F93AF93BF93EF93FF93E091DA
S11313904201F0914301309709F00995FF91EF91D3
S11313A0BF91AF919F918F917F916F915F914F9179
S11313B03F912F910F900FBE0F901F9018951F9281
S11313C00F920FB60F9211242F933F934F935F9375
S11313D06F937F938F939F93AF93BF93EF93FF93F9
S11313E0E0914001F0914101309709F00995FF9196
S11313F0EF91BF91AF919F918F917F916F915F9189
S11314004F913F912F910F900FBE0F901F90189501
S11314101F920F920FB60F9211242F933F934F9365
S11314205F936F937F938F939F93AF93BF93EF9348
S1131430FF93E0913E01F0913F01309709F0099547
S1131440FF91EF91BF91AF919F918F917F916F9198
S11314505F914F913F912F910F900FBE0F901F906E
S113146018955058BB27AA270E94490A0C94BC0B14
S11314700E94AE0B38F00E94B50B20F039F49F3F68
S113148019F426F40C94AB0B0EF4E095E7FB0C94E2
S1131490A50BE92F0E94CD0B58F3BA176207730707
S11314A08407950720F079F4A6F50C94EF0B0EF45D
S11314B0E0950B2EBA2FA02D0B01B90190010C0160
S11314C0CA01A0011124FF27591B99F0593F50F478
S11314D0503E68F11A16F040A22F232F342F4427D0
S11314E0585FF3CF469537952795A795F0405395C8
S11314F0C9F77EF41F16BA0B620B730B840BBAF098
S11315009150A1F0FF0FBB1F661F771F881FC2F702
S11315100EC0BA0F621F731F841F48F48795779516
S11315206795B795F7959E3F08F0B0CF9395880FD0
S113153008F09927EE0F9795879508950E94810BDF
S113154008F481E008950E94B70A0C94BC0B0E9431
S1131550B50B58F00E94AE0B40F029F45F3F29F020
S11315600C94A50B51110C94F00B0C94AB0B0E9432
S1131570CD0B68F39923B1F3552391F3951B550BC8
S1131580BB27AA2762177307840738F09F5F5F4F52
S1131590220F331F441FAA1FA9F335D00E2E3AF091
S11315A0E0E832D091505040E695001CCAF72BD0A9
S11315B0FE2F29D0660F771F881FBB1F26173707FA
S11315C04807AB07B0E809F0BB0B802DBF01FF272C
S11315D093585F4F3AF09E3F510578F00C94A50B59
S11315E00C94F00B5F3FE4F3983ED4F38695779523
S11315F06795B795F7959F5FC9F7880F911D9695E5
S1131600879597F90895E1E0660F771F881FBB1F40
S1131610621773078407BA0720F0621B730B840BED
S1131620BA0BEE1F88F7E09508950E94D50B88F059
S11316309F5798F0B92F9927B751B0F0E1F0660F92
S1131640771F881F991F1AF0BA95C9F714C0B130D3
S113165091F00E94EF0BB1E008950C94EF0B672F0B
S1131660782F8827B85F39F0B93FCCF38695779502
S11316706795B395D9F73EF49095809570956195EB
S11316807F4F8F4F9F4F0895E89409C097FB3EF416
S113169090958095709561957F4F8F4F9F4F9923BB
S11316A0A9F0F92F96E9BB279395F6958795779539
S11316B06795B795F111F8CFFAF4BB0F11F460FFF9
S11316C01BC06F5F7F4F8F4F9F4F16C0882311F051
S11316D096E911C0772321F09EE8872F762F05C065
S11316E0662371F096E8862F70E060E02AF09A9500
S11316F0660F771F881FDAF7880F9695879597F9F5
S11317000895990F0008550FAA0BE0E8FEEF16168E
S11317101706E807F907C0F012161306E407F507E1
S113172098F0621B730B840B950B39F40A2661F055
S1131730232B242B252B21F408950A2609F4A140F8
S1131740A6958FEF811D811D089597F99F6780E805
S113175070E060E008959FEF80EC089500240A94FF
S11317601616170618060906089500240A94121678
S11317701306140605060895092E0394000C11F4AB
S1131780882352F0BB0F40F4BF2B11F460FF04C058
S11317906F5F7F4F8F4F9F4F089557FD9058440FB1
S11317A0551F59F05F3F71F04795880F97FB991FBC
S11317B061F09F3F79F08795089512161306140679
S11317C0551FF2CF4695F1DF08C016161706180606
S11317D0991FF1CF86957105610508940895E894E1
S11317E0BB2766277727CB0197F908950E94810BC1
S11317F008F48FEF08950E940E0C0C94BC0B0E9409
S1131800AE0B38F00E94B50B20F0952311F00C9428
S1131810A50B0C94AB0B11240C94F00B0E94CD0B74
S113182070F3959FC1F3950F50E0551F629FF0012F
S1131830729FBB27F00DB11D639FAA27F00DB11D48
S1131840AA1F649F6627B00DA11D661F829F2227D1
S1131850B00DA11D621F739FB00DA11D621F839F58
S1131860A00D611D221F749F3327A00D611D231F2E
S1131870849F600D211D822F762F6A2F11249F577C
S113188050409AF0F1F088234AF0EE0FFF1FBB1F7F
S1131890661F771F881F91505040A9F79E3F51053E
S11318A080F00C94A50B0C94F00B5F3FE4F3983E8E
S11318B0D4F3869577956795B795F795E7959F5FE8
S11318C0C1F7FE2B880F911D9695879597F908957A
S11318D0AA1BBB1B51E107C0AA1FBB1FA617B70752
S11318E010F0A61BB70B881F991F5A95A9F780956E
S11318F09095BC01CD010895A1E21A2EAA1BBB1B31
S1131900FD010DC0AA1FBB1FEE1FFF1FA217B307C7
S1131910E407F50720F0A21BB30BE40BF50B661FDD
S1131920771F881F991F1A9469F7609570958095A1
S113193090959B01AC01BD01CF010895F894FFCFB0
S11319400103000200140000B4C22020202000453E
S11319506E7465722050617373776172643A000922
S11319600909090057726F6E672050617373776FAE
S113197072642121003738392F3435362A31323315
S11319802D43303D2B010000000000000102000047
S1131990000202020200000000000000000000003B
S10919A00000000100003C
S9030000FC
