S014000061746D65676133325F4543552E7372656300
S11300000C942A000C940E040C9437040C94600491
S11300100C9447000C9447000C947F050C94040541
S11300200C942D050C9456050C94B2040C94DB042A
S11300300C9489040C94A8050C94FA050C94D1052D
S11300400C9466020C9447000C9447000C944700EF
S11300500C94470011241FBECFE5D8E0DEBFCDBF0E
S113006010E0A0E6B0E0EAE4FCE002C005900D92E6
S1130070A63AB107D9F720E0A6EAB0E001C01D9284
S1130080AA3EB207E1F70E9450020C9423060C9496
S113009000000C948F020F931F93CF938C01C62FF3
S11300A060E080E00E94310280E690E00E943D0220
S11300B00115110569F1CC2359F18091A7008C1722
S11300C038F58091A8008093A6000E94CD0080930B
S11300D0A8009091A6008917D9F08823C9F09091BF
S11300E0A700292F30E0F801E20FF31F80838D333E
S11300F091F06C2F70E0615071092617370759F0A1
S113010081E0890F8093A700F801E80FF11D1082A8
S113011081E090E005C010821092A70082E090E098
S1130120CF911F910F9108950F931F93CF93DF9356
S1130130D82F062FC42F122F60E00E946E03802F49
S11301400E94E9034C2F50E0212F30E0440F551F4B
S1130150440F551F811113C0FA01E755FF4FE20FF9
S1130160F31F8081811111C040595F4FDA01A20F42
S1130170B31F8C918093B90081E0808306C04755FA
S11301805F4FFA01E20FF31F108261E08D2FDF91C0
S1130190CF911F910F910C946E0361E089E10E944D
S11301A06E0361E08AE10E946E0361E08BE10E94CC
S11301B06E0361E08CE10E946E031092B90020E0AE
S11301C040E06CE089E10E94940021E040E06CE0B2
S11301D08AE10E94940022E040E06CE08BE10E94FE
S11301E0940023E040E06CE08CE10E94940020E065
S11301F041E06DE089E10E94940021E041E06DE07E
S11302008AE10E94940022E041E06DE08BE10E94CB
S1130210940023E041E06DE08CE10E94940020E032
S113022042E06EE089E10E94940021E042E06EE049
S11302308AE10E94940022E042E06EE08BE10E9499
S1130240940023E042E06EE08CE10E94940020E000
S113025043E06FE089E10E94940021E043E06FE015
S11302608AE10E94940022E043E06FE08BE10E9467
S1130270940023E043E06FE08CE10E9494008091BD
S1130280B9000895CF93C82F60E081E00E946E0307
S1130290C4FB662760F983E00E946E03C5FB6627F2
S11302A060F984E00E946E03C6FB662760F985E06E
S11302B00E946E036C2F661F6627661F86E00E94ED
S11302C06E0361E082E00E946E038FEC97E0019779
S11302D0F1F700C0000060E082E00E946E036C2F22
S11302E0617083E00E946E03C1FB662760F984E0BD
S11302F00E946E03C2FB662760F985E00E946E03CC
S1130300C3FB662760F986E00E946E0361E082E029
S11303100E946E038FEC97E00197F1F700C0000094
S113032060E082E00E946E038FEC97E00197F1F7A2
S113033000C00000CF910895CF93C82F61E081E001
S11303400E946E03C4FB662760F983E00E946E037B
S1130350C5FB662760F984E00E946E03C6FB66272E
S113036060F985E00E946E036C2F661F6627661F86
S113037086E00E946E0361E082E00E946E038FECCF
S113038097E00197F1F700C0000060E082E00E946E
S11303906E036C2F617083E00E946E03C1FB6627BD
S11303A060F984E00E946E03C2FB662760F985E071
S11303B00E946E03C3FB662760F986E00E946E0309
S11303C061E082E00E946E038FEC97E00197F1F701
S11303D000C0000060E082E00E946E038FEC97E0B2
S11303E00197F1F700C00000CF9108952FE788E34B
S11303F091E0215080409040E1F700C0000082E28B
S11304000E94420160E081E00E946E0360E085E0AA
S11304100E946E0361E086E00E946E0361E082E068
S11304200E946E038FEC97E00197F1F700C0000083
S113043060E082E00E946E038FEC97E00197F1F791
S113044000C000008CE00E94420181E00E94420151
S11304508FEC97E00197F1F700C0000086E00C9460
S11304604201811102C0862F04C0813029F480E446
S1130470860F80680C94420108950F931F93CF93C5
S11304808C01C0E0F801EC0FF11D8081882321F07C
S11304900E949C01CF5FF6CFCF911F910F910895D9
S11304A00E9449000E94F60164E18AEB90E00E94F8
S11304B04B0060E081E00E9431028AEB90E00E94F0
S11304C03D0280E890E00E943D02EECF1F920F9221
S11304D00FB60F9211242F933F934F935F936F9313
S11304E07F938F939F93AF93BF93EF93FF93E09189
S11304F0CE00F091CF00309709F00995FF91EF916C
S1130500BF91AF919F918F917F916F915F914F9127
S11305103F912F910F900FBE0F901F901895CF937E
S1130520DF93E5E8F0E020EFA8EE38EF40E050E09C
S113053081E090E0719171113CC0483078F4BAB315
S1130540EC01042E02C0CC0FDD1F0A94E2F7BE01B9
S11305507B2F762B7ABB7BB360953EC0383068F432
S1130560B7B3BC01032E01C0660F0A94EAF77B2FD0
S1130570762B77BB78B360953FC0283068F4B4B36A
S1130580BC01022E01C0660F0A94EAF77B2F762B7A
S113059074BB75B3609540C0B1B3BC010A2E01C0F1
S11305A0660F0A94EAF77B2F762B71BB72B36095C2
S11305B041C0713009F040C0483080F4BAB3EC0156
S11305C0042E02C0CC0FDD1F0A94E2F7BE01609531
S11305D07B2F76237ABB7BB3672342C0383070F419
S11305E0B7B3BC01032E01C0660F0A94EAF7609505
S11305F07B2F762377BB78B3672343C0283070F40E
S1130600B4B3BC01022E01C0660F0A94EAF76095E8
S11306107B2F762374BB75B3672344C0B1B3BC018D
S11306200A2E01C0660F0A94EAF760957B2F7623A1
S113063071BB72B3672345C0723009F043C04830C0
S113064088F4BAB3EC01042E02C0CC0FDD1F0A9467
S1130650E2F7BE017C2F70957B237ABB7BB3672BBB
S11306606BBB30C0383078F4B7B3BC01032E01C083
S1130670660F0A94EAF7762F70957B2377BB78B3DD
S1130680672B68BB1FC0283078F4B4B3BC01022EBA
S113069001C0660F0A94EAF7762F70957B2374BB2A
S11306A075B3672B65BB0EC0B1B3BC010A2E01C084
S11306B0660F0A94EAF7762F70957B2371BB72B3A9
S11306C0672B62BB4F5F5F4F3F5FAF5F2F5F40326F
S11306D0510509F02FCFDF91CF91089561113CC0EE
S11306E0883068F44BB321E030E0B90102C0660FF2
S11306F0771F8A95E2F7CB01809584233CC038EFBD
S1130700380F383050F428B381E090E001C0880FEE
S11307103A95EAF7809582233CC030EF380F3830A1
S113072050F425B381E090E001C0880F3A95EAF7D0
S1130730809582233CC08851883008F049C042B378
S113074021E030E0B90102C0660F771F8A95E2F715
S1130750CB01809584233BC06130D1F5883068F4A7
S11307604BB321E030E0B90102C0660F771F8A95D0
S1130770E2F7CB01842B8BBB089528EF280F283098
S113078050F438B381E090E001C0880F2A95EAF76D
S1130790832B88BB089520EF280F283050F435B3FD
S11307A081E090E001C0880F2A95EAF7832B85BB8E
S11307B008958851883060F442B321E030E0B901F3
S11307C002C0660F771F8A95E2F7CB01842B82BBA8
S11307D00895282F883010F499B316C038EF380FD5
S11307E0383010F486B305C030EF380F383040F499
S11307F083B390E002C0959587953A95E2F70BC0D4
S11308002851283050F490B3892F90E002C0959578
S113081087952A95E2F78170089508951F920F92A3
S11308200FB60F9211242F933F934F935F936F93BF
S11308307F938F939F93AF93BF93EF93FF93E09135
S1130840D400F091D500309709F00995FF91EF910C
S1130850BF91AF919F918F917F916F915F914F91D4
S11308603F912F910F900FBE0F901F9018951F92DC
S11308700F920FB60F9211242F933F934F935F93D0
S11308806F937F938F939F93AF93BF93EF93FF9354
S1130890E091D200F091D300309709F00995FF91CF
S11308A0EF91BF91AF919F918F917F916F915F91E4
S11308B04F913F912F910F900FBE0F901F9018955D
S11308C01F920F920FB60F9211242F933F934F93C1
S11308D05F936F937F938F939F93AF93BF93EF93A4
S11308E0FF93E091D000F091D100309709F0099581
S11308F0FF91EF91BF91AF919F918F917F916F91F4
S11309005F914F913F912F910F900FBE0F901F90C9
S113091018951F920F920FB60F9211242F933F93A5
S11309204F935F936F937F938F939F93AF93BF93F3
S1130930EF93FF93E091D600F091D700309709F040
S11309400995FF91EF91BF91AF919F918F917F9105
S11309506F915F914F913F912F910F900FBE0F9028
S11309601F9018951F920F920FB60F9211242F9378
S11309703F934F935F936F937F938F939F93AF9323
S1130980BF93EF93FF93E091DA00F091DB0030978F
S113099009F00995FF91EF91BF91AF919F918F91CC
S11309A07F916F915F914F913F912F910F900FBE67
S11309B00F901F9018951F920F920FB60F9211244B
S11309C02F933F934F935F936F937F938F939F9353
S11309D0AF93BF93EF93FF93E091D800F091D900C8
S11309E0309709F00995FF91EF91BF91AF919F91D5
S11309F08F917F916F915F914F913F912F910F90C4
S1130A000FBE0F901F9018951F920F920FB60F9262
S1130A1011242F933F934F935F936F937F938F93FF
S1130A209F93AF93BF93EF93FF93E091E200F09114
S1130A30E300309709F00995FF91EF91BF91AF91D1
S1130A409F918F917F916F915F914F913F912F91E2
S1130A500F900FBE0F901F9018951F920F920FB614
S1130A600F9211242F933F934F935F936F937F9330
S1130A708F939F93AF93BF93EF93FF93E091E00025
S1130A80F091E100309709F00995FF91EF91BF9142
S1130A90AF919F918F917F916F915F914F913F9112
S1130AA02F910F900FBE0F901F9018951F920F92C9
S1130AB00FB60F9211242F933F934F935F936F932D
S1130AC07F938F939F93AF93BF93EF93FF93E091A3
S1130AD0DE00F091DF00309709F00995FF91EF9166
S1130AE0BF91AF919F918F917F916F915F914F9142
S1130AF03F912F910F900FBE0F901F9018951F924A
S1130B000F920FB60F9211242F933F934F935F933D
S1130B106F937F938F939F93AF93BF93EF93FF93C1
S1130B20E091DC00F091DD00309709F00995FF9128
S1130B30EF91BF91AF919F918F917F916F915F9151
S1130B404F913F912F910F900FBE0F901F901895CA
S1130B501F920F920FB60F9211242F933F934F932E
S1130B605F936F937F938F939F93AF93BF93EF9311
S1130B70FF93E091E800F091E900309709F00995BE
S1130B80FF91EF91BF91AF919F918F917F916F9161
S1130B905F914F913F912F910F900FBE0F901F9037
S1130BA018951F920F920FB60F9211242F933F9313
S1130BB04F935F936F937F938F939F93AF93BF9361
S1130BC0EF93FF93E091E600F091E700309709F08E
S1130BD00995FF91EF91BF91AF919F918F917F9173
S1130BE06F915F914F913F912F910F900FBE0F9096
S1130BF01F9018951F920F920FB60F9211242F93E6
S1130C003F934F935F936F937F938F939F93AF9390
S1130C10BF93EF93FF93E091E400F091E5003097E8
S1130C2009F00995FF91EF91BF91AF919F918F9139
S1130C307F916F915F914F913F912F910F900FBED4
S10D0C400F901F901895F894FFCF51
S1130C4A456E7465722050617373776172643A00F9
S1130C5A3738392F3435362A3132332D43303D2B48
S1130C6A090909090001000000000000010200004E
S1130C7A000202020200000000000000000000005E
S1090C8A0000000100005F
S9030000FC
