:100000000C943A000C9425030C944C030C94730349
:100010000C9457000C9457000C9447050C94D20490
:100020000C94F9040C9420050C949A030C94C103CD
:100030000C9457000C9457000C9457000C945700E4
:100040000C9494010C9457000C9457000C94570096
:100050000C945700240427042A042D043004390486
:100060003F04420445044B0454045A0460047B04D6
:1000700063046F0411241FBECFE5D8E0DEBFCDBFFF
:1000800010E0A0E6B0E0E0E9FDE002C005900D92CE
:10009000A638B107D9F720E0A6E8B0E001C01D926C
:1000A000A23AB207E1F70E9430010C94C6060C9404
:1000B0000000CF93C82F60E089E10E949A026C2F64
:1000C00082E00E94150361E088E10E949A028FECB1
:1000D00097E00197F1F700C0000060E088E10E941E
:1000E0009A028FEC97E00197F1F700C00000CF91E2
:1000F0000895CF93C82F61E089E10E949A026C2F86
:1001000082E00E94150361E088E10E949A028FEC70
:1001100097E00197F1F700C0000060E088E10E94DD
:100120009A028FEC97E00197F1F700C00000CF91A1
:1001300008952FE788E391E0215080409040E1F757
:1001400000C0000088E30E9459008CE00E94590022
:1001500081E00E9459008FEC97E00197F1F700C011
:10016000000086E00C945900811103C0862F80683E
:1001700004C0813021F4862F806C0C9459000895BE
:10018000CF93DF93EC018991882319F00E947900C5
:10019000FACFDF91CF9108950F931F93CF93DF9301
:1001A0008C0168EE73E00E949806CB01CAE0D0E0B3
:1001B000BE010E949806805D0E947900C80164E635
:1001C00070E00E949806CB01BE010E949806805DF7
:1001D0000E947900C801BE010E949806182FCB0129
:1001E000BE010E949806805D0E94790080E3810F25
:1001F000DF91CF911F910F910C94790080918A002B
:1002000090918B00A0918C00B0918D000196A11D62
:10021000B11D80938A0090938B00A0938C00B093C3
:100220008D00089580916000813061F482E08093B8
:10023000600086B597B5909389008093880080E030
:100240000C94B004823059F483E08093600086B54A
:1002500097B590938700809386000C94C40408950A
:100260000E94BB0120E040E060E082E00E94E803E1
:1002700081E00E94B0040E94990078940E94C0041A
:100280000E94BC0482E191E00E94CD048EEF90E0D8
:100290000E94C8041DBC1CBC61E088E00E949A0258
:1002A0008AE18A95F1F700C060E088E00E949A0236
:1002B000809160008330F0F3609186007091870038
:1002C0008091880090918900681B790B80E090E014
:1002D0000E949D0520E030E040E05FE30E942B0695
:1002E00026E933E44BE05DE30E942B066B017C01C1
:1002F00060E081E00E94B400C701B6010E946E0573
:10030000CB010E94CC0081E690E00E94C00083E611
:1003100090E00E94C00081E0809360000E94C004D1
:1003200081E00E94B004B6CF1F920F920FB60F92D9
:1003300011242F933F934F935F936F937F938F93EA
:100340009F93AF93BF93EF93FF93E0918E00F09153
:100350008F000995FF91EF91BF91AF919F918F9180
:100360007F916F915F914F913F912F910F900FBEB1
:100370000F901F901895CF93DF93E6E6F0E020EF03
:10038000A8EE38EF40E050E081E090E0719171110B
:100390003CC0483078F4BAB3EC01042E02C0CC0F54
:1003A000DD1F0A94E2F7BE017B2F762B7ABB7BB36D
:1003B00060953EC0383068F4B7B3BC01032E01C06D
:1003C000660F0A94EAF77B2F762B77BB78B360959C
:1003D0003FC0283068F4B4B3BC01022E01C0660FE0
:1003E0000A94EAF77B2F762B74BB75B3609540C0F7
:1003F000B1B3BC010A2E01C0660F0A94EAF77B2F45
:10040000762B71BB72B3609541C0713009F040C06A
:10041000483080F4BAB3EC01042E02C0CC0FDD1FCB
:100420000A94E2F7BE0160957B2F76237ABB7BB3FB
:10043000672342C0383070F4B7B3BC01032E01C04B
:10044000660F0A94EAF760957B2F762377BB78B323
:10045000672343C0283070F4B4B3BC01022E01C03E
:10046000660F0A94EAF760957B2F762374BB75B309
:10047000672344C0B1B3BC010A2E01C0660F0A94C1
:10048000EAF760957B2F762371BB72B3672345C073
:10049000723009F043C0483088F4BAB3EC01042E3E
:1004A00002C0CC0FDD1F0A94E2F7BE017C2F7095CD
:1004B0007B237ABB7BB3672B6BBB30C0383078F4BF
:1004C000B7B3BC01032E01C0660F0A94EAF7762F7A
:1004D00070957B2377BB78B3672B68BB1FC0283030
:1004E00078F4B4B3BC01022E01C0660F0A94EAF797
:1004F000762F70957B2374BB75B3672B65BB0EC0DD
:10050000B1B3BC010A2E01C0660F0A94EAF7762F38
:1005100070957B2371BB72B3672B62BB4F5F5F4FDC
:100520003F5FAF5F2F5F4032510509F02FCFDF9162
:10053000CF91089561113CC0883068F44BB321E03D
:1005400030E0B90102C0660F771F8A95E2F7CB0150
:10055000809584233CC038EF380F383050F428B3EE
:1005600081E090E001C0880F3A95EAF780958223F8
:100570003CC030EF380F383050F425B381E090E0C4
:1005800001C0880F3A95EAF7809582233CC08851D4
:10059000883008F049C042B321E030E0B90102C020
:1005A000660F771F8A95E2F7CB01809584233BC0C5
:1005B0006130D1F5883068F44BB321E030E0B90107
:1005C00002C0660F771F8A95E2F7CB01842B8BBBA5
:1005D000089528EF280F283050F438B381E090E0D8
:1005E00001C0880F2A95EAF7832B88BB089520EF76
:1005F000280F283050F435B381E090E001C0880F17
:100600002A95EAF7832B85BB08958851883060F4DA
:1006100042B321E030E0B90102C0660F771F8A952E
:10062000E2F7CB01842B82BB0895813041F028F0A2
:10063000823039F0833039F008956BBB089568BB80
:10064000089565BB089562BB08951F920F920FB67F
:100650000F9211242F933F934F935F936F937F9348
:100660008F939F93AF93BF93EF93FF93E091940089
:10067000F09195000995FF91EF91BF91AF919F91F6
:100680008F917F916F915F914F913F912F910F903B
:100690000FBE0F901F9018951F920F920FB60F92DA
:1006A00011242F933F934F935F936F937F938F9377
:1006B0009F93AF93BF93EF93FF93E0919200F091DC
:1006C00093000995FF91EF91BF91AF919F918F9109
:1006D0007F916F915F914F913F912F910F900FBE3E
:1006E0000F901F9018951F920F920FB60F92112422
:1006F0002F933F934F935F936F937F938F939F932A
:10070000AF93BF93EF93FF93E0919000F09191002E
:100710000995FF91EF91BF91AF919F918F917F913B
:100720006F915F914F913F912F910F900FBE0F905E
:100730001F9018951F920F920FB60F9211242F93AE
:100740003F934F935F936F937F938F939F93AF9359
:10075000BF93EF93FF93E0919800F0919900099572
:10076000FF91EF91BF91AF919F918F917F916F9189
:100770005F914F913F912F910F900FBE0F901F905F
:1007800018951F920F920FB60F9211242F933F933B
:100790004F935F936F937F938F939F93AF93BF9389
:1007A000EF93FF93E0919600F09197000995FF91E8
:1007B000EF91BF91AF919F918F917F916F915F91D9
:1007C0004F913F912F910F900FBE0F901F90189552
:1007D000823099F038F4882369F0813051F58EB574
:1007E0008B7F20C08430A9F070F0853011F58EB574
:1007F000846018C08EB58B7F0EC08EB58B7F8EBD8A
:100800008EB582600BC08EB58B7F8EBD8EB582603B
:100810000CC08EB584608EBD8EB58D7F8EBD8EB5BD
:100820008E7F06C08EBD8EB58D7F8EBD8EB58160EC
:100830008EBD862F90E08031910508F05CC0FC01F0
:10084000E65DFF4F0C94AC068EB58F7E20C08EB552
:100850008F7E23C08EB58F7E29C08EB58F7E2CC033
:100860008EB58F7E8EBD8EB588608EBD8FB58D7F27
:1008700032C08EB58F7E8EBD8EB5886011C08EB5AC
:100880008F7E23C08EB58F7E2CC08EB580618EBDCD
:100890008EB5877FEACF8EB580618EBD8EB5877F9E
:1008A0008EBD8FB58D7F23C08EB580618EBD8EB518
:1008B000877F0EC08EB580618EBD8EB5877F14C0D8
:1008C0008EB58061CFCF8EB580618EBD8EB58860CC
:1008D0008EBD8FB582608FBD8FB58E7F0BC08EB5FC
:1008E00080618EBD8EB588608EBD8FB582608FBDF4
:1008F0008FB581608FBD413059F038F0423059F0EA
:10090000433099F48FB580680CC08FB58F7705C0E0
:100910008FB58F7706C08FB580688FBD8FB58F7B01
:1009200003C08FBD8FB580648FBD213049F028F0A2
:10093000223049F0233069F008958FB58F7D05C0CE
:100940008FB58F7D08C08FB580628FBD8FB58F7ECC
:1009500005C08FB580628FBD8FB580618FBD089552
:10096000882319F0813021F008958EB58F7B02C065
:100970008EB580648EBD089589B7846089BF08955F
:1009800089B7806289BF089589B78F7D89BF08952F
:1009900090939D0080939C00089590939B0080937A
:1009A0009A0008951F920F920FB60F9211242F9361
:1009B0003F934F935F936F937F938F939F93AF93E7
:1009C000BF93EF93FF93E091A000F091A1000995F0
:1009D000FF91EF91BF91AF919F918F917F916F9117
:1009E0005F914F913F912F910F900FBE0F901F90ED
:1009F00018951F920F920FB60F9211242F933F93C9
:100A00004F935F936F937F938F939F93AF93BF9316
:100A1000EF93FF93E0919E00F0919F000995FF9165
:100A2000EF91BF91AF919F918F917F916F915F9166
:100A30004F913F912F910F900FBE0F901F901895DF
:100A40001F920F920FB60F9211242F933F934F9343
:100A50005F936F937F938F939F93AF93BF93EF9326
:100A6000FF93E0919C00F0919D000995FF91EF911B
:100A7000BF91AF919F918F917F916F915F914F91B6
:100A80003F912F910F900FBE0F901F9018951F92BE
:100A90000F920FB60F9211242F933F934F935F93B2
:100AA0006F937F938F939F93AF93BF93EF93FF9336
:100AB000E0919A00F0919B000995FF91EF91BF9111
:100AC000AF919F918F917F916F915F914F913F91E6
:100AD0002F910F900FBE0F901F9018950E940A063D
:100AE00088F09F5798F0B92F9927B751B0F0E1F0EF
:100AF000660F771F881F991F1AF0BA95C9F714C09F
:100B0000B13091F00E942406B1E008950C942406BF
:100B1000672F782F8827B85F39F0B93FCCF38695D7
:100B200077956795B395D9F73EF490958095709534
:100B300061957F4F8F4F9F4F0895E89409C097FBB1
:100B40003EF490958095709561957F4F8F4F9F4FA4
:100B50009923A9F0F92F96E9BB279395F6958795E8
:100B600077956795B795F111F8CFFAF4BB0F11F4AB
:100B700060FF1BC06F5F7F4F8F4F9F4F16C0882352
:100B800011F096E911C0772321F09EE8872F762F88
:100B900005C0662371F096E8862F70E060E02AF0C9
:100BA0009A95660F771F881FDAF7880F96958795B5
:100BB00097F9089597F99F6780E870E060E00895DD
:100BC0009FEF80EC089500240A9416161706180665
:100BD0000906089500240A94121613061406050641
:100BE0000895092E0394000C11F4882352F0BB0FD2
:100BF00040F4BF2B11F460FF04C06F5F7F4F8F4F35
:100C00009F4F089557FD9058440F551F59F05F3F6F
:100C100071F04795880F97FB991F61F09F3F79F01E
:100C200087950895121613061406551FF2CF4695A0
:100C3000F1DF08C0161617061806991FF1CF869522
:100C40007105610508940895E894BB276627772706
:100C5000CB0197F908950E943E060C94F1050E947D
:100C6000E30538F00E94EA0520F0952311F00C947A
:100C7000DA050C94E00511240C9425060E94020666
:100C800070F3959FC1F3950F50E0551F629FF001DF
:100C9000729FBB27F00DB11D639FAA27F00DB11DF8
:100CA000AA1F649F6627B00DA11D661F829F222781
:100CB000B00DA11D621F739FB00DA11D621F839F08
:100CC000A00D611D221F749F3327A00D611D231FDE
:100CD000849F600D211D822F762F6A2F11249F572C
:100CE00050409AF0F1F088234AF0EE0FFF1FBB1F2F
:100CF000661F771F881F91505040A9F79E3F5105EE
:100D000080F00C94DA050C9425065F3FE4F3983EDE
:100D1000D4F3869577956795B795F795E7959F5F97
:100D2000C1F7FE2B880F911D9695879597F9089529
:100D300097FB072E16F4009407D077FD09D00E9488
:100D4000B20607FC05D03EF4909581959F4F08951B
:100D5000709561957F4F0895EE0FFF1F0590F491F8
:100D6000E02D0994AA1BBB1B51E107C0AA1FBB1FA2
:100D7000A617B70710F0A61BB70B881F991F5A9527
:100D8000A9F780959095BC01CD010895F894FFCF07
:100D9000012000636D00000000010101010100005D
:100DA0000000000000000000000000000000000043
:060DB00001020000010039
:00000001FF
