S014000061746D65676133325F4543552E7372656300
S11300000C942A000C9447000C9447000C9447006D
S11300100C9447000C9447000C9447000C94470040
S11300200C9447000C9447000C9447000C94470030
S11300300C9447000C9447000C9447000C94470020
S11300400C9447000C9447000C9447000C94470010
S11300500C94470011241FBECFE5D8E0DEBFCDBF0E
S113006010E0A0E6B0E0EEE7FCE002C005900D92DF
S1130070AC38B107D9F720E0ACE8B0E001C01D927C
S1130080AC38B207E1F70E946B020C943D060C9465
S11300900000CF93C82F60E089E00E94C703C4FB2F
S11300A0662760F984E00E94C703C5FB662760F9F0
S11300B085E00E94C703C6FB662760F986E00E94BC
S11300C0C7036C2F661F6627661F87E00E94C7035D
S11300D061E088E00E94C7038FEC97E00197F1F795
S11300E000C0000060E088E00E94C7038FEC97E046
S11300F00197F1F700C000006C2F617084E00E944A
S1130100C703C1FB662760F985E00E94C703C2FBF1
S1130110662760F986E00E94C703C3FB662760F97F
S113012087E00E94C70361E088E00E94C7038FEC68
S113013097E00197F1F700C0000060E088E00E94BA
S1130140C7038FEC97E00197F1F700C00000CF914F
S11301500895CF93C82F61E089E00E94C703C4FBD0
S1130160662760F984E00E94C703C5FB662760F92F
S113017085E00E94C703C6FB662760F986E00E94FB
S1130180C7036C2F661F6627661F87E00E94C7039C
S113019061E088E00E94C7038FEC97E00197F1F7D4
S11301A000C0000060E088E00E94C7038FEC97E085
S11301B00197F1F700C000006C2F617084E00E9489
S11301C0C703C1FB662760F985E00E94C703C2FB31
S11301D0662760F986E00E94C703C3FB662760F9BF
S11301E087E00E94C70361E088E00E94C7038FECA8
S11301F097E00197F1F700C0000060E088E00E94FA
S1130200C7038FEC97E00197F1F700C00000CF918E
S113021008952FE788E391E0215080409040E1F772
S113022000C0000082E20E94490060E089E00E9470
S1130230C70360E084E00E94C70360E085E00E9499
S1130240C70360E086E00E94C70361E087E00E9484
S1130250C70361E088E00E94C7038FEC97E0019731
S1130260F1F700C0000060E088E00E94C7038FEC53
S113027097E00197F1F700C000008EE00E9449006A
S113028081E00E9449008FEC97E00197F1F700C0EC
S1130290000086E00C94490081E00E9449008FEC44
S11302A097E00197F1F700C000000895811102C0A2
S11302B0862F04C0813029F480E4860F80680C9472
S11302C0490008950C94A9000F931F93CF938C01B8
S11302D0C0E0F801EC0FF11D8081882321F00E9419
S11302E0A900CF5FF6CFCF911F910F9108958F9200
S11302F09F92AF92BF92CF92DF92EF92FF92CF93F1
S1130300611571058105910561F480E3CF91FF903A
S1130310EF90DF90CF90BF90AF909F908F900C9410
S1130320A9006B017C0197FF0AC08DE20E94A9001D
S113033066277727CB016C197D098E099F090E94D6
S1130340E5046B017C01C0E020E030E040E85FE3BD
S1130350C701B6010E94710587FD0CC020E030E0A2
S113036040E251E4C701B6010E9442046B017C01E2
S1130370CF5FEACF8AE0882E912CA12CB12CCC231C
S1130380B1F020E030E040E251E4C701B6010E9440
S113039076056B017C010E94B404A50194010E94BE
S11303A01B0680E3860F0E94A900C150E8CFCF91BD
S11303B0FF90EF90DF90CF90BF90AF909F908F9081
S11303C008950F931F93CF93DF938C0168EE73E02E
S11303D00E940706CB01CAE0D0E0BE010E940706D6
S11303E0805D0E94A900C80164E670E00E940706CF
S11303F0CB01BE010E940706805D0E94A900C801CE
S1130400BE010E940706182FCB01BE010E940706F9
S1130410805D0E94A90080E3810FDF91CF911F913D
S11304200F910C94A9000F931F93CF93DF93C7E010
S1130430D0E020E0082F10E0C8010C2E02C09595F2
S113044087950A94E2F780FD02C0222329F0817087
S1130450805D0E94A90021E0219770F7DF91CF9180
S11304601F910F910895CF93DF93D82FD295DF700A
S1130470C82FCF7080E30E94A90088E70E94A900DA
S1130480DA3010F480E301C087E38D0F0E94A900E5
S1130490CA3010F480E301C087E38C0FDF91CF9161
S11304A00C94A900CF93DF93C82FD62F0E94560136
S11304B080E20E94A9006D2F8C2FDF91CF910C94C4
S11304C05601CF93DF93EA010E945601CE01DF91DA
S11304D0CF910C946401CF930E94E8020E94090119
S11304E081E40E94620182E40E94620183E40E942A
S11304F0620184E40E9462012FEF89E698E12150B1
S113050080409040E1F700C0000061E080E00E947C
S113051052022FEF89E698E1215080409040E1F7A4
S113052000C000000E944C0180E690E00E9464013B
S113053066E080E00E94560189E00E9413026DE0AB
S113054081E00E9456016CEF79EF8FEF9FEF0E94DC
S113055077016DE080E00E9456018DE290E00E94F8
S1130560E10166E081E00E9456018FE10E943302BE
S113057060E081E00E94560146E650E060E081E0E0
S11305800E946102C0E06C2F80E00E9456012FEFB0
S113059089E698E1215080409040E1F700C00000D6
S11305A0CF5FC43181F7C0E06C2F81E00E94560117
S11305B02FEF89E698E1215080409040E1F700C098
S11305C00000CF5FC43181F780E090E0CF910895BF
S11305D0CF93DF93EBE6F0E020EFA8EE38EF40E0B6
S11305E050E081E090E0719171113CC0483078F4A2
S11305F0BAB3EC01042E02C0CC0FDD1F0A94E2F75B
S1130600BE017B2F762B7ABB7BB360953EC038301E
S113061068F4B7B3BC01032E01C0660F0A94EAF76D
S11306207B2F762B77BB78B360953FC0283068F476
S1130630B4B3BC01022E01C0660F0A94EAF77B2F03
S1130640762B74BB75B3609540C0B1B3BC010A2E60
S113065001C0660F0A94EAF77B2F762B71BB72B345
S1130660609541C0713009F040C0483080F4BAB39D
S1130670EC01042E02C0CC0FDD1F0A94E2F7BE0188
S113068060957B2F76237ABB7BB3672342C03830D7
S113069070F4B7B3BC01032E01C0660F0A94EAF7E5
S11306A060957B2F762377BB78B3672343C02830CC
S11306B070F4B4B3BC01022E01C0660F0A94EAF7C9
S11306C060957B2F762374BB75B3672344C0B1B3A5
S11306D0BC010A2E01C0660F0A94EAF760957B2FCD
S11306E0762371BB72B3672345C0723009F043C0EF
S11306F0483088F4BAB3EC01042E02C0CC0FDD1FDD
S11307000A94E2F7BE017C2F70957B237ABB7BB3FE
S1130710672B6BBB30C0383078F4B7B3BC01032E01
S113072001C0660F0A94EAF7762F70957B2377BB96
S113073078B3672B68BB1FC0283078F4B4B3BC010E
S1130740022E01C0660F0A94EAF7762F70957B2378
S113075074BB75B3672B65BB0EC0B1B3BC010A2E65
S113076001C0660F0A94EAF7762F70957B2371BB5C
S113077072B3672B62BB4F5F5F4F3F5FAF5F2F5F0B
S11307804032510509F02FCFDF91CF9108956111C7
S11307903CC0883068F44BB321E030E0B90102C0BA
S11307A0660F771F8A95E2F7CB01809584233CC0BE
S11307B038EF380F383050F428B381E090E001C0AE
S11307C0880F3A95EAF7809582233CC030EF380FC2
S11307D0383050F425B381E090E001C0880F3A9599
S11307E0EAF7809582233CC08851883008F049C0DC
S11307F042B321E030E0B90102C0660F771F8A9549
S1130800E2F7CB01809584233BC06130D1F5883079
S113081068F44BB321E030E0B90102C0660F771FE2
S11308208A95E2F7CB01842B8BBB089528EF280F20
S1130830283050F438B381E090E001C0880F2A9545
S1130840EAF7832B88BB089520EF280F283050F453
S113085035B381E090E001C0880F2A95EAF7832B35
S113086085BB08958851883060F442B321E030E0BC
S1130870B90102C0660F771F8A95E2F7CB01842B7A
S113088082BB08950E9456040C9437050E943005DB
S113089058F00E94290540F029F45F3F29F00C9498
S11308A0200551110C946B050C9426050E944805F3
S11308B068F39923B1F3552391F3951B550BBB278B
S11308C0AA2762177307840738F09F5F5F4F220FD0
S11308D0331F441FAA1FA9F335D00E2E3AF0E0E8C7
S11308E032D091505040E695001CCAF72BD0FE2F11
S11308F029D0660F771F881FBB1F261737074807A5
S1130900AB07B0E809F0BB0B802DBF01FF2793585C
S11309105F4F3AF09E3F510578F00C9420050C94FB
S11309206B055F3FE4F3983ED4F38695779567951E
S1130930B795F7959F5FC9F7880F911D9695879591
S113094097F90895E1E0660F771F881FBB1F6217B0
S113095073078407BA0720F0621B730B840BBA0B6E
S1130960EE1F88F7E09508950E94500588F09F5780
S113097098F0B92F9927B751B0F0E1F0660F771FBF
S1130980881F991F1AF0BA95C9F714C0B13091F0B5
S11309900E946A05B1E008950C946A05672F782FC8
S11309A08827B85F39F0B93FCCF38695779567957A
S11309B0B395D9F73EF490958095709561957F4FE6
S11309C08F4F9F4F0895E89409C097FB3EF490958C
S11309D08095709561957F4F8F4F9F4F9923A9F014
S11309E0F92F96E9BB279395F695879577956795A3
S11309F0B795F111F8CFFAF4BB0F11F460FF1BC0E7
S1130A006F5F7F4F8F4F9F4F16C0882311F096E979
S1130A1011C0772321F09EE8872F762F05C0662327
S1130A2071F096E8862F70E060E02AF09A95660FE0
S1130A30771F881FDAF7880F9695879597F9089599
S1130A4097F99F6780E870E060E008959FEF80EC7D
S1130A50089500240A941616170618060906089520
S1130A6000240A9412161306140605060895092E86
S1130A700394000C11F4882352F0BB0F40F4BF2BF5
S1130A8011F460FF04C06F5F7F4F8F4F9F4F089535
S1130A9057FD9058440F551F59F05F3F71F047952B
S1130AA0880F97FB991F61F09F3F79F08795089510
S1130AB0121613061406551FF2CF4695F1DF08C02F
S1130AC0161617061806991FF1CF8695710561054C
S1130AD008940895E894BB2766277727CB0197F9F4
S1130AE008950E94E30508F48FEF08950E94890594
S1130AF00C9437050E94290538F00E94300520F037
S1130B00952311F00C9420050C94260511240C94C3
S1130B106B050E94480570F3959FC1F3950F50E053
S1130B20551F629FF001729FBB27F00DB11D639F9B
S1130B30AA27F00DB11DAA1F649F6627B00DA11D41
S1130B40661F829F2227B00DA11D621F739FB00DE7
S1130B50A11D621F839FA00D611D221F749F332757
S1130B60A00D611D231F849F600D211D822F762FF0
S1130B706A2F11249F5750409AF0F1F088234AF0CD
S1130B80EE0FFF1FBB1F661F771F881F9150504039
S1130B90A9F79E3F510580F00C9420050C946B0539
S1130BA05F3FE4F3983ED4F3869577956795B795C0
S1130BB0F795E7959F5FC1F7FE2B880F911D9695DA
S1130BC0879597F90895990F0008550FAA0BE0E847
S1130BD0FEEF16161706E807F907C0F012161306FB
S1130BE0E407F50798F0621B730B840B950B39F43B
S1130BF00A2661F0232B242B252B21F408950A26A1
S1130C0009F4A140A6958FEF811D811D0895AA1BAB
S1130C10BB1B51E107C0AA1FBB1FA617B70710F0E3
S1130C20A61BB70B881F991F5A95A9F78095909515
S1130C30BC01CD010895A1E21A2EAA1BBB1BFD0124
S1130C400DC0AA1FBB1FEE1FFF1FA217B307E407A7
S1130C50F50720F0A21BB30BE40BF50B661F771FFF
S1130C60881F991F1A9469F76095709580959095DF
S1110C709B01AC01BD01CF010895F894FFCFA4
S1130C7E41686D656400616C6161000000000000F4
S1130C8E0000000000000000000000000000000052
S10F0C9E00000000000000000000000046
S9030000FC
