:100000000C9441000C945E000C945E000C945E0015
:100010000C945E000C945E000C945E000C945E00E8
:100020000C945E000C945E000C945E000C945E00D8
:100030000C945E000C945E000C945E000C945E00C8
:100040000C945E000C945E000C945E000C945E00B8
:100050000C945E0068026A026C026E027102740205
:10006000780291029302950299029B029E02A102DC
:10007000A302B302B502B702BB02BD02C002C302B3
:10008000C50211241FBECFE5D8E0DEBFCDBF10E012
:10009000A0E6B0E0E2E7FCE002C005900D92A238D5
:1000A000B107D9F720E0A2E8B0E001C01D92A23864
:1000B000B207E1F70E940F020C9437060C9400007F
:1000C000CF93C82F60E089E10E94BB03C4FB662781
:1000D00060F984E10E94BB03C5FB662760F985E1F6
:1000E0000E94BB03C6FB662760F986E10E94BB0342
:1000F0006C2F661F6627661F87E10E94BB0361E0C5
:1001000088E10E94BB038FEC97E00197F1F700C0F4
:10011000000060E088E10E94BB036C2F617084E105
:100120000E94BB03C1FB662760F985E10E94BB0307
:10013000C2FB662760F986E10E94BB03C3FB66270A
:1001400060F987E10E94BB0361E088E10E94BB0384
:100150008FEC97E00197F1F700C0000060E088E1C4
:100160000E94BB038FEC97E00197F1F700C00000FD
:10017000CF910895CF93C82F61E089E10E94BB031E
:10018000C4FB662760F984E10E94BB03C5FB6627B8
:1001900060F985E10E94BB03C6FB662760F986E132
:1001A0000E94BB036C2F661F6627661F87E10E94B3
:1001B000BB0361E088E10E94BB038FEC97E00197ED
:1001C000F1F700C0000060E088E10E94BB036C2FE3
:1001D000617084E10E94BB03C1FB662760F985E181
:1001E0000E94BB03C2FB662760F986E10E94BB0345
:1001F000C3FB662760F987E10E94BB0361E088E1E9
:100200000E94BB038FEC97E00197F1F700C000005C
:1002100060E088E10E94BB038FEC97E00197F1F763
:1002200000C00000CF9108952FE788E391E02150AE
:1002300080409040E1F700C0000082E20E94600030
:1002400060E089E10E94BB0360E086E10E94BB039D
:1002500061E087E10E94BB0361E088E10E94BB038B
:100260008FEC97E00197F1F700C0000060E088E1B3
:100270000E94BB038FEC97E00197F1F700C00000EC
:100280008EE00E94600081E00E9460008FEC97E0A9
:100290000197F1F700C0000086E00C946000811126
:1002A00002C0862F04C0813029F480E4860F806864
:1002B0000C94600008958F929F92AF92BF92CF925C
:1002C000DF92EF92FF92CF93611571058105910541
:1002D00061F480E3CF91FF90EF90DF90CF90BF90DB
:1002E000AF909F908F900C94BA006B017C0197FFA8
:1002F0000AC08DE20E94BA0066277727CB016C19ED
:100300007D098E099F090E94D9046B017C01C0E020
:1003100020E030E040E85FE3C701B6010E946505D8
:1003200087FD0CC020E030E040E251E4C701B60197
:100330000E9436046B017C01CF5FEACF8AE0882EF1
:10034000912CA12CB12CCC23B1F020E030E040E284
:1003500051E4C701B6010E946A056B017C010E944D
:10036000A804A50194010E940F0680E3860F0E9455
:10037000BA00C150E8CFCF91FF90EF90DF90CF90BF
:10038000BF90AF909F908F9008950F931F93CF933E
:10039000DF938C0168EE73E00E94FB05CB01CAE09D
:1003A000D0E0BE010E94FB05805D0E94BA00C8013A
:1003B00064E670E00E94FB05CB01BE010E94FB05D4
:1003C000805D0E94BA00C801BE010E94FB05182F83
:1003D000CB01BE010E94FB05805D0E94BA0080E354
:1003E000810FDF91CF911F910F910C94BA0087E09C
:1003F0000E94A802BC0180E090E00E94D70420E0A7
:1004000030E048EC52E40E946A0520E030EC4FE70F
:1004100054E40E9436040E94A804862F0895CF93C6
:10042000DF9300D0CDB7DEB70E94DC0266E081E04A
:100430000E9451020E947C020E94140110E060E0C0
:1004400080E00E944F01612F70E080E090E00E9408
:100450005B011F5F1A3009F410E060E081E00E9448
:100460004F0187E00E947E02CE0101960E94CE02DB
:10047000882321F089819A810E94C50166E081E08C
:100480000E944F010E94F70190E00E94C5012FEFEA
:1004900085EA9EE0215080409040E1F700C00000D6
:1004A000CECF813041F020F0833039F43F9A04C040
:1004B0003F983E9802C03F983E9A862F90E0FC01FC
:1004C0003197E730F105B8F4E65DFF4F0C94310643
:1004D000329808C0329809C032980BC0329A3198CD
:1004E00005C0329A319806C0329A319A30980895F0
:1004F000329A319A309A0895379A0895E82F809168
:100500006000813021F5109260008E2F90E08830DD
:100510009105E0F4FC01EF5CFF4F3C983B980C9494
:1005200031063A9809C03A980AC03A98399A3898E8
:100530000DC03A9809C03A9A3998F9CF3A9A399841
:1005400004C03A9AF3CF3A9A399A389A369A08956B
:1005500090E088309105E0F4FC01E75CFF4F3C98A7
:100560003B980C9431063A9809C03A980AC03A98D8
:10057000399A38980DC03A9809C03A9A3998F9CF03
:100580003A9A399804C03A9AF3CF3A9A399A389AF3
:10059000369A3699FECF84B195B10895FC0196B193
:1005A000892F807496FF07C084B195B191838083B1
:1005B00081E0809360000895CF93DF93E1E6F0E05F
:1005C00020EFA8EE38EF40E050E081E090E071913C
:1005D00071113CC0483078F4BAB3EC01042E02C06B
:1005E000CC0FDD1F0A94E2F7BE017B2F762B7ABB7E
:1005F0007BB360953EC0383068F4B7B3BC01032EBE
:1006000001C0660F0A94EAF77B2F762B77BB78B38D
:1006100060953FC0283068F4B4B3BC01022E01C01D
:10062000660F0A94EAF77B2F762B74BB75B360953F
:1006300040C0B1B3BC010A2E01C0660F0A94EAF7AC
:100640007B2F762B71BB72B3609541C0713009F07E
:1006500040C0483080F4BAB3EC01042E02C0CC0F85
:10066000DD1F0A94E2F7BE0160957B2F76237ABBEB
:100670007BB3672342C0383070F4B7B3BC01032E9C
:1006800001C0660F0A94EAF760957B2F762377BB4B
:1006900078B3672343C0283070F4B4B3BC01022E92
:1006A00001C0660F0A94EAF760957B2F762374BB2E
:1006B00075B3672344C0B1B3BC010A2E01C0660FF5
:1006C0000A94EAF760957B2F762371BB72B3672398
:1006D00045C0723009F043C0483088F4BAB3EC0129
:1006E000042E02C0CC0FDD1F0A94E2F7BE017C2F5E
:1006F00070957B237ABB7BB3672B6BBB30C03830E4
:1007000078F4B7B3BC01032E01C0660F0A94EAF770
:10071000762F70957B2377BB78B3672B68BB1FC0A0
:10072000283078F4B4B3BC01022E01C0660F0A94DD
:10073000EAF7762F70957B2374BB75B3672B65BB87
:100740000EC0B1B3BC010A2E01C0660F0A94EAF7CD
:10075000762F70957B2371BB72B3672B62BB4F5FA3
:100760005F4F3F5FAF5F2F5F4032510509F02FCFE2
:10077000DF91CF91089561113CC0883068F44BB38C
:1007800021E030E0B90102C0660F771F8A95E2F7D9
:10079000CB01809584233CC038EF380F383050F4BB
:1007A00028B381E090E001C0880F3A95EAF7809580
:1007B00082233CC030EF380F383050F425B381E04D
:1007C00090E001C0880F3A95EAF7809582233CC0FB
:1007D0008851883008F049C042B321E030E0B901C7
:1007E00002C0660F771F8A95E2F7CB0180958423BC
:1007F0003BC06130D1F5883068F44BB321E030E084
:10080000B90102C0660F771F8A95E2F7CB01842BEE
:100810008BBB089528EF280F283050F438B381E0BF
:1008200090E001C0880F2A95EAF7832B88BB0895D2
:1008300020EF280F283050F435B381E090E001C05C
:10084000880F2A95EAF7832B85BB08958851883055
:1008500060F442B321E030E0B90102C0660F771FB7
:100860008A95E2F7CB01842B82BB08950E944A044B
:100870000C942B050E94240558F00E941D0540F0A1
:1008800029F45F3F29F00C94140551110C945F0575
:100890000C941A050E943C0568F39923B1F3552383
:1008A00091F3951B550BBB27AA2762177307840783
:1008B00038F09F5F5F4F220F331F441FAA1FA9F319
:1008C00035D00E2E3AF0E0E832D091505040E69507
:1008D000001CCAF72BD0FE2F29D0660F771F881F68
:1008E000BB1F261737074807AB07B0E809F0BB0B5B
:1008F000802DBF01FF2793585F4F3AF09E3F51056F
:1009000078F00C9414050C945F055F3FE4F3983E77
:10091000D4F3869577956795B795F7959F5FC9F757
:10092000880F911D9695879597F90895E1E0660FD8
:10093000771F881FBB1F621773078407BA0720F051
:10094000621B730B840BBA0BEE1F88F7E0950895BA
:100950000E94440588F09F5798F0B92F9927B75106
:10096000B0F0E1F0660F771F881F991F1AF0BA9553
:10097000C9F714C0B13091F00E945E05B1E008954E
:100980000C945E05672F782F8827B85F39F0B93F40
:10099000CCF3869577956795B395D9F73EF4909506
:1009A0008095709561957F4F8F4F9F4F0895E89484
:1009B00009C097FB3EF490958095709561957F4FA7
:1009C0008F4F9F4F9923A9F0F92F96E9BB27939555
:1009D000F695879577956795B795F111F8CFFAF465
:1009E000BB0F11F460FF1BC06F5F7F4F8F4F9F4F96
:1009F00016C0882311F096E911C0772321F09EE8F4
:100A0000872F762F05C0662371F096E8862F70E059
:100A100060E02AF09A95660F771F881FDAF7880F33
:100A20009695879597F9089597F99F6780E870E004
:100A300060E008959FEF80EC089500240A94161654
:100A4000170618060906089500240A9412161306BC
:100A5000140605060895092E0394000C11F488234A
:100A600052F0BB0F40F4BF2B11F460FF04C06F5F66
:100A70007F4F8F4F9F4F089557FD9058440F551F3C
:100A800059F05F3F71F04795880F97FB991F61F010
:100A90009F3F79F087950895121613061406551F87
:100AA000F2CF4695F1DF08C0161617061806991FF3
:100AB000F1CF86957105610508940895E894BB27E8
:100AC00066277727CB0197F908950E94D70508F488
:100AD0008FEF08950E947D050C942B050E941D0543
:100AE00038F00E94240520F0952311F00C94140591
:100AF0000C941A0511240C945F050E943C0570F3B8
:100B0000959FC1F3950F50E0551F629FF001729FB2
:100B1000BB27F00DB11D639FAA27F00DB11DAA1FC1
:100B2000649F6627B00DA11D661F829F2227B00D0E
:100B3000A11D621F739FB00DA11D621F839FA00D99
:100B4000611D221F749F3327A00D611D231F849FE9
:100B5000600D211D822F762F6A2F11249F57504040
:100B60009AF0F1F088234AF0EE0FFF1FBB1F661FBB
:100B7000771F881F91505040A9F79E3F510580F084
:100B80000C9414050C945F055F3FE4F3983ED4F396
:100B9000869577956795B795F795E7959F5FC1F728
:100BA000FE2B880F911D9695879597F90895990FBB
:100BB0000008550FAA0BE0E8FEEF16161706E80727
:100BC000F907C0F012161306E407F50798F0621B48
:100BD000730B840B950B39F40A2661F0232B242B1D
:100BE000252B21F408950A2609F4A140A6958FEF3C
:100BF000811D811D0895AA1BBB1B51E107C0AA1FBF
:100C0000BB1FA617B70710F0A61BB70B881F991FAD
:100C10005A95A9F780959095BC01CD010895A1E260
:100C20001A2EAA1BBB1BFD010DC0AA1FBB1FEE1F66
:100C3000FF1FA217B307E407F50720F0A21BB30BB1
:100C4000E40BF50B661F771F881F991F1A9469F72D
:100C500060957095809590959B01AC01BD01CF0189
:100C60000895EE0FFF1F0590F491E02D0994F8947C
:020C7000FFCFB4
:100C72000101010101010101010000000000000069
:100C8200000202020200000000000000000000005A
:020C9200000060
:00000001FF
