:100000000C942A000C94C9030C94F2030C941B0466
:100010000C9447000C9447000C943A050C94BF04D0
:100020000C94E8040C9411050C946D040C94960443
:100030000C9444040C9463050C94B5050C948C0545
:100040000C94E6010C9447000C9447000C94470074
:100050000C94470011241FBECFE5D8E0DEBFCDBF12
:1000600010E0A0E6B0E0E8EDFBE002C005900D92E4
:10007000A239B107D9F720E0A2E9B0E001C01D9292
:10008000A73BB207E1F70E94DF010C94EA050C944C
:100090000000809197008F5F8A3019F0809397005D
:1000A00002C0109297008091970080939500089568
:1000B000809196008F5F8A3019F08093960002C07D
:1000C00010929600809196008093940008958091FC
:1000D00095008093970080919400809396001092F1
:1000E000930081E080939200089581E090919300C5
:1000F000911180E080939300089588E10E94690344
:1001000081E090916000911180E0809360000895FB
:1001100090919700809196002AE0929F800D112483
:100120000C946F0180919300813091F4909197002D
:10013000809196002AE0929F800D1124882341F03F
:1001400081506AE00E94DE058093970090939600AC
:100150000895CF93DF93C0E0D0E0809160008130BC
:10016000B9F480919200811113C085E790E00E945C
:10017000ED0087E690E00E9405018DE790E00E9487
:100180001D010E9488002196C43F81E0D80729F70D
:10019000DF91CF91089580916000813051F40E94E9
:1001A000A90080919200811102C00E9492001092D9
:1001B000920008958091600081110EC089E490E062
:1001C0000E94ED0088E590E00E9405018DE790E037
:1001D0000E941D010C9488000895CF93DF93EC01D9
:1001E00080E10E94A40381110BC080919A008111CB
:1001F00009C081E080939A00FE01DF91CF910994BC
:1002000010929A00DF91CF910895CF93DF93EC0184
:1002100084E10E94A40381110BC080919900811197
:1002200009C081E080939900FE01DF91CF9109948C
:1002300010929900DF91CF910895CF93DF93EC0155
:100240008FE10E94A40381110BC08091980081115D
:1002500009C081E080939800FE01DF91CF9109945D
:1002600010929800DF91CF910895AF92CF92EF92C4
:100270000F931F93CF93DF93C82F862F142FD22F66
:100280006C2F61700E94EE02C1FB662760F9812F1E
:100290000E94EE02C2FB662760F98D2F0E94EE02DB
:1002A000C3FB662760F9802F0E94EE02C4FB66271D
:1002B00060F98E2D0E94EE02C5FB662760F98C2D39
:1002C0000E94EE02C6FB662760F98A2DDF91CF916E
:1002D0001F910F91EF90CF90AF900C94EE02AF92E0
:1002E000CF92EF920F93CF93C82F61E089E0C4368D
:1002F00098F50E94EE0260E088E00E94EE028C2FEA
:100300006AE00E94DE05C92FE82FF0E0EF59FF4FA9
:1003100037E0A32E46E0C42E55E0E52E04E023E0AE
:1003200042E061E080810E9435018FEC97E0019707
:10033000F1F700C0000061E088E00E94EE0260E09A
:1003400089E00E94EE02EC2FF0E0EF59FF4F23E02E
:1003500042E061E0808125C00E94EE0260E088E01A
:100360000E94EE0287E0A82E96E0C92E25E0E22E3C
:1003700004E023E042E061E080E00E9435018FEC80
:1003800097E00197F1F700C0000061E088E00E946B
:10039000EE0260E089E00E94EE0223E042E061E0CC
:1003A00080E00E9435018FEC97E00197F1F700C0E3
:1003B0000000CF910F91EF90CF90AF9008950E94E1
:1003C0000F020E94CB000E94DA00FBCF1F920F9217
:1003D0000FB60F9211242F933F934F935F936F9318
:1003E0007F938F939F93AF93BF93EF93FF93E0918E
:1003F0009B00F0919C00309709F00995FF91EF91D7
:10040000BF91AF919F918F917F916F915F914F912C
:100410003F912F910F900FBE0F901F901895CF9383
:10042000DF93E1E7F0E020EFA8EE38EF40E050E0A6
:1004300081E090E0719171113CC0483078F4BAB31A
:10044000EC01042E02C0CC0FDD1F0A94E2F7BE01BE
:100450007B2F762B7ABB7BB360953EC0383068F437
:10046000B7B3BC01032E01C0660F0A94EAF77B2FD5
:10047000762B77BB78B360953FC0283068F4B4B36F
:10048000BC01022E01C0660F0A94EAF77B2F762B7F
:1004900074BB75B3609540C0B1B3BC010A2E01C0F6
:1004A000660F0A94EAF77B2F762B71BB72B36095C7
:1004B00041C0713009F040C0483080F4BAB3EC015B
:1004C000042E02C0CC0FDD1F0A94E2F7BE01609536
:1004D0007B2F76237ABB7BB3672342C0383070F41E
:1004E000B7B3BC01032E01C0660F0A94EAF760950A
:1004F0007B2F762377BB78B3672343C0283070F413
:10050000B4B3BC01022E01C0660F0A94EAF76095ED
:100510007B2F762374BB75B3672344C0B1B3BC0192
:100520000A2E01C0660F0A94EAF760957B2F7623A6
:1005300071BB72B3672345C0723009F043C04830C5
:1005400088F4BAB3EC01042E02C0CC0FDD1F0A946C
:10055000E2F7BE017C2F70957B237ABB7BB3672BC0
:100560006BBB30C0383078F4B7B3BC01032E01C088
:10057000660F0A94EAF7762F70957B2377BB78B3E2
:10058000672B68BB1FC0283078F4B4B3BC01022EBF
:1005900001C0660F0A94EAF7762F70957B2374BB2F
:1005A00075B3672B65BB0EC0B1B3BC010A2E01C089
:1005B000660F0A94EAF7762F70957B2371BB72B3AE
:1005C000672B62BB4F5F5F4F3F5FAF5F2F5F403274
:1005D000510509F02FCFDF91CF91089561113CC0F3
:1005E000883068F44BB321E030E0B90102C0660FF7
:1005F000771F8A95E2F7CB01809584233CC038EFC2
:10060000380F383050F428B381E090E001C0880FF3
:100610003A95EAF7809582233CC030EF380F3830A6
:1006200050F425B381E090E001C0880F3A95EAF7D5
:10063000809582233CC08851883008F049C042B37D
:1006400021E030E0B90102C0660F771F8A95E2F71A
:10065000CB01809584233BC06130D1F5883068F4AC
:100660004BB321E030E0B90102C0660F771F8A95D5
:10067000E2F7CB01842B8BBB089528EF280F28309D
:1006800050F438B381E090E001C0880F2A95EAF772
:10069000832B88BB089520EF280F283050F435B302
:1006A00081E090E001C0880F2A95EAF7832B85BB93
:1006B00008958851883060F442B321E030E0B901F8
:1006C00002C0660F771F8A95E2F7CB01842B82BBAD
:1006D0000895883068F44BB321E030E0B90102C0DE
:1006E000660F771F8A95E2F7CB0184278BBB0895AD
:1006F00028EF280F283050F438B381E090E001C093
:10070000880F2A95EAF7832788BB089520EF280FE2
:10071000283050F435B381E090E001C0880F2A956D
:10072000EAF7832785BB08958851883060F442B387
:1007300021E030E0B90102C0660F771F8A95E2F729
:10074000CB01842782BB0895282F883010F499B3F9
:1007500016C038EF380F383010F486B305C030EFCC
:10076000380F383040F483B390E002C095958795F8
:100770003A95E2F70BC02851283050F490B3892FF6
:1007800090E002C0959587952A95E2F781700895CB
:1007900008951F920F920FB60F9211242F933F933B
:1007A0004F935F936F937F938F939F93AF93BF9379
:1007B000EF93FF93E091A100F091A200309709F030
:1007C0000995FF91EF91BF91AF919F918F917F918B
:1007D0006F915F914F913F912F910F900FBE0F90AE
:1007E0001F9018951F920F920FB60F9211242F93FE
:1007F0003F934F935F936F937F938F939F93AF93A9
:10080000BF93EF93FF93E0919F00F091A00030978A
:1008100009F00995FF91EF91BF91AF919F918F9151
:100820007F916F915F914F913F912F910F900FBEEC
:100830000F901F9018951F920F920FB60F921124D0
:100840002F933F934F935F936F937F938F939F93D8
:10085000AF93BF93EF93FF93E0919D00F0919E00C3
:10086000309709F00995FF91EF91BF91AF919F915A
:100870008F917F916F915F914F913F912F910F9049
:100880000FBE0F901F9018951F920F920FB60F92E8
:1008900011242F933F934F935F936F937F938F9385
:1008A0009F93AF93BF93EF93FF93E091A300F091D9
:1008B000A400309709F00995FF91EF91BF91AF9196
:1008C0009F918F917F916F915F914F913F912F9168
:1008D0000F900FBE0F901F9018951F920F920FB69A
:1008E0000F9211242F933F934F935F936F937F93B6
:1008F0008F939F93AF93BF93EF93FF93E091A700E4
:10090000F091A800309709F00995FF91EF91BF9100
:10091000AF919F918F917F916F915F914F913F9197
:100920002F910F900FBE0F901F9018951F920F924E
:100930000FB60F9211242F933F934F935F936F93B2
:100940007F938F939F93AF93BF93EF93FF93E09128
:10095000A500F091A600309709F00995FF91EF915D
:10096000BF91AF919F918F917F916F915F914F91C7
:100970003F912F910F900FBE0F901F9018951F92CF
:100980000F920FB60F9211242F933F934F935F93C3
:100990006F937F938F939F93AF93BF93EF93FF9347
:1009A000E091AF00F091B000309709F00995FF9108
:1009B000EF91BF91AF919F918F917F916F915F91D7
:1009C0004F913F912F910F900FBE0F901F90189550
:1009D0001F920F920FB60F9211242F933F934F93B4
:1009E0005F936F937F938F939F93AF93BF93EF9397
:1009F000FF93E091AD00F091AE00309709F00995BA
:100A0000FF91EF91BF91AF919F918F917F916F91E6
:100A10005F914F913F912F910F900FBE0F901F90BC
:100A200018951F920F920FB60F9211242F933F9398
:100A30004F935F936F937F938F939F93AF93BF93E6
:100A4000EF93FF93E091AB00F091AC00309709F089
:100A50000995FF91EF91BF91AF919F918F917F91F8
:100A60006F915F914F913F912F910F900FBE0F901B
:100A70001F9018951F920F920FB60F9211242F936B
:100A80003F934F935F936F937F938F939F93AF9316
:100A9000BF93EF93FF93E091A900F091AA003097E4
:100AA00009F00995FF91EF91BF91AF919F918F91BF
:100AB0007F916F915F914F913F912F910F900FBE5A
:100AC0000F901F9018951F920F920FB60F9211243E
:100AD0002F933F934F935F936F937F938F939F9346
:100AE000AF93BF93EF93FF93E091B500F091B60001
:100AF000309709F00995FF91EF91BF91AF919F91C8
:100B00008F917F916F915F914F913F912F910F90B6
:100B10000FBE0F901F9018951F920F920FB60F9255
:100B200011242F933F934F935F936F937F938F93F2
:100B30009F93AF93BF93EF93FF93E091B300F09136
:100B4000B400309709F00995FF91EF91BF91AF91F3
:100B50009F918F917F916F915F914F913F912F91D5
:100B60000F900FBE0F901F9018951F920F920FB607
:100B70000F9211242F933F934F935F936F937F9323
:100B80008F939F93AF93BF93EF93FF93E091B10047
:100B9000F091B200309709F00995FF91EF91BF9164
:100BA000AF919F918F917F916F915F914F913F9105
:100BB0002F910F900FBE0F901F901895991B79E001
:100BC00004C0991F961708F0961B881F7A95C9F7DD
:080BD00080950895F894FFCF11
:100BD800013F065B4F666D7D077F6F777C395E79D5
:100BE800710000000000000000000000000000008C
:100BF80000020000000200000000000002000000E7
:020C08000200E8
:00000001FF
